S01100006669727374546573742E737265634B
S11300000C943C000C9446000C9446000C9446005E
S11300100C9446000C9446000C9446000C94460044
S11300200C9446000C9446000C9446000C94460034
S11300300C9446000C9446000C9446000C94460024
S11300400C9446000C9446000C9446000C94460014
S11300500C9446000C9446000C9446000C94460004
S11300600C9446000C9446000C9446000C944600F4
S11300700C9446000C94460011241FBECFEFCDBF54
S1130080DFE3DEBF0E9448000C9473000C94000070
S113009060E070E081E690E00E946D00E0E2F4E050
S11300A080818360808380E0813039F4E0E2F4E091
S11300B084818360848380E006C0E0E2F4E084818C
S11300C08C7F848381E02FE734E89EE12150304027
S11300D09040E1F700C00000E7CFDC0128ED209359
S10D00E034006C930895F894FFCFE8
S9030000FC
