S0160000617474696E7946756C6C546573742E7372656342
S11300000C943C000C9459000C9459000C94590025
S11300100C9459000C9459000C9459000C945900F8
S11300200C9459000C9459000C9459000C945900E8
S11300300C9459000C9459000C9459000C945900D8
S11300400C9459000C9459000C9459000C945900C8
S11300500C9459000C9459000C9459000C945900B8
S11300600C9459000C9459000C9459000C945900A8
S11300700C9459000C94590011241FBECFEFCDBF2E
S1130080DFE3DEBF18E3A0E0B8E3E0E2FFE002C094
S113009005900D92A230B107D9F728E3A2E0B8E3A6
S11300A001C01D92A03BB207E1F70E9466000C94C8
S11300B08E070C940000E0E0F4E08081806280838D
S11300C0E0E4F4E0808188608083089560E081E664
S11300D090E00E9443070E945B000E9484030E94F8
S11300E091030E94EA000E9456030E9493000E941A
S11300F07F000E94C600789480E090E00895E0E0DC
S1130100F6E0808181628083818181838281806A3B
S113011082838085836080878285806182878481F1
S113012082608483089580E090E005C0FC01EC5F68
S1130130F74C1082019684309105C4F3E0E4F4E0B6
S11301408081877F808383898860838BA0E0B4E08B
S11301508C918F7E8C9354968C915497886054968E
S11301608C9380818E7F808380898860808BE0E29D
S1130170F4E080818F7E808384898860848B87E823
S113018093E10197F1F700C000000895E0E4F4E082
S113019080818D7F808381898860818BA0E2B4E037
S11301A08C91877F8C9353968C9153978860539648
S11301B08C93808581FD02C080E001C083E0909132
S11301C0280493FF02C091E089278093023810929B
S11301D008380895E0EAF8E089E0848783EE8187AF
S11301E0E9E0F8E381E0808382E0848383E0808730
S11301F084E084870895FC01838190E0FB012381DE
S1130200821B910908958F929F92AF92BF92CF92D1
S1130210DF92EF92FF920F931F93CF938C016A01A9
S11302207B01C22F2BE339E848E85CE3C701B60140
S11302300E94F1044B015C0120E030E040E752E40D
S1130240C701B6010E940B04882394F46C2F70E05C
S113025080E090E00E9441049B01AC01C501B4011F
S11302600E94F104EC2E0E941004F62EC0E0B1C0EE
S113027020E030E040EF52E4C701B6010E940B04D5
S11302808823E4F46C2F70E080E090E00E94410445
S11302906B017C01A501940160E070E080E090E4D2
S11302A00E949E039B01AC01C701B6010E94F104A8
S11302B00E941004E62EFC2EC0E08BC020E030E04B
S11302C044E353E4C701B6010E940B048823E4F419
S11302D06C2F70E080E090E00E9441046B017C018F
S11302E020E030E040E050E4C501B4010E949E03E8
S11302F09B01AC01C701B6010E94F104E12CFC2E64
S11303000E941004C62F65C020E030E040E753E4AB
S1130310C701B6010E940B048823DCF46C2F70E043
S113032080E090E00E9441046B017C01A5019401EE
S113033060E070E080E890E40E949E039B01AC01C1
S1130340C701B6010E94F104E12C0E941004F62EAC
S113035040C020E030E046E953E4C701B6010E9402
S11303600B048823DCF46C2F70E080E090E00E94A2
S113037041046B017C0120E030E040E850E4C50119
S1130380B4010E949E039B01AC01C701B6010E9407
S1130390F1040E941004E62EF12C1BC06C2F70E0B7
S11303A080E090E00E9441046B017C01A50194016E
S11303B060E070E080EC90E40E949E039B01AC013D
S11303C0C701B6010E94F104EC2EF12C0E94100426
S11303D0C62FF801E182F382C583CF911F910F915B
S11303E0FF90EF90DF90CF90BF90AF909F908F9051
S11303F00895A8E9B8E381E08C93E8E6F8E3828302
S113040089E998E38083918382E012968C93129712
S113041086838BE998E38483958314961C921497BE
S113042012868DE998E38087918786E016968C93EF
S1130430169786878FE998E38487958787E01896CF
S11304408C931897828B81EA98E3808B918B85E05B
S11304501A968C931A97868B83EA98E3848B958BF0
S113046089E01C968C931C97828F85EA98E3808F91
S1130470918F8AE01E968C931E97868F87EA98E365
S1130480848F958F88E050968C93509782A389EA45
S113049098E380A391A38EE052968C93529786A3FF
S11304A08BEA98E384A395A38FE054968C93549796
S11304B082A78DEA98E380A791A78DE056968C9346
S11304C086A78FEA98E384A795A7E0E2F8E3108271
S11304D011821282089580E090E00CC0FC01EE0FBE
S11304E0FF1FEE0FFF1FE859F74CA081B1812C913B
S11304F0238301968C3091058CF32BEF30E044E09C
S113050050E06CE070E088E698E30E949F0510924A
S113051000381092223820E030E047EE57EE51C008
S1130520F901EE0FFF1FEE0FFF1FE859F74C63812F
S11305308091003890E0FC01EE0FFF1F8E0F9F1F8B
S1130540FC01E05EF74C82818617C8F48091003884
S11305508F5F809300388091003890E0F901EE0FAE
S1130560FF1FEE0FFF1FE859F74C6381FC01EE0FEC
S1130570FF1F8E0F9F1FFC01E05EF74C6283F901A1
S1130580EE0FFF1FEE0FFF1FE859F74C628181E069
S113059090E002C0880F991F6A95E2F780959095C4
S11305A0482359238091003890E0FC01EE0FFF1F8F
S11305B08E0F9F1FFC01E05EF74C408351832F5F39
S11305C03F4F2C3031055CF4F901EE0FFF1FEE0FA5
S11305D0FF1FE859F74C83818F3F09F0A1CF809129
S11305E000388F5F8093003880E090E040E032C0B4
S11305F02091003830E0215031098217930759F4D3
S1130600FC01EE0FFF1FE80FF91FE05EF74C242FEB
S11306102095228315C09C012F5F3F4FF901EE0FF7
S1130620FF1F2E0F3F1FF901E05EF74C2281241BB0
S1130630FC01EE0FFF1FE80FF91FE05EF74C228369
S1130640FC01EE0FFF1FE80FF91FE05EF74C22815B
S1130650420F01962091003830E08217930744F24C
S113066008951F93CF93DF93142F10920338C82F4C
S1130670D0E080E090E00E943F04AB01BC01CE01D9
S1130680880F991F8C0F9D1F880F991F212F885643
S1130690974C0E9403010E946B02F89481E08093BE
S11306A003387894DF91CF911F910895E0E0F4E04E
S11306B080818A608083E0E2F4E0808184608083CA
S11306C0E0ECF8E080E2808384E8818380818160CB
S11306D080830E94F90140E060E070E080E00E94C5
S11306E0310340E060E070E081E00E94310340E0CB
S11306F060E070E082E00E94310340E060E070E07E
S113070083E00E9431030895E0E0FAE081E090E0A4
S113071086A397A382858160828780818D60808390
S11307200895E0E8FAE088E090E084879587858181
S11307308160858380818560808308955058BB27BC
S1130740AA270E94B6030C94B7040E94A90438F0A7
S11307500E94B00420F039F49F3F19F426F40C945D
S1130760A6040EF4E095E7FB0C94A004E92F0E9484
S1130770C80458F3BA17620773078407950720F073
S113078079F4A6F50C94EA040EF4E0950B2EBA2F36
S1130790A02D0B01B90190010C01CA01A001112483
S11307A0FF27591B99F0593F50F4503E68F11A162F
S11307B0F040A22F232F342F4427585FF3CF4695C0
S11307C037952795A795F0405395C9F77EF41F16E2
S11307D0BA0B620B730B840BBAF09150A1F0FF0FAC
S11307E0BB1F661F771F881FC2F70EC0BA0F621F98
S11307F0731F841F48F4879577956795B795F79588
S11308009E3F08F0B0CF9395880F08F09927EE0F1C
S11308109795879508950E947C0408F481E00895D3
S11308200E94D00488F09F5798F0B92F9927B751A8
S1130830B0F0E1F0660F771F881F991F1AF0BA9580
S1130840C9F714C0B13091F00E94EA04B1E00895F0
S11308500C94EA04672F782F8827B85F39F0B93FE2
S1130860CCF3869577956795B395D9F73EF4909533
S11308708095709561957F4F8F4F9F4F0895E894B1
S113088009C097FB3EF490958095709561957F4FD4
S11308908F4F9F4F9923A9F0F92F96E9BB27939582
S11308A0F695879577956795B795F111F8CFFAF492
S11308B0BB0F11F460FF1BC06F5F7F4F8F4F9F4FC3
S11308C016C0882311F096E911C0772321F09EE821
S11308D0872F762F05C0662371F096E8862F70E087
S11308E060E02AF09A95660F771F881FDAF7880F61
S11308F09695879597F90895990F0008550FAA0BB7
S1130900E0E8FEEF16161706E807F907C0F012161E
S11309101306E407F50798F0621B730B840B950B21
S113092039F40A2661F0232B242B252B21F4089576
S11309300A2609F4A140A6958FEF811D811D089513
S113094097F99F6780E870E060E008959FEF80EC7E
S1130950089500240A941616170618060906089521
S113096000240A9412161306140605060895092E87
S11309700394000C11F4882352F0BB0F40F4BF2BF6
S113098011F460FF04C06F5F7F4F8F4F9F4F089536
S113099057FD9058440F551F59F05F3F71F047952C
S11309A0880F97FB991F61F09F3F79F08795089511
S11309B0121613061406551FF2CF4695F1DF08C030
S11309C0161617061806991FF1CF8695710561054D
S11309D008940895E894BB2766277727CB0197F9F5
S11309E008950E9404050C94B7040E94A90438F0E9
S11309F00E94B00420F0952311F00C94A0040C94F0
S1130A00A60411240C94EB040E94C80470F3959F6F
S1130A10C1F3950F50E0551F629FF001729FBB27F1
S1130A20F00DB11D639FAA27F00DB11DAA1F649F8D
S1130A306627B00DA11D661F829F2227B00DA11D40
S1130A40621F739FB00DA11D621F839FA00D611DC6
S1130A50221F749F3327A00D611D231F849F600DE7
S1130A60211D822F762F6A2F11249F5750409AF010
S1130A70F1F088234AF0EE0FFF1FBB1F661F771F9C
S1130A80881F91505040A9F79E3F510580F00C9467
S1130A90A0040C94EB045F3FE4F3983ED4F38695F2
S1130AA077956795B795F795E7959F5FC1F7FE2B07
S1130AB0880F911D9695879597F90895DC01FB01A0
S1130AC08C9190819D938193415051091416150680
S1130AD0BCF30895A0E0B0E0E0E7F5E00C9467070C
S1130AE07C016B01D42FC52F8901F90109956D2F64
S1130AF07C2F97FF10C0C601F801099597FF02C02B
S1130B00C60118C06D2F7C2FC701F801099597FD08
S1130B100FC0C7010FC0C601F801099518161906C0
S1130B207CF36D2F7C2FC701F801099597FDF1CF58
S1130B308D2F9C2FCDB7DEB7E8E00C948007AAE098
S1130B40B0E0E5EAF5E00C945D078C017B01498790
S1130B505A87690129853A85200F311F29833A83F1
S1130B6037E0E316F10470F569807A8049855A8587
S1130B70E49E5001E59EB00CF49EB00C1124A00E2E
S1130B80B11E6A147B0408F07AC173010E151F05A7
S1130B9028F089859A85680E791EF3CF4701E98587
S1130BA0FA858E1A9F0AB701C401F6010995181631
S1130BB019067CF749855A85B401C7010E945E0570
S1130BC07401E4CFC7019695879529853A85829F5C
S1130BD05001839FB00C929FB00C1124A00EB11E43
S1130BE0A701415051094B835C8357E0E516F1049A
S1130BF009F44CC08B819C81829F3001839F700CCF
S1130C00929F700C1124600E711E99E2E916F10492
S1130C10A8F1C70143E0969587954A95E1F7829F2D
S1130C204001839F900C929F900C11241401220C7C
S1130C30331CA801420D531DB801680D791D96019E
S1130C40C8010E946A052C01A501480D591D919403
S1130C50819491089601B501C501880D991D0E94E2
S1130C606A055C01B301680D791D9601A301C301F6
S1130C70821993090E946A053C0101C0280196016A
S1130C80A301B501C2010E946A055C0149855A8528
S1130C90B501C8010E945E0569807A802B813C8180
S1130CA049855A85249FF001259FF00D349FF00D4E
S1130CB01124ED83FE835F01A00EB11E460D571D66
S1130CC04B835C832501130119821A828B809C80DB
S1130CD089859A85881A990AA814B90408F450C019
S1130CE0B801C401F601099518161906C4F1892B37
S1130CF071F449855A85B401C1010E945E05898554
S1130D009A85280E391EE1E0F0E0E983FA832B810D
S1130D103C8149855A85240F351F2B833C83D6CFCC
S1130D20B801C501F6010995950149855A85241B29
S1130D30350B2F83388797FD16C0892B71F44985AD
S1130D405A85B201C5010E945E0529853A85421A79
S1130D50530A41E050E049835A83AF80B884A81411
S1130D60B904F0F60DC049855A85B501C4010E9445
S1130D705E05AF80B88441E050E049835A83C7CF11
S1130D8089819A81892B09F44FC06D807E802985E1
S1130D903A85620E731E600E711E7401E218F30828
S1130DA0A101401B510BE416F5060CF4A70114161F
S1130DB0150634F4B401641B750BC8010E945E056A
S1130DC0A2014A195B095A01A301441955098985ED
S1130DD09A85481B590BA416B50608F4A5011416E8
S1130DE0150634F4B301641B750BC4010E945E053F
S1130DF0E985FA85EE15FF0548F4C701BF010E9495
S1130E0049079601AF01C8010E949F0529853A85CB
S1130E102A153B05A0F583010A191B09C501B9016F
S1130E200E9449077B0196CEE985FA85EE9E500122
S1130E30EF9EB00CFE9EB00C1124A00EB11E6A14DD
S1130E407B04E8F473010E151F0528F089859A8543
S1130E50680E791EF4CF4701E985FA858E1A9F0A38
S1130E60B701C401F6010995181619067CF74985DE
S1130E705A85B401C7010E945E057401E4CF2A9625
S1130E80E2E10C947607DC0128ED209334006C93A6
S1130E900895AA1BBB1B51E107C0AA1FBB1FA617BD
S1130EA0B70710F0A61BB70B881F991F5A95A9F70F
S1130EB080959095BC01CD0108952F923F924F9259
S1130EC05F926F927F928F929F92AF92BF92CF92D6
S1130ED0DF92EF92FF920F931F93CF93DF93CDB7DF
S1130EE0DEB7CA1BDB0BCDBFDEBF09942A88398865
S1130EF048885F846E847D848C849B84AA84B984AE
S1130F00C884DF80EE80FD800C811B81AA81B981B9
S1130F10CE0FD11DCDBFDEBFED010895F894FFCFF4
S1050F200100CA
S9030000FC
