:0200000460009A
:100000004643464200000156000000000101020084
:1000100000000000000000000000000000000000E0
:1000200000000000000000000000000000000000D0
:1000300000000000000000000000000000000000C0
:1000400000000000010403000000000000000000A8
:100050000000800000000000000000000000000020
:100060000000000000000000000000000000000090
:100070000000000000000000000000000000000080
:10008000EB04180A063204260000000000000000FD
:10009000050404240000000000000000000000002F
:1000A0000000000000000000000000000000000050
:1000B0000604000000000000000000000000000036
:1000C0000000000000000000000000000000000030
:1000D00020041808000000000000000000000000DC
:1000E0000000000000000000000000000000000010
:1000F0000000000000000000000000000000000000
:10010000D8041808000000000000000000000000F3
:100110000204180804200000000000000000000095
:1001200000000000000000000000000000000000CF
:10013000600400000000000000000000000000005B
:1001400000000000000000000000000000000000AF
:10015000000000000000000000000000000000009F
:10016000000000000000000000000000000000008F
:10017000000000000000000000000000000000007F
:10018000000000000000000000000000000000006F
:10019000000000000000000000000000000000005F
:1001A000000000000000000000000000000000004F
:1001B000000000000000000000000000000000003F
:1001C000000100000010000001000000000000001D
:1001D000000001000000000000000000000000001E
:1001E000000000000000000000000000000000000F
:1001F00000000000000000000000000000000000FF
:10020000FFFFFFFFFFFFFFFFFFFFFFFFFFFFFFFFFE
:10021000FFFFFFFFFFFFFFFFFFFFFFFFFFFFFFFFEE
:10100000D10020402C100060000000000000000013
:1010100020100060001000600000000000000000D0
:1010200000000060782D0100000000000000012099
:1010300035100060774B4FF42A01774A77485A649D
:101040001864774A99639546764A03F530337649B2
:1010500008208A42C3F854010FD0744B9A420CD234
:10106000D4430846234423F0030304330B4450F8CD
:10107000041B984242F8041BF9D16D4A6D498A421B
:101080000FD06D4B9A420CD2D4430846234423F030
:10109000030304330B4450F8041B984242F8041B2A
:1010A000F9D1664A664B9A420BD2D04311460024CE
:1010B000034423F003030433134441F8044B8B42ED
:1010C000FBD1604A4FF470015F4B116003F5307142
:1010D0005E4A43F8042F9942FBD15D4B80215D4A63
:1010E00003F8011B9342FBD15B4C4FF080375B4E02
:1010F0004FF0FF32DFF8A4A10025DFF8A491DFF85C
:10110000A481574B4349C3F800A0C4F80471C4F844
:101110000091C4F8F470C4F8F080F36923F07F0301
:1011200043F04003F361736A23F07F0343F040030D
:1011300073628A66CA660A674A6700F0E1F8494A3C
:101140006320494B4949106003221D60CAF83810DA
:1011500043F8082C4649474A4748C3F8082D0B680E
:10116000464A43F08073CAF83C0045480B60136858
:10117000444943F00103136003680B6000F0FAFA7E
:10118000C4F804714048C4F80091C4F8F470C4F87D
:10119000F08000F0B1FC00BF00BF00BF00BFF16EE7
:1011A0003A4A41F440513A4BF1661560C2F8085191
:1011B000C2F81851C2F82851C2F838519A6BD207B8
:1011C00008D442F61562334959651A659A6B42F0A4
:1011D00001029A632E4A304C936843F001139360E6
:1011E00000F00AF900F080FC2368132BFCD900F012
:1011F00081FB00F059F800F06FFC00F0EDFA00F010
:1012000063FC2368B3F5967FFBD300F069FC00F024
:101210005FFCFEE700C00A40AFAAAAAA07002000B0
:101220000000072000000000101B0060A8FC000068
:1012300000000020BC170160C0150020DC3B00202E
:101240004063002088ED00E0FC470020A52D000051
:1012500000E400E0A0E400E000800D4000C00F408A
:1012600008ED00E014E000E018E000E0FD3B0000C5
:10127000FCED00E000002020013C0000001000E038
:10128000041000E0143D00200046C3230040084045
:1012900000400D400000C0561C3D002000480020CA
:1012A0001B1018200C0D1113114B1249D86E0A4651
:1012B00040F4403030B4D86640F23765D86EA02490
:1012C00040F44070D8664D648C64936C1B06FCD46B
:1012D000094B40F23760A0211A4658649964936C18
:1012E00013F08003FBD1054A137030BC704700BF78
:1012F00000C00F4000400C4000800C40103D00201A
:10130000F0B5284A0020284B4FF0100C274C11272D
:10131000DFF8D8E0122620600125C2F800C0C3F82B
:1013200000E01760DFF8C8E0214FC3F800E0166066
:101330001F60204E204F166020491F60204E41F054
:101340001501204F16601F6007F540371E4E1160D3
:1013500002371E60DFF89CE01C4E1D49C2F800E019
:101360001F6016601B4F19601B4E1C4917601E60E2
:101370001B4F11601B4E1C491F60166019602560D1
:10138000BFF34F8FBFF36F8FC3F8B001BFF34F8F21
:10139000BFF36F8F52F8883C43F4403342F8883CE7
:1013A000F0BD00BF9CED00E0A0ED00E094ED00E09A
:1013B00009001000130020002100020740630020F4
:1013C0001400002025000813090000101700004039
:1013D00033001013180000602F000B071900007075
:1013E00037000B171A0000702F000B133F0000107E
:1013F0002500080316002020F0B5B84B1822B84E7F
:101400000120B84948F20C7EB74D4FF0FF37B74C7A
:10141000C3F85C12C3F860520025C3F86412C3F825
:1014200068424FF40054C3F86C62B149C3F870626B
:10143000C3F87462C3F87862AE4EDA661A675A6708
:101440009A67DA67C3F88020C3F88420C3F888203D
:1014500040F20562C1F82C03C1F83003C1F834032F
:10146000C1F83803C1F83C03C1F850032946B369F9
:10147000A1481840A14B0343A148B361D6F884307A
:1014800043F00C03C6F8843002260368334303603C
:10149000036803EA0E0E9B4B4EEA0303DFF89CE25F
:1014A0000360994B4760DEF808703B40974F43F06C
:1014B00000538360C36823F07803C360036A1F404E
:1014C000934B3B43914F0362036A1F40904B3B4356
:1014D000904F43628762C762DEF8B8308E4F23F0C8
:1014E0003F0343F00103C0F8B830DEF8BC30DFF84A
:1014F00034E223F03F0343F00103C0F8BC30056140
:1015000004660767C0F8802044664767C0F88420F7
:101510000468824B24F00204814A0460C0F818E099
:10152000C66143F8041B9342FBD1754B1A681946F8
:1015300042F001021A600B68714A13F00103FAD1FC
:10154000784E022540F2F56440F2664040F299413F
:10155000754F966142F20146D56140F23545C2F8B9
:10156000004242F20124C2F810020120C2F8201207
:101570001146C2F8307207F15A47C2F8346207F5D3
:101580001377C2F84052694E694DC2F85072C2F8E2
:101590005462C2F86052C2F86442C2F8A030C2F885
:1015A000A430C2F8B0004B69554ADD07FBD50123D2
:1015B00000244FF4803011465361C2F8A040C2F8B5
:1015C000A400C2F8B0304B694D4ADC07FBD50123BB
:1015D00000244FF4003011465361C2F8A040C2F815
:1015E000A400C2F8B0304B69454AD807FBD50123A7
:1015F0000024504811465361C2F8A040C2F8A4002C
:10160000C2F8B0304B693E4ADB07FBD5D2F8003157
:1016100045F60D5121209BB250618B4200D0F0BDA8
:1016200000244FF4802001231146C2F8A040C2F8E4
:10163000A400C2F8B0304B69314ADF07FBD5012363
:101640004FF40004002011465361C2F8A040C2F8D4
:10165000A400C2F8B0304B69294ADE07FBD501234C
:101660004FF400044FF4803011465361C2F8A0409B
:10167000C2F8A400C2F8B0304B69214ADD07FBD59F
:1016800001234FF400044FF4003011465361C2F8B7
:10169000A040C2F8A400C2F8B0304B69184ADC0779
:1016A000FBD501234FF40004224811465361C2F8D0
:1016B000A040C2F8A400C2F8B0304B69104AD80765
:1016C000FBD5D2F8003145F60D5121209BB2506177
:1016D0008B4235D0184B08221A70F0BD00801F4095
:1016E000F9700100F9B00100F9100100F9000100E2
:1016F00000841F4000C00F40FFFCFF1F000300A03C
:1017000000402A401200FFFFFF37F70000FFF07C87
:1017100040000080FF000F836300020000422A4067
:1017200000432A40F05AF05A9F041830063201262E
:101730003806180A04000300203D002000802A40DB
:101740004FF400044FF4802001231146C2F8A0405A
:10175000C2F8A400C2F8B0304B69044ADB07FBD5DD
:101760000120034B102150611970F0BD00402A4048
:10177000203D0020F0B4174A40274FF480314FF449
:1017800080564FF400554FF4404443F24200136931
:1017900013F0020F06D0946151619061136913F048
:1017A000020FF8D113F4005F01D15561EFE713F494
:1017B000805F01D15661EAE7002BE8DA13F4803F3D
:1017C00001D09161E3E75B0601D45761DFE7F0BC2C
:1017D000704700BF00800D403B4AF3EE096A3B4969
:1017E00000201368F0B523F001030324DFF800E1C3
:1017F0001360C2F89040D1F8E030354FDDB2C3F34A
:101800000B24344EC4EB135307EE905AA5F1550147
:10181000CEF80050B8EEE77A03EB830507EE904A66
:1018200003FB01F13B6003EB8313B8EEE75A07EECD
:10183000901A491B77EE666AB8EE677A264D07EE76
:10184000901A0B44C5ED006AF8EE677A3460C7EE73
:10185000265A224E15682249224C87EEA66A07EEC8
:10186000903A214BC6F84031F8EE677A87EEA67AB7
:1018700075EE855A76EE056AFCEEE55AFCEEE66AF0
:1018800015EE903A45EA035316EE905A77EE057A34
:10189000136001EA0541D2F81031FCEEE77A0B4300
:1018A000C2F8103117EE903AD2F81011C3F30B03BF
:1018B0000B43C2F81031136843F002031360207029
:1018C0000A4B01221A60F0BD80810D4000441F4088
:1018D0002C3D0020303D0020283D00200048002005
:1018E0000000FF0F40E400E0812E000008E100E06E
:1018F000243D0020304B40F6617270B5C3F82021C2
:1019000040F2044500F0DCF82C492D48D1F8802045
:101910002C4C42F003022C4BC1F88020C0F86051DF
:10192000226813401BB9D0F8A8319A071AD0244B6B
:101930004FF00041234A51631A46D3F8401141F059
:101940000201C3F84011D2F840319B07FBD44FF499
:1019500000301E491B4B4FF00042086019209A636B
:1019600000F0C6F81A4D0022164B4FF08041144C7F
:101970000A26996328461A601146C4F8A8614FF4F4
:10198000207200F099F84FF481064FF4800040F285
:101990004313104A10492E602864C4F85851C2F805
:1019A0000412C4F848310D4A4FF40031012311608C
:1019B000C4F8403170BD00BF00800D4000C00F4032
:1019C00000002E4000900D40001C1E008CE200E044
:1019D0000060002000480020ED2F00000CE100E036
:1019E00016035500530042002000530065007200AA
:1019F000690061006C000000180354006500650078
:101A00006E00730079006400750069006E006F005D
:101A10000403090409024300020100C03209040062
:101A2000000102020100052400100105240101014A
:101A30000424020605240600010705820310001095
:101A400009040100020A000000070503024000002B
:101A5000070584024000000009024300020100C0A3
:101A600032090400000102020100052400100105F2
:101A70002401010104240206052406000107058251
:101A80000310000509040100020A00000007050315
:101A90000200020007058402000200000A0600029C
:101AA00002000040010001FFF8B500BFF8BC08BC0F
:101AB0009E467047FFFFFFFF5FF800F0B1C30000D4
:101AC0005FF800F0A13700005FF800F0C12D0000C2
:101AD0005FF800F0D52700005FF800F0ED2A000065
:101AE0005FF800F0DDBC00005FF800F0BD2D0000E5
:101AF0005FF800F0092600005FF800F045230000C1
:101B00004500000001070000690A0000FFFFFFFF19
:101B100000000000000000000000000000000000C5
:101B200000000000000000000000000000000000B5
:101B300010B5054C237833B9044B13B10448AFF307
:101B400000800123237010BDDC3B0020000000005A
:101B5000A4FC0000084B10B51BB108490848AFF3BE
:101B600000800848036803B910BD074B002BFBD069
:101B7000BDE81040184700BF00000000E03B002017
:101B8000A4FC0000C01500200000000000207047E9
:101B900008B50121292002F059FB0021282002F07C
:101BA00055FB0021272002F051FB0021262002F0E6
:101BB0004DFB00211B20BDE8084002F047BB00BFE1
:101BC00008B50021292002F041FB0121282002F064
:101BD0003DFB0021272002F039FB0021262002F0E6
:101BE00035FB00211B20BDE8084002F02FBB00BFE1
:101BF00008B50021292002F029FB0021282002F04D
:101C000025FB0121272002F021FB0021262002F0E4
:101C10001DFB00211B20BDE8084002F017BB00BFE0
:101C200008B50021292002F011FB0021282002F034
:101C30000DFB0021272002F009FB0121262002F0E4
:101C400005FB00211B20BDE8084002F0FFBA00BFE1
:101C500008B50021292002F0F9FA0021282002F01D
:101C6000F5FA0021272002F0F1FA0021262002F0E7
:101C7000EDFA01211B20BDE8084002F0E7BA00BFE1
:101C800008B5002101F090F9DFED0A1AB3EE002A41
:101C9000F0EE610AB7EE001A00F0E8FAFDEEC07A45
:101CA000054B132083ED000A17EE901ABDE808409B
:101CB00002F040BC00000000003C002008B50021FC
:101CC00001F072F9DFED0A1AB3EE002AF0EE610AB4
:101CD000B7EE001A00F0CAFAFDEEC07A054B1420E8
:101CE00083ED000A17EE901ABDE8084002F022BC0E
:101CF00000000000043C002008B5002101F054F968
:101D0000DFED0A1AB3EE002AF0EE610AB7EE001A10
:101D100000F0ACFAFDEEC07A054B152083ED000A09
:101D200017EE901ABDE8084002F004BC0000000065
:101D3000083C002008B5002101F036F9DFED0A1A51
:101D4000B3EE002AF0EE610AB7EE001A00F08EFA48
:101D5000FDEEC07A054B162083ED000A17EE901AAF
:101D6000BDE8084002F0E6BB000000000C3C00208B
:101D700008B5002101F018F9DFED0A1AB3EE002AC8
:101D8000F0EE610AB7EE001A00F070FAFDEEC07ACC
:101D9000054B172083ED000A17EE901ABDE80840A6
:101DA00002F0C8BB00000000103C0020324B0022B3
:101DB00030B503F1640183B01A60143343F8102C7A
:101DC000002443F80C2C43F8082C43F8042C8B42D5
:101DD000F2D12A4A69462A4B55682A4A2A481C6089
:101DE0005C609C60DC601C610092019500F0AEFBC1
:101DF00042F23411254800F007FC0121292002F0AD
:101E000031FA0121282002F02DFA0121272002F0C9
:101E100029FA0121262002F025FA01211B2002F0D7
:101E200021FA0221252002F01DFA0221242002F0CD
:101E300019FA0221232002F015FA0221222002F0D1
:101E400011FA0221212002F00DFA0121132002F0E3
:101E500009FA0121142002F005FA0121152002F0EF
:101E600001FA0121162002F0FDF90121172002F0EC
:101E7000F9F903B030BD00BF503C0020143C0020F5
:101E80001C3C0020FC00002070090020303C002099
:101E90002DE9F04F4FF00008DFF86CA3DFF86CB3CA
:101EA00047462DED028B9FEDBB8A9DB007F00101E7
:101EB0001E2002F0CBF9C7F340011F2002F0C6F943
:101EC000C7F38701202002F0C1F9B34BDBF8001003
:101ED000B2481A683223A0FB0202920C03FB02F202
:101EE000DBF800305B1A9A42FAD87B1C01240025EB
:101EF0000193601EC0B201F079FF06460AEB0500AF
:101F000050F808309B1B002BB8BF5B42062B75DCDA
:101F100001341435062CECD1019F08F10408052F7B
:101F2000C4D150209E4E0124DFF884829D4F02F0E0
:101F3000F3F8C4F12600C0B202F08EF9012805467C
:101F400000F0A080013446F8045B062CF1D10CA807
:101F500000F0E2FF944800F041FC002846DD441EFA
:101F6000013C914800F0C0FBC1B20CA801F00CFC90
:101F7000631CF5D10CA801F0B3F8002800F0FF8035
:101F80000CA801F0ADF8002800F0F2800CA801F0D8
:101F9000A7F8002800F0E5800CA801F0A1F80028BF
:101FA00000F0D8800CA801F09BF8002800F0CB804E
:101FB0000CA801F095F8002800F0BE800CA801F0F4
:101FC0008FF8002800F0B1800CA801F089F80028F3
:101FD00000F0A4800CA801F083F8002800F097809E
:101FE0000CA801F07DF8002800F08A800CA800F011
:101FF000CDFF1DB0BDEC028BBDE8F08F05AF019B9E
:1020000022466A4940F808600CA80CF0B5F90CA902
:10201000384601F059F8182002F006FA07EE906AE7
:102020008146B8EEE70A80EE080A00F0CBFE99F888
:102030000030032B22D007990698013189000BF05C
:1020400091FFD8B1079B06905A1C40F82390079245
:10205000544B42F22832564803A95B680390524819
:10206000049300F027FB5049384601F04FF84E48E2
:1020700000F028FB384600F089FF49E703238DF87C
:102080002030E5E73368002B7FF45CAF0DF11409D5
:10209000224648490CA80CF06FF90CA9484601F0FB
:1020A00013F8182002F0C0F98246B7EE000A00F0DB
:1020B00089FE9AF80030032B68D0079B0698591CBC
:1020C00089000BF04FFF002860D0079B06905A1C38
:1020D00040F823A007927B6842F2283203A93248D5
:1020E0000493CDF80C8000F0E5FA2F49484601F042
:1020F0000DF82D4800F0E6FA484600F047FF21E7CA
:1021000003462D4A2D490CA800F0AEFF6EE70346AA
:102110002B4A2C490CA800F0A7FF61E703462A4A86
:102120002A490CA800F0A0FF54E70346284A294991
:102130000CA800F099FF47E70346274A27490CA857
:1021400000F092FF3AE70346254A26490CA800F022
:102150008BFF2DE70346244A24490CA800F084FF96
:1021600020E70346224A23490CA800F07DFF13E72D
:102170000346214A21490CA800F076FF06E70346F2
:102180001F4A20490CA800F06FFFF9E603238DF8E1
:102190002030A0E700C07F448C09002083DE1B4371
:1021A0001C3C0020F83B0020303C002000000020B8
:1021B000FC000020140000206102000078000020D4
:1021C000250200006C000020E901000060000020F2
:1021D000AD01000054000020710100004800002003
:1021E00041010000400000201101000038000020E3
:1021F000E100000030000020B100000028000020B5
:102200008100000020000020503C0020041000E06D
:10221000F0B5114B002011494FF47A76104D082487
:10222000104A4FF08B0E1D608D279E60A825C0269A
:102230009C7718712B241873586119610A4B11602F
:1022400082F807E01960DF7116711E7155715D71BA
:1022500094719C71F0BD00BF303C0020FC00002058
:10226000A4000020143C0020F83B002030EE600A5F
:1022700032EE612A31EE601A20EE022A82EE010A65
:1022800030EE210A704700BF00207047704700BF42
:10229000014B1868704700BF1C3D002010B5044674
:1022A00001F036FD204610BD0029194B14BF012155
:1022B000002130B5197083B013D01546044606F0DE
:1022C0006BFD06F07BFD00238DF804308DF80530A2
:1022D0008DF806308DF80730019B834208D003B09B
:1022E00030BD04F0BDFA03B0BDE8304004F0B0BA30
:1022F000084B18461C6004F03DFA0028EFD0204639
:1023000004F0AEFA296803B0BDE8304004F0C2BA68
:10231000C83C0020CC3C0020704700BF704700BF85
:102320002DE9F04F8DB08DE80F0006F035FD06F079
:102330008BFC002840F09D80574B1B68002B00F061
:102340009F80564B1B68002B00F09F80544D2B68DC
:1023500013B94FF400632B60524E3078002800F020
:102360008B808000504C02F061F833782060980038
:102370004E4F02F05BF833786060580002F056F878
:102380003378A060580002F051F83378E06098008C
:1023900002F04CF833782061980002F047F8337867
:1023A0003860580002F042F833786061580002F05B
:1023B0003DF83F4A33781060E3B14FF0000BD84648
:1023C0000FFA8BF9D4F800A028680BF1010B02F08A
:1023D0002DF84AF82900D4F804A05FFA8BFB28688E
:1023E00002F024F84AF829003B6843F82980337842
:1023F0005B45E5D8294B08A8274A1B681168089354
:102400002C4A2D4B09910A920B9307F0A9FE01303B
:102410002FD000990622294806F0ACFD013028D0C3
:1024200006F0BAFC28B306F0B7FC254B059005A8CA
:10243000069304F09DFC45F6BF522249224801F064
:1024400007FC06F0A9FC019B5968169B5A6806F028
:102450007BFC06F0A1FC039B596806F085FC06F0A6
:102460009BFC029B596806F08BFC184A1378002BE2
:10247000FCD00DB0BDE8F08F08232020337071E749
:102480004FF48033044A13605BE7034B186801F094
:10249000CDFF024B186059E7B43C0020C43C00203B
:1024A000BC3C0020B83C002000002020C03C0020A4
:1024B000E43C00208400002094000020E00A00207A
:1024C000990700003D87000078090020C83C0020E3
:1024D000F0B58BB04F685B68FF25516808AE0D4CB6
:1024E0004FF0000E079304AA059106AB02A90096CF
:1024F000039702940494069408948DF824508DF860
:1025000025508DF826508DF827E0FFF709FF0BB016
:10251000F0BD00BFFC000020F0B589B04D6801217E
:102520005768019506AB8DF8071004AA064C02A95E
:10253000019E039505970796029404940694FFF76D
:10254000C7FF09B0F0BD00BFFC00002030B5012579
:1025500087B04C68074B04AA019402A98DF8075074
:10256000019D0394059502930493FFF7D5FF07B0EF
:1025700030BD00BFFC00002030B4054B0024054DE9
:102580005C601D60044A0549054830BC03F0D2B8C0
:10259000DC3C0020FC0000206C0900208D070000BE
:1025A0007809002003689B6B184700BF4969024AFD
:1025B00041600260704700BFFC000020008B704744
:1025C000C0897047808B80B2704700BF10B582B061
:1025D0000468012202AB03F8011D1946636898479D
:1025E00002B010BD704700BF38B5064D837F2A7812
:1025F0009A4205D90446184600F052FA2B78A37780
:1026000038BD00BFB83C0020104B1A7870B50446A6
:102610000E460F4D82B100212A781970827731461B
:10262000022000F02DF92B78A07783420BD90023EC
:10263000E6810120A38370BD807F2B788342EED991
:1026400000F02EFAEBE7002070BD00BF80090020EB
:10265000B83C0020F0B500238BB0154C0D46174652
:10266000069309930646029305940894019406F094
:1026700093FB06F0ADFB03A9049005A8039400F0BA
:1026800035FB294605A841F2883301AA00F032FB48
:10269000012801D00BB0F0BD33683A46029D03A972
:1026A0009B6A30460394049598470BB0F0BD00BF79
:1026B000FC00002008B5002304314383807F00F034
:1026C00093FA08BD08B5807F00F0B6FA08BD00BFD8
:1026D00010B5044693B2807F0A46618B00F050FA31
:1026E000638B0344638310BD838B9BB213B94FF09C
:1026F000FF30704710B582B004460122807F0DF193
:10270000070100F0CFF9002807DDA38B9DF8070033
:10271000013B9BB2A38302B010BD4FF0FF30FAE73C
:10272000838B9BB2CBB1838B9BB2934210B5044693
:102730000CD912B2807F00F0B5F90246002A0FDDF5
:10274000A38B10469B1A9BB2A38310BD828B807F04
:1027500012B200F0A7F90246F0E74FF0FF307047E1
:102760004FF0FF3010BD00BF074A08B5837F1278D5
:102770009A4202D9828B92B212B94FF0FF3008BD53
:10278000184600F0EFF908BDB83C0020F0B5114D37
:102790000446807F83B02B780F461646834215D8B7
:1027A0000D4B32467F68694682208DE8880000F034
:1027B00015F92B78A077834205D900230120E68103
:1027C000A38303B0F0BD002003B0F0BD00F068F9B2
:1027D000E6E700BFB83C0020FC000020F0B505464D
:1027E00087B0807F00F0A4F9A88308B907B0F0BDD6
:1027F0001F4B0C271F4806ACAA7F0DEB0706196874
:1028000000230068DFF874E051F8221050F822002D
:10281000DEF8002044F8107D0096019407F094F94A
:10282000154B0021AA7F1B68044623F8121004F000
:1028300039FD063018D0631C16D0002C12DDBDF80F
:102840000E3020469DF814605BBA9DF815409DF847
:1028500016109DF817202B832E756C75A975EA75D7
:1028600007B0F0BD2046C1E7002007B0F0BD00BFB3
:1028700004002020C03C002014002020BC3C00208C
:102880002DE9F04FDFF8509189B099F800E0BEF1E2
:10289000000F16D0DFF83481D8F800A0DAF8006015
:1028A0009EB10AF10403012403E0DAF8007077B165
:1028B0001446E5B29A46A600621CAE4503F1040335
:1028C000F3D8704609B0BDE8F08F344635463D4A2E
:1028D0008B4602284FF001011268074603910292CD
:1028E00048D02128EDD10022084607F057FACAF84F
:1028F0000000D8F80020DFF8D4A09259002A45D073
:102900000C22002105A807F06DFDDAF800009BFA03
:102910009BF2002104234FF0010E8059009302AB7B
:10292000ADF81620062207912749ADF814E007F00C
:1029300081F9DAF8000002AB0522234950F806E0DD
:1029400004200090704607F075F9212F21D0D8F8A7
:10295000003005A90C221D4F985907F083FA013069
:1029600010D01B4B002228461B6823F8142009B006
:10297000BDE8F08F08460022394607F00FFACAF882
:102980000000B6E73B68985907F03EF899F8000058
:1029900098E7DAF8007003AB0E491022BF590868B7
:1029A0000621049038460427009707F043F9DAF827
:1029B000001004AB032288590349009707F03AF945
:1029C000C5E700BFBC3C002017E50300C03C002069
:1029D000E43C0020F0000020B83C00202DE9F04746
:1029E000022086B089461146FFF74AFF224B054672
:1029F0001B7883423BD099F80540002699F80420C3
:102A00000FFA80F8240499F8073099F806C04FF0BF
:102A1000080E04EB0264194F31460DF118091C44ED
:102A20003A6804AB4FF0040A04EB0C2452F8280077
:102A30001922CDF800E024BA0596049407F0FAF8BC
:102A40003868FF233146182250F8280049F80C3D19
:102A50004B46CDF800A007F0EDF83A684B463146FA
:102A600052F828001722CDF800A007F0E3F8284616
:102A700006B0BDE8F08700BFB83C0020C03C002095
:102A800038B5064D04462B6853F8200006F0BCFF0D
:102A90002B68002243F8242038BD00BFC03C002032
:102AA000FFF7EEBF2DE9F0411E4E45001E4B376883
:102AB0001B6837F810E02F449E452FD080460EEB60
:102AC00002001446834212DD69B1184B08461B68A8
:102AD00053F82810714407F003FC376837F818E002
:102AE0002F440EEB040038802046BDE8F081CEEB89
:102AF0000304A4B261B10D4B084622461B6853F88B
:102B00002810714407F0ECFB33685F1933F818E0C4
:102B100004EB0E0120463980BDE8F0814FF0FF3410
:102B2000E2E700BF14002020BC3C0020040020206D
:102B3000094A0223094910B509681468084A51F87E
:102B40002010126854F8200007F06AF8431C14BFE4
:102B500080B2002010BD00BFC03C00200400202037
:102B6000BC3C0020044A054B12681B6852F8202028
:102B700033F81030D05C704704002020140020206F
:102B800070B51D460B440E4604B2B3F5006F144BEE
:102B900010DA1B6811462A4653F82400304407F027
:102BA0009FFB104B28461A6832F814301D4422F857
:102BB000145070BD1B68C1F50065114653F8240020
:102BC0002A46304407F08CFB064BA8B21A6832F84C
:102BD00014309E1B06F5006622F8146070BD00BF1D
:102BE00000002020080020200B780BB94B789BB107
:102BF000D2B103B20D4852BAF0B40D4C00270568AB
:102C0000012026680B4C26F8137045F82310216824
:102C1000F0BC21F8132070478B78002BE8D1CB78DB
:102C2000002BE5D118467047104670471000202051
:102C3000080020200C002020F0B5154C87B0154A64
:102C40000C2624680123D2F800E00DEB0605124A99
:102C50001249134F54F82040ADF80C3000233EF8D1
:102C600010E03F6812680968246851F82010ADF838
:102C70000EE032F8102057F8200005948DE860002F
:102C800006F0F0FE013018BF012007B0F0BD00BF14
:102C9000100020200C002020080020200000202010
:102CA000C03C002088B181B10388012B30B410D022
:102CB0001030002303E030F8104B012C0AD0013310
:102CC00005469942F7D130BC70474FF0FF3393600F
:102CD000704705462B7A012113746B7A5374AB7AD3
:102CE0009374EB7A9160D37430BC70474B68436047
:102CF000704700BF2DE9F0410023044688B0012051
:102D00004FF454571C4EA360884605931546029312
:102D1000039304930793ADF806700696ADF804008C
:102D2000ADF8140006F038F806F0A4F927796679B2
:102D3000A279E379029001A8CDF8108007948DF86C
:102D40000C708DF80D608DF80E208DF80F3003F0AB
:102D50008FFE48B1A368002BFCD0A368013302D0DA
:102D6000A068012803D0002008B0BDE8F0812369E5
:102D70006B6008B0BDE8F0819511000070B50022CD
:102D800004467323084622700D46A3600BF000FD35
:102D9000013060600AF052FD30B1064629460BF062
:102DA00085FC2046266170BD03232046237070BD3C
:102DB00030B40025692404220161057084604260FA
:102DC00030BC704710B400246621042280ED040A50
:102DD0000470816042605DF8044B7047F0B40346B4
:102DE00082B000277426082503F110041F709E602E
:102DF0005D608DE806009DE8030084E80500184644
:102E000002B0F0BC704700BF10B400240821642257
:102E10000470416082605DF8044B80ED040B7047E4
:102E20002DE9F041144682B005460023C4F3074063
:102E3000C4F30726270E8DF807408DF80500201DE6
:102E40008DF8047062228DF806609842019EAA6097
:102E5000009668602B700FDD88460AF0EFFC07468D
:102E600078B12246414640F8046B01F043FA284607
:102E70002F6102B0BDE8F08128462B6102B0BDE8A9
:102E8000F081032328462B7002B0BDE8F08100BF1B
:102E90004368002B10B5044604DD8368732B03D010
:102EA000622B01D0204610BD20690AF0CFFC2046DD
:102EB00010BD00BF10B40224002281600470426083
:102EC0005DF8044B704700BF8368662B0CBF90ED24
:102ED000040A9FED010A70470000000010B50023AE
:102EE0000446102103601846A360237363602361C6
:102EF0006361A3610BF036F8206128B11023A36150
:102F000000236361637310BD0323206123730023D7
:102F10006361637310BD00BF10B50446FFF7DEFFA9
:102F200002232046237310BD70B583680024054634
:102F30004268A34204730EDD52F824600134304627
:102F40003EB1FFF7A5FF3046182101F071FA6A681B
:102F5000AB68A342F0DC10460AF078FC0023102195
:102F600028696B60AB606B730AF0FCFF286128B1C5
:102F700010232846AB6100236B6170BD03232861D9
:102F800028462B7300236B6170BD00BF10B504464B
:102F900000680AF05BFC2046FFF7C6FF20690AF0D4
:102FA00055FC204610BD00BF8268914230B420DA43
:102FB0004468037B54F82150191C18BF0121002AD2
:102FC00012DD00239A4204DC0422002302731B78E2
:102FD000FFDE446854F8234001332478002C18BFE6
:102FE00041F001019A42EDDC51B19FED070A30BC7E
:102FF00070470423002A0373F7DD00250121E0E771
:10300000284630BCFFF760BF000000008268914294
:1030100030B41FDA4468037B54F82150191C18BFE0
:103020000121002A12DD00239A4204DC042200233D
:1030300002731B78FFDE446854F823400133247880
:10304000002C18BF41F001019A42EDDC49B9287A01
:1030500030BC70470423002A037302DD00250121E0
:10306000E1E7002030BC704730B5044683B000680B
:10307000154601AA18446B4600F058FC032802D0FC
:10308000002003B030BD2046A847012003B030BD6A
:10309000F8B50D46044600680AF0D8FB28460BF048
:1030A00077FB461C30460AF0C9FB074630B1324672
:1030B000294601F01FF927602046F8BD0323206050
:1030C00020462373F8BD00BF38B504460D46FFF710
:1030D00005FF29462046FFF7DBFF204638BD00BF2D
:1030E000027B8168003218BF012200290BDD436892
:1030F00003EB810053F8041B0978002918BF42F044
:1031000001029842F6D11046704700BF027B2DE9BC
:10311000F04F00320646806885B018BF01220C4689
:1031200000280BDD736803EB800053F8041B09785B
:10313000002918BF42F001028342F6D11AB130468D
:1031400005B0BDE8F08F356828460BF021FB421C26
:1031500029462368554220465B6805F003059847D9
:1031600035B12368002120461B689847013DF8D1FE
:1031700023682C2120461B689847B368002B0DDD7F
:10318000002523682946304601351F68FFF73EFFBA
:1031900001462046B847B368AB42F2DCDB4313F08C
:1031A000030347D05D1E2368013D002120461B68B4
:1031B00098476B1CF7D1B268002AC0DD00271BE0DE
:1031C000742B4CD0542B14D0462B12D0EA7C02A97D
:1031D000236820468DF80820AA7C8DF809206A7C97
:1031E0008DF80A202A7C8DF80B206A685B68984766
:1031F000B2680137BA42A2DD736853F82750AB6852
:10320000732B19D0622B17D0642BD9D105F117037A
:103210000DF107020F3513F80119AB4202F8011F37
:10322000F9D10822236820460DEB02015B6898471C
:10323000B268DEE70325B6E7236820466A68296995
:103240005B6898476D686D4215F00305D0D0236820
:10325000002120461B689847013DF8D1C8E7297C2A
:1032600004226B7C95F812E0E87C95F8148095F8C0
:10327000159095F816A095F817B08DF80B100DEB7A
:1032800002018DF8080020468DF809E08DF80A301B
:10329000029D236801955B6898478DF808B08DF80A
:1032A00009A004228DF80A9020468DF80B800DEBC2
:1032B0000201029D236801955B689847B26898E710
:1032C00010B501690446FFF7E3FE002320691021D1
:1032D00023730AF047FE206120B11023A36100236D
:1032E000636110BD0323206123730023636110BD5C
:1032F0002DE9F0418668002E2DED028B84B00FDDA4
:1033000047683A681378022B0FD03C46002304E04C
:1033100054F8042F1578022D08D00133B342F7D1A9
:1033200004B0BDEC028BBDE8F08100239268044636
:10333000623A122AF4D801A050F822F0831A000051
:1033400011180000231A000011180000CD19000008
:103350001118000011180000591900001118000080
:1033600011180000111800001118000011180000B9
:1033700011180000111800001118000011180000A9
:103380001F190000791800006269082AC8D1216954
:103390006A4657F823509E000868496803C29DF8A2
:1033A00003109DF802209DF801309DF800708DF803
:1033B00008108DF809208DF80A309DF807009DF857
:1033C00006109DF805209DF804308DF80B70DDF88F
:1033D00008808DF808008DF809108DF80A208DF806
:1033E0000B30029F35B12846FFF752FD28461821C1
:1033F00001F01EF81820CDF80880039701F014F8AA
:1034000004AB054613E90600FFF7E8FC2B78032B15
:1034100000F0BD8063689D51102120690AF0A2FD73
:103420002061002851D10323206123734FE000293C
:103430007FF476AF57F823509E00276935B12846B0
:10344000FFF726FD2846182100F0F2FF182000F0B3
:10345000EBFF05463946FFF791FC2B78032B00F074
:10346000DE8063689D51C4E06269042A7FF458AF2E
:1034700022699E0057F82350507817789178D378B6
:103480008DF80B708DF80A008DF809108DF8083052
:10349000029F35B12846FFF7FBFC2846182100F0B3
:1034A000C7FF182000F0C0FF05463946FFF780FC33
:1034B0002B78032B3BD063689D51102120690AF0C3
:1034C00051FD2061002800F0A1801023A36100239A
:1034D000636104B0BDEC028BBDE8F0816269042A2F
:1034E0007FF41EAF22699E0057F82350507817785A
:1034F0009178D3788DF80B708DF80A008DF809104B
:103500008DF808309DED028A35B12846FFF7C0FCE2
:103510002846182100F08CFF182000F085FF054692
:10352000B0EE480AFFF74EFC2B78032BC3D1237370
:10353000C3E76269082A7FF4F3AE21690DF107053C
:10354000EE460DF1FF3608682A464968AEE80300EA
:1035500012F80119B24205F8011FF9D157F82350AA
:103560009E009DED028B35B12846FFF791FC284661
:10357000182100F05DFF182000F056FF0546B0EE60
:10358000480BFFF741FC2B78032B7FF443AF2373E9
:1035900042E7616904297FF7C3AE25692A786E780E
:1035A0008DF80B20A878EA788DF80A608DF808204D
:1035B0008DF80900029E321D91427FF4B1AE57F89A
:1035C00023704FEA830837B13846FFF761FC38466D
:1035D000182100F02DFF182000F026FF0746324684
:1035E000291DFFF71DFC3B78032B18D0636843F8B7
:1035F0000870102120690AF0B5FC206158B1102331
:10360000A361002206236261637389E6032200231B
:10361000227323615BE7032320612373F1E72373A4
:10362000E7E700BF38B58369002B08DD436902690D
:103630005C1C4461D1548369013B836138BD0D46F4
:1036400041690446006911310AF08CFC206130B1F7
:1036500063691022591C6161C554A26138BD0323FE
:10366000237338BD70B504460D46FFF7DBFF637B5F
:10367000062B10D8DFE803F03B4048570510160032
:103680002373A268D343616913F0030308BF0423C3
:10369000134499421ED070BD29462046BDE87040B3
:1036A000FFF726BEA5686B1EF5D49A0003E0013B28
:1036B000043A591CEFD09D423ADD61688958087878
:1036C0000028F4D14B685B4213F0030335D06269E4
:1036D0009A42E0D1102120690AF044FC206178B3BD
:1036E0001023A361002205236261637370BD2F2D37
:1036F000D1D10123637370BD002DCCD12046FFF7DB
:10370000DFFD0223637370BD2C2DC4D1032510216E
:10371000206965730AF026FC206170B31023A36151
:103720000023636170BD85B90423A2686373A9E7B0
:103730000422002322731B78FFDE0523637370BD10
:103740000322002322732361CCE7182000F06CFED3
:1037500006462946FFF7AEFB3378032B90D0A368CB
:103760006068591C89000AF0FDFB48B1A3686060DD
:103770005A1C40F82360A26084E725732061CFE7DC
:103780000323A26823737DE710B50446FFF76AFFA1
:10379000204610BD70B44378212B19D0421C01265D
:1037A00000205D2B09D043B154782D2C07D00D7823
:1037B00001329D422346F4D1304670BC70470C78EC
:1037C0009C4202D39378A342F6D2D3780332E8E73F
:1037D000821C837800260120E3E700BF70B54378A0
:1037E0007D2B18BF002B2AD02F2B28D001300D465F
:1037F0007D2B18BF002B22D02C2B20D0044601E0BB
:103800002C2B0ED014F8013F7D2B18BF002B14BFBA
:10381000012200222F2B0CBF002202F00102002AFD
:10382000EED1261A294632460BF020F840B16378D3
:10383000601C7D2B18BF002B01D02F2BD8D1002668
:10384000304670BD10B4027803460C465D2A08D09D
:1038500011D83F2A25D05B2A1BD15DF8044BFFF716
:1038600099BF13F8012D5B2AFBD1214618465DF85C
:10387000044BFFF78FBF7B2A07D07D2A09D113F8AD
:10388000012D7B2AFBD1214618465DF8044BFFF73A
:10389000A5BF20785DF8044B801AB0FA80F040098B
:1038A000704701205DF8044B704700BF70B50446B7
:1038B0000E460578314616F8013B2F2B11D083B107
:1038C0002A2D24D02046FFF7BDFF90B105F0DF057B
:1038D0005B2D0FD0314616F8013B657801342F2B54
:1038E000EDD12F2D18D0B5FA85F04009A0B92A2DB9
:1038F00014D070BD14F8013F03F0DF035D2BE9D055
:1039000014F8013F03F0DF035D2BF3D1E2E7601C05
:10391000FFF7CCFF0028CDD0012070BD60780028D3
:1039200018BF2F280CBF0120002070BD2DE9F04FDB
:1039300087B016461D4604460292894603930190BD
:103940000AF04AFD60B920460AF022FF306048467E
:103950000AF01EFF03232860184607B0BDE8F08F69
:103960000023029A4F46019E1360039A136099F850
:103970000050CDB13478BCB12A2C4AD02A2D28D1A0
:103980002F2C01D10AE04BB116F8013F2F2BFAD1B1
:1039900017F8015F2F2DECD0002DEAD017F8015F4A
:1039A0002F2DF9D1002DE5D1019B0299F21AC9EB17
:1039B00007030A60039A13603B783278B3FA83F303
:1039C0005B09002AC8D143F00203184607B0BDE8DE
:1039D000F08F39463046FFF735FF002800F093801E
:1039E0005B2C05D07B2C0CD07D7801360137C0E7ED
:1039F00016F8013F5D2BF7D016F8013F5D2BF7D18C
:103A0000F2E716F8013F7D2BFBD1074401363D78E4
:103A1000AFE72F2D3B4601D104E01AB113F8012F77
:103A20002F2AFAD1B046002101E04CB190462A2C51
:103A300098F8014008F1010208BF01312F2CF4D1A0
:103A4000012903F1FF347DD0022961D112F801ACC4
:103A5000BAF12A0F1FD021464046FFF7F3FE002897
:103A600051D00AF0DF0ABAF15D0F69D198F8003041
:103A7000404603F0DF035B2B05D010F8013D03F057
:103A8000DF035B2BF9D110F801AC013C00F1FF38EA
:103A9000BAF12A0FDFD10134A74232D208F1FF3345
:103AA00018F8012C04959B469046CDF81490B8F177
:103AB0002A0F04F1FF3478D0C146A2465D46514634
:103AC0002846FFF7BFFEC0B109F0DF09B9F15D0F6D
:103AD00034D12B78284603F0DF035B2B05D010F898
:103AE000013D03F0DF035B2BF9D110F8019C0AF1D3
:103AF000FF3A451EB9F12A0FE1D1AE424AD0A742A2
:103B0000D5D3002328E70346184607B0BDE8F08F59
:103B100039463046FFF7CAFE08B9F4E71BB116F87C
:103B2000013F2F2BFAD12F2D03D123E7002D3FF496
:103B300020AF17F8015F2F2DF8D11AE72846D4E7F8
:103B40004046A0E712F801ACBAF12A0FE7D02146AF
:103B50004046FFF777FE0028D5D00AF0DF0ABAF119
:103B60005D0F15D198F80030404603F0DF035B2B62
:103B700005D010F8013D03F0DF035B2BF9D110F8FD
:103B800001AC013C00F1FF38BAF12A0FDFD1C6E7E2
:103B90004046F4E73378AA46DDF814902F2B049DB5
:103BA00001D0002BBBD15646BDE75D46A5E700BF5F
:103BB00070B504460D46C61D002308460A2214F8B7
:103BC000041F00F0D3F82B682E2128461B68984765
:103BD00014F8011F00230A22284600F0C7F8B44257
:103BE000F1D1042070BD00BF10B5144C236813B18F
:103BF000134AD168E9B9636813B1124AD168A1B90F
:103C0000A36813B1104AD16859B9E3683BB10F4AB0
:103C1000D16829B10121BDE81040D160184710BD1D
:103C200010BD0121D1609847EFE70121D16098478D
:103C3000E6E70121D1609847DDE700BF003D0020A5
:103C400000410840104108402041084030410840F0
:103C50000368F0B55BB3002501249D60DC60214D55
:103C600003241A601D449C601F4C03792D111F4FC3
:103C7000635523786078FF2BA278E47828BFFF2370
:103C80001B4E47F82510834228BF0346194893422C
:103C9000C0F8286228BF1346A34228BF2346164C0B
:103CA0004FF08061154A012023701160F0BD144F60
:103CB0004FF0010C134EFC6EDFF850E0334644F435
:103CC0004054114DFC66CEF800C006609C68002C84
:103CD000C5D01033AB420360F8D10023036018460F
:103CE000F0BD00BF00BFF7BF84090020003D0020E9
:103CF000D9200000004800207AE400E00CE100E058
:103D000000C00F40004108404041084000400840CA
:103D100002680AB3114B12491344F0B51B11FF2579
:103D20000024DFF844E0CD540E784D78FF2E9460E7
:103D30004EF8234028BFFF268A78C978AE42334622
:103D4000084F28BF2B46934228BF13468B4228BFFB
:103D50000B463B700460F0BD704700BF00BFF7BF6B
:103D6000840900207AE400E0003D0020F0B506461A
:103D70008BB0002A33D0012A08BF0A2251B3212573
:103D800000E0FDB26F1EB1FBF2F402FB1411C8B2E9
:103D9000092900F1370100F1300088BFC8B221467F
:103DA0000AAC98BFC0B22C4404F8240C0029E8D116
:103DB00033B1013D0AAB2D22EDB22B4403F8242C84
:103DC000336801A9C5F12202304629445B6898474F
:103DD0000BB0F0BD302221258DF82520E8E70368DF
:103DE000C9B21B6898470BB0F0BD00BF2A281BD88A
:103DF00014490B784BB1144A936C1B06FCD4134A3C
:103E0000936C13F08003FBD10B70114B1B5CFF2BE9
:103E10000AD01A060AD40C4A114613600B6A0A4AE1
:103E2000D807FBD5506A704700207047074A03F057
:103E30007F03114613600B6A044ADB07FBD5506A07
:103E4000704700BF103D002000400C4000800C4037
:103E500000010020964A974B90422DE9F043964C82
:103E6000D3F814E09969E6681CD9944B984240F263
:103E70001581934B40F22765924F0344924C1A0AE6
:103E8000A7FB0232D30903EB830303EB830202F2A5
:103E9000E243AB4228BF2B46A3F54873A4FB03358E
:103EA000ED0804E0894DA84294BF06250E25814AFD
:103EB00006F01F07D2F88030AF4243F0C003C2F8CB
:103EC00080300AD27C4B26F01F061A462E43DE6055
:103ED0001368002BFCDA06F01F071EF0007331D1C7
:103EE0007B4C7C4AD4F810C014460CEA0202A24271
:103EF0000ABF4FF0C0534FF4805200228EEA0304F1
:103F000014F0605F08D02EF0605E03F06053694CDF
:103F100043EA0E0EC4F814E081EA020313F4405F92
:103F200008D0644B21F4405111431A469961936CB7
:103F30001C07FCD44EF0007E5E4AC2F814E0936C7D
:103F40009906FCD40121644C0A4601FB02F300FBF4
:103F500003F3A34209D8072A00F29580013201FB3E
:103F600002F300FB03F3A342F5D95C485C4C184410
:103F7000A4FB00031B0D6C2B00F28B80352B00F291
:103F80008F80DFF8888136235648DFF844C1564CCD
:103F9000DCF80090B0FBF2F009EA04044445B0FB01
:103FA000F1F00BD043F400534FF480586446CCF842
:103FB0000080CCF800302368002BFCDADFF8F4C076
:103FC000013ADCF8103003F00703934207D002F007
:103FD00007026446CCF81020A36CDB03FCD4013943
:103FE00089028EEA010313F4E05F0CD0314B2EF40A
:103FF000E05E01F4E0511A4641EA0E0EC3F814E007
:10400000936C9907FCD4394B39490344DB09A1FB74
:104010000331090B042928BF04214B1E1B028EEA21
:10402000030212F4407F07D02EF4407E03F4407365
:10403000204A43EA0E0353611E4B5C691A4624F082
:1040400000745C61936C9B06FCD42A4B4FF0FF32EA
:10405000294CBD42A3FB00E320604FEA9343274C69
:10406000B2FBF3F3B0FBF1F1254A2160136008D2F3
:10407000114B26F01F061A462E43DE601368002BF4
:10408000FCDABDE8F08304293FF66FAF013101226D
:104090005BE7DFF87C806C231A4876E7122506E799
:1040A0001948DFF8708000FB03F043EA08086CE76A
:1040B00000A4781F00C00F40000008400046C32342
:1040C00000BA3CDC23B24C001F85EB5100366E0178
:1040D00000800D4040300080FFB19F26808D5B0046
:1040E000819F5E1600B29F267F3001807FD1F0084D
:1040F0009F10E50083DE1B438C0900208809002007
:10410000183D002000643F4D001BB70036200080A2
:104110006C20008000200080002857D001222DE96B
:10412000F04F85B083462A4C2A4D2B4EDDE902899B
:1041300054E8003F2868336844E800210029F7D19B
:10414000264FCDE902893A68D31A254A4FF47A7E80
:10415000019712680127A3FB02234FF47A72984655
:1041600000238B4208BF42452CBFC246F2460EFBDD
:1041700000AA54E8003F2A68316844E80073002B25
:10418000F7D101980068411A15484FF47A7E00680B
:104190000EFB02F2A1FB00014FF47A70CAEB02029F
:1041A00088460021994208BF40452CBF43467346CC
:1041B0001A44724507D3BBF1010B0AF57A7AD8D1BC
:1041C00005B0BDE8F08F01F007FAD2E7704700BFF5
:1041D000D84500201C3D0020143D0020041000E0C4
:1041E000183D002000010F4B1A181B5810B4D0685E
:1041F0005C68044205D059B1C3F884005DF8044BF3
:104200007047936849B9084A5DF8044B1A607047D3
:10421000C3F888005DF8044B7047044A5DF8044B0E
:104220001A6070472C0100203830010038F001007E
:104230000001054B1A5819189268CB681A4214BF2E
:1042400001200020704700BF2C010020362801D833
:10425000FFF7C8BF704700BF362801D8FFF7E8BF97
:104260000020704736281CD800011A4A012902EBA9
:104270000003105810B415D0042913D0DC6842682C
:1042800022EA040242609A68E9B102291ED0032999
:104290005B685DF8044B0CBF0F4910491160152293
:1042A0001A607047DA680129446842EA04024260F1
:1042B0009A6808D040F6380111605B6815225DF8F5
:1042C000044B1A60704738211160F6E70449116009
:1042D000F3E700BF2C010020383001003800010056
:1042E00038F0010008B5FDF761FDFDF7D1FD01F0E3
:1042F00073F9FAE7844641EA000313F003036DD132
:10430000403A41D351F8043B40F8043B51F8043B98
:1043100040F8043B51F8043B40F8043B51F8043B9F
:1043200040F8043B51F8043B40F8043B51F8043B8F
:1043300040F8043B51F8043B40F8043B51F8043B7F
:1043400040F8043B51F8043B40F8043B51F8043B6F
:1043500040F8043B51F8043B40F8043B51F8043B5F
:1043600040F8043B51F8043B40F8043B51F8043B4F
:1043700040F8043B51F8043B40F8043B51F8043B3F
:1043800040F8043B403ABDD2303211D351F8043BDF
:1043900040F8043B51F8043B40F8043B51F8043B1F
:1043A00040F8043B51F8043B40F8043B103AEDD28E
:1043B0000C3205D351F8043B40F8043B043AF9D2DF
:1043C000043208D0D2071CBF11F8013B00F8013BB2
:1043D00001D30B8803806046704700BF082A13D3BF
:1043E0008B078DD010F003038AD0C3F10403D21AD7
:1043F000DB071CBF11F8013B00F8013B80D331F80B
:10440000023B20F8023B7BE7043AD9D3013A11F88A
:10441000013B00F8013BF9D20B7803704B784370F5
:104420008B7883706046704709F008BA09F006BAC5
:1044300009F00CBAF0B44E1E0025374600E00135F5
:10444000B0FBF2F302FB130000F13704092800F17E
:104450003000E4B298BFC4B2184607F8014F002BF1
:10446000EDD14A1953704DB1013316F8014F177849
:10447000E81A3770834202F80149F5DB0846F0BCC0
:10448000704700BFF0B501EB4106294C012500EB58
:10449000461694F800C005FA01F1F4891FFA81FE6E
:1044A000B0F88851A4B24FEA0E1704FB0333ADB243
:1044B00007F0F00723FA0CF33D43A342A0F888511C
:1044C00028BF2346012A22D015D3022A08D001F0A2
:1044D0000F01B0F888319BB21943A0F88811F0BDE4
:1044E0009BB201F00F01F383B0F880319BB21F4300
:1044F000A0F88071EDE7E31A01F00F019BB2738120
:10450000B0F880319BB20B43A0F88031E1E79BB259
:1045100001F00F014FEA0E2EF382B0F880310EF455
:10452000706E9BB24EEA030EA0F880E1D1E700BFA7
:104530009009002036280CD8294AF8B5044600B264
:1045400012F8206002EB8005012E03D0022E16D057
:10455000F8BD70476A78C2F30113032B3AD02148A3
:1045600050F823008BB202F00301AA78FFF78AFF0C
:104570001D48EA7800EB041043681A60F8BD6E78B5
:10458000C6F30113032B27D0184A52F823E006F094
:104590000306174B89B20EEB461793F800C076015D
:1045A000FA880EEB0603764492B2188AC2F1011221
:1045B00012FA80F2501E00FB01F323FA0CF398422A
:1045C00098BF931ED21A9BB2C2F1010292B2FA8036
:1045D0003382CDE70748C5E7DFF81CE0D7E700BF27
:1045E0009C040020780500202C0100208405002078
:1045F0009009002000803E4000801E40A4484FF0FB
:104600000F0CA44B826F42F47F02F0B58267002545
:10461000D0F880204FF470469F4C4FF4604E2946EE
:104620004FF4806714432A46C0F88040A3F88C6199
:1046300048F2B826A3F88EC1A3F89051B3F88801C8
:1046400080B240F0F000A3F8880101EB4100914BEB
:104650000131002540011C4604290344A3F804E06D
:10466000DF805A841A865A805A81DE815A82DA8221
:104670005A83DA83E9D1B4F888014FF00F0C874BE5
:104680004FF4704680B229464FF460472A4640EA0C
:104690000C004FF4806EA4F88801B4F8880180B251
:1046A00040F47060A4F88801A3F88C6148F2B82641
:1046B000A3F88EC1A3F89051B3F8880180B240F0FE
:1046C000F000A3F8880101EB4100744B0131002593
:1046D00040011C46042903449F80A3F806E05A8445
:1046E0001A865A805A81DE815A82DA825A83DA83A4
:1046F000E9D1B4F888014FF00F0C694B4FF47046C4
:1047000080B229464FF460472A4640EA0C004FF435
:10471000806EA4F88801B4F8880180B240F470601B
:10472000A4F88801A3F88C6148F2B826A3F88EC1DA
:10473000A3F89051B3F8880180B240F0F000A3F8DC
:10474000880101EB4100564B0131002540011C4618
:10475000042903449F80A3F806E05A841A865A80ED
:104760005A81DE815A82DA825A83DA83E9D1B4F837
:1047700088014FF00F0C4B4B4FF4704780B2294625
:104780004FF460462A4640EA0C004FF4806EA4F8CD
:104790008801B4F8880180B240F47060A4F8880100
:1047A000A3F88C7148F2B827A3F88EC1A3F89051F2
:1047B000B3F8880180B240F0F000A3F8880101EB63
:1047C0004100384B013140011C46042903449E80BE
:1047D000A3F806E05A841A865A805A81DF815A82E9
:1047E000DA825A83DA83EAD1B4F888310F270022BB
:1047F00041F201069BB245F6C05E114643F2260522
:104800003B43A4F88831B4F888319BB243F4706319
:10481000A4F888315001244B01320344042A9981C1
:104820005981DF819E82A3F806E0198019829D815B
:10483000F0D100220F2741F2010645F6C05511467E
:1048400043F226045001194B01320344042A998192
:104850005981DF819E82DD80198019829C81F1D18E
:1048600000220F2741F2010645F6C055114643F2DA
:10487000260450010E4B01320344042A99815981C8
:10488000DF819E82DD80198019829C81F1D1F0BD8B
:1048900000C00F4000C03D40000003FC00003E404F
:1048A00000403E4000803E4000C01D4000001E40D1
:1048B00000401E4004207146084203D0EFF30980F7
:1048C00000F008B8EFF3088000F004B8704700BFAC
:1048D000704700BF1B4B05211B4A382030B5C2F87A
:1048E00048110821C2F8380383B05A68174C0A43AC
:1048F00017485A60C3F88410C3F8881023688342AD
:1049000002D91448FFF7A6FA0E4D08240020124AD7
:104910001249C5F884400190019B934205D8019B40
:1049200001330193019B9342F9D9C5F88840019066
:10493000019B8B42EDD8019B01330193019B8B427C
:10494000F9D9E6E700C01B4000801F408C09002019
:10495000FF45C32300A3E1113F420F003F548900EC
:10496000094A08B5136820B118440849884202D89A
:104970001060184608BD08F033FF0C224FF0FF33DB
:104980000260184608BD00BF9409002000002820DE
:1049900072B6064A0721064B1964936B43F0400335
:1049A0009363BFF34F8F30BFFDE700BF00400D4062
:1049B00000C00A40836BF0B41BB1536843F400435A
:1049C000536072B6446BDCB1144B2260D3F8B04133
:1049D0000C421FD1124D2F6804E02C68E41BB4F583
:1049E000166F0BD2D3F8404144F48044C3F84041E1
:1049F000D3F8B861D3F840416404EED5314209D10F
:104A00000023064C8260C360D4F8B0311943C4F867
:104A1000B0110263426362B6F0BC704700002E40E2
:104A2000041000E070B50646006B90B10246002409
:104A300003E012680134012A0CD0536813F080039C
:104A4000F7D032632CB1B36B05689847013C284618
:104A5000F9D170BD33637363F4E700BFF0B5E1B91A
:104A6000214C22490020224B01224FF001158026C3
:104A70000A601A46A1604E60E060C3F8BC51D3F8EA
:104A8000B0411C4D44F001048860C3F8B041286077
:104A9000D2F8B031002BFBD1F0BD0904164B144DF8
:104AA0000126114C41F0800100221E60596000F582
:104AB000805CE26400F5005EA36400F54057D5F821
:104AC000B01100F580462A46986041F48031C3F861
:104AD0000CC0C3F810E05F619E61C5F8B011D2F858
:104AE000B031002BFBD1BCE700600020205000203B
:104AF00000002E40483D0020005000202DE9F04FDE
:104B0000AC4C83B0D4F8448118F0010FC4F8448150
:104B10005ED0D4F8AC31002B55D04FF0011BDFF83C
:104B2000BC92A54E2546DA46C4F8AC31B06AF26AAA
:104B3000D4F8403143F40053C4F84031D4F8403144
:104B40009F04F5D5D5F8403123F40053C5F8403122
:104B5000C5F8B4A1D4F8B43113F00113FAD181B27D
:104B600040F28167C9F80030B94200F2B480B1F573
:104B7000D06F80F0E981B1F5817F00F06B8100F2A8
:104B8000F080802900F05981822940F0E28092B2C1
:104B900002F07F01072900F2DC8089008748884FF6
:104BA0000844016810063B707B7040F10C82CA0318
:104BB00001D501233B7002218148FFF74FFFD4F854
:104BC000AC31002BB0D17B4AD2F8BC31002B50D194
:104BD00018F0400F18D0774BD3F8AC111A46C3F831
:104BE000AC11D3F8BC11C3F8BC11D2F8B041714B71
:104BF000002CFAD14FF0FF32C3F8B421D3F884313E
:104C000000F05EFC6F4B1C6018F0807F03D06E4B91
:104C10001B6803B1984718F0007F03D06B4B1B68EB
:104C200003B1984718F0040F08D0624BD3F88431D1
:104C300013F400734CD0664B01221A705D4BD3F80D
:104C40004821120612D518F0800F0FD061490A785A
:104C500062B1013AD2B20A7042B95F490A7802F0F1
:104C6000FB020A70002A00F03282FBBE03B0BDE8EE
:104C7000F08F5A49C2F8BC310868034240F0E6811F
:104C8000504A15681D40A3D02F0C0FD04A4E4FF04C
:104C9000010997FAA7F4B4FA84F406EBC41009FAF0
:104CA00004F44030FFF7BEFEA743F2D1ADB2002DB1
:104CB0008ED0414E012795FAA5F4B4FA84F406EBA0
:104CC000C41007FA04F4FFF7ADFEA543F3D17FE764
:104CD0003F4A1370B2E742F22107B94235D000F2E1
:104CE0008980B1F5086F00F02181B1F5106F30D1E6
:104CF000C0F307403A4A3B4910703B4F3B4A01938F
:104D0000C5F8C871C5F8CC11C5F8D02100F0DAFBA0
:104D1000374A019B80210120B26451601060F36426
:104D2000C5F8BCB1D5F8B011936041F48032C5F834
:104D3000B0212A4A1360D4F8B031002BFBD1D4F84B
:104D4000AC31002B7FF4F0AE3DE7110C072900F0E9
:104D50003E81C4F8C0B1D4F8AC31002B7FF4E4AE8E
:104D600031E740F20237B94200F0B080B1F5A06FF0
:104D7000EFD11F4A80210127F364B26417605160AC
:104D8000C5F8BCB1D5F8B011936041F48033C5F8D3
:104D9000B031D4F8B031002BFBD1030C5B0643F0EB
:104DA0008073C5F85431D4F8AC31002B7FF4BCAE1D
:104DB00009E700BF00002E4000600020C0012E4027
:104DC000583D0020383D0020343D0020403D00206B
:104DD000443D00204C3D00203C3D0020483D00204B
:104DE000683D0020C80002000200CC000200C8009C
:104DF0002050002042F2212399425BD042F221331D
:104E00009942A6D1B54B802200210120B3641860DD
:104E10005A60F164C4F8BCB1D4F8B021996042F48E
:104E20008033C4F8B031D4F8B031002BFBD1D4F8C2
:104E3000AC31002B7FF478AEC5E6A94A02211046BA
:104E400013705370FFF70AFED4F8AC31002B7FF4D7
:104E50006BAEB8E692B202F07F03072B3FF679AF54
:104E600012F0800F4FEA83039E4A4FF000014FF08B
:104E700001001A44136814BF23F4803323F00103A4
:104E800013608022954BF164B36418605A60C4F8D3
:104E9000BCB1D4F8B021996042F48033C4F8B03189
:104EA000D4F8B031002BFBD1D4F8AC31002B7FF417
:104EB0003BAE88E692B2002AA4D18B4BC0F30740E8
:104EC0008A4A19688A4B116018709BE792B202F007
:104ED0007F03072B3FF63DAF12F0800F4FEA8303AD
:104EE000804A4FF000014FF001001A44136814BFCC
:104EF00043F4803343F0010313608022774BF16465
:104F0000B36418605A60C4F8BCB1D4F8B021996099
:104F100042F48033C4F8B031D4F8B031002BFBD167
:104F2000D4F8AC31002B7FF4FFAD4CE6714A01217F
:104F30006B4B127818461A70FFF790FDD4F8AC311D
:104F4000002B7FF4F1AD3EE66B4B596800293FF42E
:104F500000AF000C1FFA82FE04E00C3359680029F0
:104F60003FF4F7AE1F888742F7D15F887745F4D1C9
:104F7000070A032F00F0E9801B89120C934228BF17
:104F80001346B0F5007F00F0D180B0F5E06F00F07F
:104F90008B805A4F1A4601933846FFF7ABF9019BB5
:104FA00027F01F021F44BFF34F8F55490A6020327C
:104FB0009742FAD8BFF34F8FBFF36F8F4F48194610
:104FC000FFF74CFDFBE5CB077FF5F5ADF1E54D4F68
:104FD0004FF0010EF3604C494C4B3860C3F800E0D1
:104FE0005960B3604A49D5F8B0017A6001F580573D
:104FF00040EA0E02996001F5005E01F5405001F5AE
:105000008041C5F8B021DF60C3F810E058619961B4
:10501000D4F8B031002BFBD1304A012048F2800196
:10502000F36410604FF48030B2645160C5F8BCB1D5
:10503000D5F8B011936041EA0003C5F8B031C9F862
:105040000000D4F8B031002BFBD1B8E52D4842F276
:105050002104002605880E60A54240687FF410AE4A
:1050600081B200297FF40CAE29492A4C03C90D0CEA
:1050700086282060A180A5717FF402AE72B6264812
:10508000017841F004010170D2F84811080606D4F5
:1050900041F080018020C2F84401C2F8481162B694
:1050A0001E4A50211170EBE51D481A46134F90F827
:1050B00000E01C491C480193BEF1000F08BF0146E7
:1050C0003846FFF717F90722019B7A7068E7D3F893
:1050D000482122F08002C3F84821C6E52050002074
:1050E000583D0020C0012E401C3D00208862002059
:1050F000A83E0020683D00209005002020002020D0
:1051000070EF00E0503D00208000070000500020BC
:10511000603D0020806200203C3D00204C3D00208E
:10512000443D0020141A0060581A00600A481A46CC
:105130000A4907780A480193002F08BF0146094829
:10514000FFF7D8F8074F019B2AE7120C0B78934220
:1051500028BF134619E700BF443D0020581A0060DD
:10516000141A006020002020002AA0F102022DE97C
:10517000F04714BF00274FF00057022A01D9BDE8BD
:10518000F0874FEAC01ADFF840900D4604460AEB5C
:105190000906002140229846304608F091FE012081
:1051A00047EA05414AF80910C6F83880B060B8F1FE
:1051B000000FE4D0034BA0401C6820431860BDE8FA
:1051C000F08700BF383D002000600020002AA0F1D9
:1051D00002022DE9F04714BF00274FF00057022AC2
:1051E00001D9BDE8F0874022C501DFF84490884628
:1051F0001544002104461E4605EB090A504608F0F6
:105200005FFE012247EA084145F80910CAF83860F4
:10521000CAF80820002EE4D004F11000034B8240AD
:10522000186802431A60BDE8F08700BF383D0020CF
:105230000060002012048160C36142F08002F0B47B
:105240004260012701F5805601F5005501F54054F3
:1052500001F580420760C660056144618261F0BC6F
:10526000704700BF831E022B00D9704730B4064B35
:1052700000F1100401250A4603EBC01005FA04F101
:1052800030BCFFF797BB00BF40600020831E022B9D
:1052900000D9704710B4054B01240A4604FA00F106
:1052A00003EBC0105DF8044BFFF784BB00600020E7
:1052B000124A134BD2F8200220F07F40984210B5DA
:1052C00084B002D800EB800040000E4C01A90A22F5
:1052D000FFF7B0F801A90023204611F8012B013394
:1052E0003AB10A2B20F8022FF7D11623237004B00D
:1052F00010BD5B00DBB2237004B010BD00441F4042
:105300007F969800AC090020F8B514494FF4003797
:10531000134D034601EB4024124E134A05EB401592
:105320002146176028463288FFF784FF318824F031
:105330001F032144BFF34F8F0C4A1360203399425F
:10534000FBD8BFF34F8FBFF36F8F03202946FFF7C2
:105350009DFF074B4FF400321A60F8BD80002020FB
:10536000803D00208E3E00208CE100E05CEF00E0FC
:105370000CE100E0244A43682DE9F041C3F30E43F9
:105380001488C569E41A002C38DD2049204A0B78BE
:105390001278DBB21F48204E934207D010F80380EA
:1053A00036F81870C7F50072944212D90133002202
:1053B0001A4F082B26F8154027F81520184E94BFD1
:1053C000DAB213460A703268C55414443460BDE83A
:1053D000F081144B07EB48202246274403EB45217C
:1053E0001844FEF787FF0E4A284626F818701368FF
:1053F0001C441460BDE8F041FFF786BF2846BDE8B5
:10540000F041FFF781BF00BF8E3E0020A43E002088
:10541000803E0020843E0020903E00206C3D002015
:10542000A03E0020800020201E4B1A785AB902F0BE
:10543000FF031D4A127832B12DE9F0411B4D2A8835
:1054400012B9BDE8F0817047194EC2F50068194FD6
:1054500031784246184C07EB411704EBC12438461B
:105460002146FFF7E7FE08EB040224F01F01BFF31B
:105470004F8F124B196020318A42FBD8BFF34F8FF8
:10548000BFF36F8F04203946FFF7ECFE3378084AEC
:105490000133DBB2032B88BF0023137000232B8062
:1054A000BDE8F0817E3D0020683D0020A63E002042
:1054B0007F3D0020C03E00208010202070EF00E0E3
:1054C000704700BF314B2DE9F0411B78304F002B66
:1054D00054D04FF40073DFF8EC803B80A8F8003024
:1054E000002180222B480D462B4E08F0E9FC2B4C66
:1054F0002B4B29464FF480722A4825702C461D807C
:1055000008F0DEFC35602B4675602A46B560F56014
:105510002549264E2648DFF8B0E00D7010210570B1
:10552000022035607560B560F560CEF80050FFF779
:105530004DFEB8F800102A461E4B0320FFF714FE5C
:105540002B46398801220420FFF740FE2046013413
:10555000FFF7DAFE082CF9D1174B4A221748002131
:10556000174C0460C3F88410C3F88020D3F8482196
:1055700042F08072C3F84821BDE8F0814023DFF893
:1055800044803B80A8F80030AAE700BF443D0020DB
:105590007C3D0020C03E0020903E00207F3D00204A
:1055A000A63E0020803D0020A43E00206C3D00204F
:1055B000803E00206538000000002E40343D002071
:1055C000193900008E3E0020A03E0020014B1868D3
:1055D000704700BFA03E00202DE9F843324E3378DB
:1055E00093B1324F3A787AB90122D9073A7037D459
:1055F0009A0719D400225B073A7005D52C4B1A681C
:1056000012B1EFF305820AB1BDE8F883EFF3108021
:1056100072B61A681AB1274C217800292FD00028B9
:10562000F2D162B6BDE8F883DFF8948098F80020E4
:10563000002ADFD00024DFF88C9005E0013498F8D0
:105640000030E4B2A34213D959F824502B682846FD
:105650001B6998470028F1D06B699B689847EDE774
:10566000FFF7B4FFD0B9144B1B781BB93378BFE7F1
:105670003378BFE7337803F0FE033370B8E70126D1
:10568000556926701D6065B1A96100B962B6002533
:1056900093681046557798472570B5E700F048F8AD
:1056A000E1E7064B1D60F0E7C2090020403F002003
:1056B000503F0020543F0020A61A00604C3F0020BD
:1056C000783F0020583F002070B5EFF3108172B68C
:1056D0000C4C23688BB10C4E00255A6922607AB1BC
:1056E000956101B962B65D7718469B689847EFF3FC
:1056F000108172B62368002BEFD101B962B670BD7C
:105700003260EEE7443F0020483F0020FFF7DCBF57
:10571000044A054B1168054A196013680133136088
:10572000704700BF041000E0143D00201C3D002025
:10573000704700BF0B460146184608F04BB800BF43
:10574000002070472DE9F041514D0446514BEA6E5F
:10575000514E194642F440625048EA66C3F8E86088
:10576000C3F8E400D1F8EC304A4A002BFADA4C4D89
:105770004FF480334B490527C2F8E83043F2E9067D
:105780006A684FF4004C484B4FF4804E1140474834
:1057900003224FF0160841F4003169604BF2E9052D
:1057A000C3F87471C3F878713127416841F44041FE
:1057B0004160C0F884C04FF0020CC0F888E00120BE
:1057C000C3F87C634FF0000EC3F88463C3F88053C2
:1057D000C3F89863C3F88853C3F88C53C3F8905345
:1057E000C3F8947307F16047C3F89021C3F88C2184
:1057F00007F6D377C3F8A481C3F8A8213D46C3F8C0
:105800009421C3F8A021C3F89821C3F89C2102F188
:1058100086422749274E02F5DE12C3F8B8E102F5A9
:10582000F452C3F8B4E1C1F830C048638863C86378
:105830000864C86238683368A2FB0332920C5200D5
:105840002B681D491B1A9A42FAD8184812221B4B82
:105850004FF48045C0F8845008465A64184A0968D5
:105860003368A2FB0332920C02EB820203685B1ADC
:105870009A42FBD84FF420721821204601F07EFE98
:1058800020468122172101F079FE0020BDE8F08139
:1058900000C00F4000800D400F10010001202100CA
:1058A00000C00A40FFDF7DFF00801F400040004233
:1058B00000841F408C090020041000E000802D406F
:1058C00083DE1B43E0B103691B78012B18D1C36849
:1058D0001A68AAB1A1B113680020D3F8E43030B43B
:1058E000CB701D0E1C0C1B0A0D704C708B70136856
:1058F000D3F8E8301A0E1B0C0A714B7130BC70479C
:105900004FF0FF30704700BF70B103691B78012B67
:105910000AD1C36800201B681B68D3F80422D3F89F
:10592000843281E80C0070474FF0FF30704700BFB1
:10593000C3684FF000721B681B685A60704700BF55
:10594000F0B4C6684FF400078904154D30684FF471
:10595000803301F4F80144686760A768A06820F408
:105960000000A060307AC00500F07860054329434C
:10597000216401E0013B0BD061680902FAD54FF4C4
:10598000000300206360A760236CF0BC13807047A5
:105990004FF400034FF0FF306360A760F0BC704726
:1059A00000000260F0B4C7684FF400008904154D90
:1059B0003C684FF4803301F4F80164686060A668C5
:1059C000A06820F40000A060387AC00500F078607C
:1059D000024315432943216401E0013B09D0626879
:1059E0001202FAD54FF4000300206360A660F0BCF9
:1059F00070474FF400034FF0FF306360A660F0BCC7
:105A0000704700BF00000250002835D0F8B5036988
:105A10001B78012B2DD1C3681F6857B349B30C46BF
:105A2000054606221649204604F0ECFC08B306227F
:105A30001449204604F0E6FCD8B1237813F001069F
:105A400017D161781B06E278284643EA0143A5781E
:105A50003968134343EA0523C1F8E43063792279B6
:105A60001B0443EA0263C1F8E83001F0C7FC30468A
:105A7000F8BD4FF0FF30F8BD4FF0FF30704700BF6A
:105A8000480600204006002038B5C36800224FF0C9
:105A9000FF35044619680B6888685A645A629A6030
:105AA0005D6002F057FC2046BDE8384001F09ABC2A
:105AB000C3689A692DE9F04F074683B01E6822B18A
:105AC000904710B103B0BDE8F08F326801235362F4
:105AD000536A13F00104FBD1B06A4FF0FF314FF06D
:105AE0000C09946000F13F0800F18E03ED30516025
:105AF00028F03F0823F03F0320F03F002546C6F87A
:105B00000C80A246C6F81C803361B361A8F80090EF
:105B1000A8F8024007F0B8F8B36AD6F80CB0C8F895
:105B2000040003F22A709BF808306FF07F088BF8AE
:105B3000089020F03F009BF8093040F23D698BF857
:105B400009409BF80A308BF80A409BF80B308BF821
:105B50000B4007F099F80223CBF80C003375B06ABC
:105B6000336909FB050003EBC50413F8352000F683
:105B7000675003F835800135637820F03F0084F8E2
:105B800001A0A37884F802A0E37884F803A007F0CA
:105B90007BF8042D6060E2D1F1682B4675750A89A7
:105BA000D6F810E042F02002B0680A81BEF8184032
:105BB0002D4A44F020042D49AEF81840009702F019
:105BC00089FB00287FF47EAF346940F2FE5EF16805
:105BD000182233684FF047084FF4807CC3F8200147
:105BE000C3F82401C3F81801C3F81C01C3F888E105
:105BF0004FF06E0EC3F880410F24C3F884111C4986
:105C0000C3F884104FF00071C3F8C450C3F8C0212A
:105C10000222C3F8C481C3F844C1C3F890013846D6
:105C20003C627468C4F844E099605A6201F0DAFC9E
:105C300000287FF447AF33684FF000424FF0807187
:105C4000C3F8E400C3F8E8005A66C3F80402C3F8D6
:105C500084025A6E22F000425A6630627062196104
:105C600003B0BDE8F08F00BF05440000213E0000F6
:105C70000401FE05F8B50D46002933D04B690D2B04
:105C800030D9C3681E68F3691C8804F08004A4B28C
:105C9000002CF9D1586806F0F7FF21460346074665
:105CA0004FF0FF32284602F045FCAB6999061ED53D
:105CB000686980B2F46906F0E3FFF36960801A88CE
:105CC00042F080021A80BFF35F8F1A889206326812
:105CD0004CBFF3680833F3615369002BFCD14FF0DC
:105CE000807353612846BDE8F84002F07FBDBB8950
:105CF0006869082B19D02728DBD94DF686529342C4
:105D0000D7D1397D28230029D3D003F10E020629EB
:105D10003A441ED0112915D00129CAD10433984222
:105D2000C7D300239370D370C3E71328C1D9BB8AAC
:105D300023F04003002BBCD1BB7BF97D9B0003F01B
:105D40003C03E0E708339842B3D300239371D37147
:105D5000AFE714339842ACD3002313745374A8E70D
:105D6000C2684FF0FF33F0B4CE181768053116F84B
:105D7000014F082006E01E4B01384FEA540483EA25
:105D800005030AD084EA03025D08D207F3D4013880
:105D90004FEA53034FEA5404F4D18E42E7D19B0EED
:105DA000012203F01F011F2B3B6802FA01F208D801
:105DB000D3F824110A420FD03B6A1A433A62F0BC6E
:105DC0007047D3F820110A420DD1D3F820110A43AD
:105DD000F0BCC3F820217047D3F824110A43F0BC6B
:105DE000C3F8242170477B6A1A437A62F0BC70477B
:105DF0002083B8EDC2684FF0FF33F0B4CE181768B7
:105E0000053116F8014F082006E0184B01384FEA1B
:105E1000540483EA05030AD084EA03025D08D2072A
:105E2000F3D401384FEA53034FEA5404F4D18E42BD
:105E3000E7D19B0E0122386803F01F011F2B02FAE5
:105E400001F209D9796AD0F8203161EA02021340DF
:105E5000F0BCC0F820317047396AD0F8243161EACB
:105E600002021340F0BCC0F8243170472083B8ED23
:105E7000F8B5054602F09CFAEB681C68A3691A881D
:105E800010062ED44FF080761A8811072DD4A369FE
:105E900021681A88083302F0200223F8082C33F80E
:105EA000082C42F0800223F8082C33F8082C9206C4
:105EB00048BF2369A3610E611A881707E9D51A88BC
:105EC00002F020021A801A8842F080021A801A8892
:105ED00090064CBF23690833A3610E611A8812062D
:105EE000D2D5BDE8F84002F06BBA1A8812F47C5F94
:105EF00002D0A3692168E2E7586806F0C5FEA369ED
:105F00000746588806F0BCFE39460246284601F08E
:105F1000D5F9EEE7FFF7ACBF70B590E84400531C2D
:105F20009E4203D89AE0B24200F0D880147813461B
:105F30000132002CF7D0FF2C00F0D0805A780232CA
:105F40001A44B24200F2CA8002601C785D78013CBB
:105F50003A2CE4D80FF2040E5EF824F0BF4500009E
:105F60000F440000B14500000F4400000F44000042
:105F7000A34500000F4400000F4400000F44000040
:105F80000F4400000F4400000F4400000F440000C5
:105F90000F4400000F4400000F4400000F440000B5
:105FA0000F4400000F4400000F4400000F440000A5
:105FB0000F4400000F4400000F4400000F44000095
:105FC0000F4400000F4400000F4400000F44000085
:105FD0000F4400000F4400000F4400000F44000075
:105FE0000F4400000F4400000F4400000F44000065
:105FF0000F4400000F4400000F4400000F44000055
:106000000F4400000F4400000F4400000F44000044
:106010000F4400000F4400000F4400000F44000034
:106020000F440000954500007D4500006B450000D1
:106030005D4500000F4400000F4400000F440000C5
:106040004F45000039450000042D7FF468AFD3F8B8
:1060500002308B61531C9E423FF668AF70BD042D29
:106060007FF45DAFD3F802304B6158E7042D7FF425
:1060700056AFD3F80230CB6051E7012D7FF44FAF1C
:106080009B7881F8203090E8440048E7012D7FF4A8
:1060900046AF9B78032B3FF642AF81F8213090E862
:1060A00044003CE7042D7FF43AAFD3F80230CB61D3
:1060B00035E7032D7FF633AFD3F802300B612EE7BF
:1060C000032D7FF62CAFD3F802308B6027E7042D29
:1060D0007FF425AFD3F802304B6020E770BD00BFDE
:1060E0002DE9F0410C2586B000F13406044606ABDC
:1060F0000DEB050200680F4643F8105D3146019331
:10610000002300924FF40A7203F01EFD054606F0CC
:10611000B3FAA3696269C01A904250D2EF2D03DD31
:1061200094F83430022B04D00025284606B0BDE890
:10613000F081D4F83880A06A06F0A6FD8045F3D13E
:1061400094F83620062AEFD104F1200104F1500022
:1061500004F058F90028E7D104221A4904F5907098
:1061600004F050F90028DFD12421384604F042F928
:106170006B1E616C04F592721E4404F12C083960A8
:10618000394626634046E262FFF7C6FE97F82130A3
:10619000002BCAD09A07394640464CBF04F1600331
:1061A00004F1A003E36297F82130DB074CBF04F24F
:1061B0001F1304F19F032363FFF7AEFEB5E74FF013
:1061C000FF35B2E7E40600202DE9F04F00F1340777
:1061D000044689B04FF40A7100F12008384604F0F3
:1061E00009F906250123A06A84F8365084F8343072
:1061F00084F8353006F048FD80232A46A063E38703
:10620000414604F1500004F5927504F069F804F574
:1062100090700422704904F063F82379092B00F28E
:106220008A80DFE803F08B88969EB888C3CE880505
:1062300004F5187204F5177628460423711B0092A2
:10624000322206F063FD0546002874D003234FF088
:10625000FF398DF809300DF10900711B012335223A
:106260000090284606F052FD0546002863D09DF8B0
:10627000093003F0FD03012B1CD106F0FDF9D4F821
:106280006432A0615BB104F51970711B04233322E1
:106290000090284606F03AFD054600284BD04F48AE
:1062A000711B062337220090284606F02FFD054675
:1062B000002840D04FF40A7006F0E2FC0DF1200EE9
:1062C000711B02232EF8160D39222846CDF800E066
:1062D00006F01CFD054670B30DF1200B4FF0010ACE
:1062E000414606220DF10D000BF814AD03F0F8FF46
:1062F000711B2846CDF800B007233D2206F006FDAD
:106300000546C0B1FF2305AE0C210370304604F0F2
:1063100071F80C23EA1B20684FF486440193009621
:10632000524439460023ADF814A0CDF81C90ADF8C6
:10633000164003F097FB09B0BDE8F08FD4F86C224B
:106340000723D4F8789204F5177622648DF8093083
:1063500081E7012304F517764FF0FF398DF80930F6
:1063600079E704F5247204F5177628460423009291
:10637000711B322206F0CAFC0028DCD004F5277518
:10638000311A04233622009506F0C0FC0546002889
:106390007FF45CAFCFE7D4F86C220423D4F8789272
:1063A00004F5177622648DF8093054E7D4F86C228E
:1063B0000323D4F8789204F5177622648DF8093017
:1063C00049E70322D4F86C3204F517764FF0FF3911
:1063D0008DF8092023643EE7E4060020680B0020C6
:1063E00010B504460171092906D8DFE801F0132829
:1063F000383D4A576778280610BDFFF7E5FE0120B3
:10640000A1694FF4FA524FF47A6320732161A260BC
:10641000636110BDD0F86C32002B66D1D4F8B402A1
:1064200002F0E0FC022863D000232068637103F0CF
:10643000EBFAD4F8B802BDE8104000F061BCD0F827
:10644000B40202F0CFFC012805D00022D4F8B40237
:10645000114602F079FCA36A0133A36210BDFFF775
:10646000B3FEE369636110BDFFF7AEFE0120A169D1
:106470004FF47A624FF47A53207321616261A36012
:1064800010BDD0F86C12D0F8B40200F0E7FE06F0B0
:10649000F3F84FF47A73A061A36010BD83690622FC
:1064A000D0F880022361431C227316D006F0ECFB67
:1064B0004FF47A7303FB00F0A06010BDFFF784FE79
:1064C0000723D4F88402237306F0DEFB4FF47A73BB
:1064D0004EF6602203FB00F06261A06010BDFFF782
:1064E00073FE0123D4F88802EDE7FFF76DFE95E710
:1064F0000022D4F8B402114602F026FC94E700BF53
:1065000010B50446D0F87022D0F86C12D0F8B4025E
:1065100002F01AFCD4F87412D4F8B40202F024FC8D
:10652000D4F87C12D4F8B40202F02AFCD4F8B402F5
:10653000022102F063FC20460521FFF751FFD4F849
:10654000BC323BB1D4F8C8222046D4F8B412BDE81E
:106550001040184710BD00BF10B5044600F0EAFB1C
:1065600000212046FFF73CFFBDE8104000F0E8BBEB
:106570000279531EF0B504468DB0082B3ED8DFE8F3
:1065800003F04E56056F8805053F0500063A012ABF
:1065900040F2B28006F070F82369A268C01A9042F7
:1065A00080F09E80204603A9FFF79AFD421C00F070
:1065B000AA80002822DD9DF82C30052B40F0958024
:1065C000039BDBB1069BCBB10A9DBDB1A3692361DF
:1065D0006B1C40F09C800895099503AD04F51B7673
:1065E00094F868720FCD0FC60FCD2D680FC63560B9
:1065F000002F5AD020460421FFF7F2FE0DB0F0BD67
:106600000921FFF7EDFED4F8C032002BF6D0D4F804
:10661000C4222046D4F8B41298470DB0F0BD022130
:10662000FFF7DEFED4F8C032002BF0D1E6E703A975
:10663000FFF756FD411C5AD00028DFDD9DF82C30B5
:10664000022BDBD103AD04F524760FCD0FC60FCDA1
:106650002D680FC6204635600321FFF7C1FECDE748
:1066600006F00AF8A369A268C01A90421DD200225F
:10667000D4F86C12D4F8B40200F08AFC0128054664
:10668000BCD12046FFF7A0FD29462046FFF7A8FE13
:10669000B4E7D0F8B40202F0A5FB50B96379012B3E
:1066A000ACD12046FFF758FFA8E72046FFF728FFA8
:1066B000A4E70C230CAA20680DEB030142F8283D47
:1066C00000238DE806004FF40A7204F1340103F050
:1066D0003BFA05F0D1FF2369A268C01A90428DD918
:1066E000217B2046FFF77CFE88E7062B86D12046DB
:1066F0000121FFF775FE81E7D0F8B40202F072FBCA
:106700000028CBD046E72046FFF75EFD76E7284617
:1067100006F0BAFAB3281FD84FF034430A93089B07
:10672000C3B1099B0A9813B185423FF456AF06F0F6
:10673000ABFA400806F0A8FA08900A9806F0A4FA06
:1067400005460A9806F0A0FAA5EBD00006F09CFAE0
:10675000099042E70A98EAE70A9806F095FA034B8F
:106760009842DCD9024B0A93D9E700BF9BC42000B2
:106770000020C49B2DE9F043054685B000F0DAFA0D
:10678000002D5AD02E68002E57D0304602F072FCF1
:106790008146002851D02C4C6779002F4DD10C2117
:1067A0004FF0010801A803F025FE4FF488433A4654
:1067B000404602210397CDF80890ADF80480ADF86B
:1067C000063003F0EBFA2060002836D001A90C2235
:1067D00003F048FB70BB062204F12001304602F0B2
:1067E00033FB38BB2146194800F06AFAC4F8B802F6
:1067F00000B34FF47A63C4F8B462E3616B68C4F821
:106800006032A86806F040FAD4F860222B7B002A98
:10681000C4F86402204684F868320CBF01210821C4
:10682000FFF7DEFD84F8058000F08AFA204605B007
:10683000BDE8F083206803F0E7F800F081FA00205B
:1068400005B0BDE8F08300BF7C3F0020614A000036
:1068500010B14379012B00D07047FFF77DBE00BF18
:1068600038B590B1054600F065FA094B5A79012A0E
:1068700004D0002400F064FA204638BDD3F8B402F6
:1068800085420CBF1C460024F4E70446F4E700BF31
:106890007C3F002018B119B94FF47A63C361704787
:1068A000C1617047037A022B2DE9F04704462FD0CF
:1068B000032B14D0012B01D0BDE8F0870023D0F8C2
