:100000000C943C000C9446000C9446000C94460062
:100010000C9446000C9446000C9446000C94460048
:100020000C9446000C9446000C9446000C94460038
:100030000C9446000C9446000C9446000C94460028
:100040000C9446000C9446000C9446000C94460018
:100050000C9446000C9446000C9446000C94460008
:100060000C9446000C9446000C9446000C944600F8
:100070000C9446000C94460011241FBECFEFCDBF58
:10008000DFE3DEBF0E9448000C9473000C94000074
:1000900060E070E081E690E00E946D0080912004B5
:1000A00083608093200480E0813039F480912404BF
:1000B00083608093240480E006C0809124048C7FB8
:1000C0008093240481E02FE73AE196E0215030400C
:1000D0009040E1F700C00000E7CFDC0128ED20935D
:0A00E00034006C930895F894FFCFEC
:00000001FF
