:100000000C943C000C9459000C9459000C94590029
:100010000C9459000C9459000C9459000C945900FC
:100020000C9406020C9459000C9459000C9459003D
:100030000C9459000C9421020C9459000C94590012
:100040000C94E7010C9459000C9459000C9459003D
:100050000C9459000C9459000C9459000C945900BC
:100060000C9459000C9459000C9459000C945900AC
:100070000C9459000C94590011241FBECFEFCDBF32
:10008000DFE3DEBF18E3A0E0B8E3ECE4F6E002C093
:1000900005900D92A030B107D9F728E3A0E0B8E3AE
:1000A00001C01D92A331B207E1F70E9464020C94D3
:1000B00024030C9400008091003808952091480496
:1000C0008091023890910E3823FF0CC041E050E03F
:1000D000082E01C0440F0A94EAF740954923409343
:1000E0000E380AC021E030E0082E01C0220F0A9429
:1000F000EAF7292B20930E3890910E38911104C005
:10010000909101389E7F05C09F3F29F4909101385E
:100110009160909301382091080490910F3824FF4A
:100120000CC041E050E0082E01C0440F0A94EAF7E9
:100130004095492340930F380AC021E030E0082E53
:1001400001C0220F0A94EAF7292B20930F389091CF
:100150000F38911104C0909101389D7F05C09F3FD9
:1001600029F49091013892609093013820914804CD
:100170009091103820FF0CC041E050E0082E01C0E3
:10018000440F0A94EAF740954923409310380AC077
:1001900021E030E0082E01C0220F0A94EAF7292B53
:1001A0002093103890911038911104C0909101382B
:1001B0009B7F05C09F3F29F49091013894609093F4
:1001C0000138209128049091113824FF0CC041E09F
:1001D00050E0082E01C0440F0A94EAF740954923E5
:1001E000409311380AC021E030E0082E01C0220FF0
:1001F0000A94EAF7292B2093113890911138911124
:1002000004C090910138977F05C09F3F29F49091D9
:1002100001389860909301388F5F8770809302381F
:10022000F894809101388093003878940895EEE036
:10023000F8E31082118212821382E0E4F4E08081FC
:10024000877F808383898860838BA0E0B4E08C9172
:100250008F7E8C9354968C915497886054968C938F
:1002600080818E7F808380898860808BE0E2F4E0EB
:1002700080818F7E808384898860848B87E893E186
:100280000197F1F700C000000895209106383091E1
:100290000738F9013396E730F10568F0C90164E0E9
:1002A00070E00E94F60280930438909305388093A2
:1002B000063890930738C90137FDCF01959587958A
:1002C0009595879508958091480481FF02C093E039
:1002D00001C090E08091280483FF02C081E098274C
:1002E00080910338891B80FF09C090930338909157
:1002F000123891508270890F8093123820911238F1
:100300002223C1F08091063890910738820F911D09
:1003100027FD9A95809306389093073810921238EB
:10032000F894809106389091073880930438909320
:10033000053878940895809140048D7F809340041F
:100340008091510488608093510480912004877FBC
:1003500080932004809133048860809333048091DB
:10036000480481FF02C083E001C080E0909128042E
:1003700093FF02C091E089278093033810921238CE
:1003800008952091C30825FF07C020E42093C208E8
:100390009093C4088093C4080895E0E0FAE081E0F7
:1003A00090E086A397A382858160828780818D609B
:1003B00080830895E0E8FAE080E197E284879587FA
:1003C00085818160858380818360808308951F9209
:1003D0000F920FB60F9211248F938091C30886FF5E
:1003E0000FC0809125048460809325048091C30808
:1003F00080648093C30880912604846080932604DF
:100400008F910F900FBE0F901F9018951F920F9213
:100410000FB60F9211248F939F93EF93FF93E0E019
:10042000FAE083858160838781E090E086A397A3CB
:10043000FF91EF919F918F910F900FBE0F901F90A2
:1004400018951F920F920FB60F9211242F933F937E
:100450004F935F936F937F938F939F93AF93BF93CC
:10046000EF93FF93E0E8FAE08681816086838091D4
:100470000A3890910B38019680930A3890930B3884
:100480000E946301FF91EF91BF91AF919F918F9176
:100490007F916F915F914F913F912F910F900FBE80
:1004A0000F901F90189590910838890F8093083805
:1004B0008F7021E030E0A90102C0440F551F8A95DA
:1004C000E2F7CA010C94C10160E081E690E00E946D
:1004D0001E03809120048360809320040E94CD013C
:1004E0000E94DA01809100048A6080930004809168
:1004F000200484608093200480E28093C00884E814
:100500008093C1088091C00881608093C0080E94D8
:1005100017010E949B01789480E090E00E94C10145
:1005200083E0F82EC1E0D0E080910C388F5F80939B
:100530000C3880910C386F2D0E94EA0290930C3891
:1005400080910C38813039F018F0823081F135C05B
:100550000E945E0032C00E945B0080930938909137
:100560000D38891751F100E010E02091093830E092
:10057000CE01002E02C0880F991F0A94E2F72823AB
:10058000392340910D3850E0842395238217930737
:1005900024F481E090E00E9453020F5F1F4F04306B
:1005A000110519F78091093880930D3806C00E9413
:1005B0004501009711F00E94530280910A389091F2
:1005C0000B388536910508F4AFCF10920A38109297
:1005D0000B38AACF991B79E004C0991F961708F031
:1005E000961B881F7A95C9F78095089597FB072E6B
:1005F00016F4009407D077FD09D00E940A0307FC87
:1006000005D03EF4909581959F4F08957095619522
:100610007F4F0895AA1BBB1B51E107C0AA1FBB1F38
:10062000A617B70710F0A61BB70B881F991F5A957E
:10063000A9F780959095BC01CD010895DC0128EDC6
:0C064000209334006C930895F894FFCFD1
:00000001FF
