:100000000C943C000C9459000C9459000C94590029
:100010000C9459000C9459000C9459000C945900FC
:100020000C94DC060C9459000C9459000C94590063
:100030000C9459000C94F8060C9428080C94590060
:100040000C94BD060C9459000C9459000C94590062
:100050000C9459000C9459000C9459000C9480068F
:100060000C9459000C9459000C9459000C945900AC
:100070000C9459000C94590011241FBECFEFCDBF32
:10008000DFE3DEBF18E3A0E0B8E3EAE7F7E102C090
:1000900005900D92AC31B107D9F728E3ACE1B8E394
:1000A00001C01D92A03BB207E1F70E945A070C94D1
:1000B000BB0B0C94000080931C38882321F088E04F
:1000C00080930C06089586E080930C060895E0E086
:1000D000F6E08285816082870895E82FF0E0EE0FD8
:1000E000FF1FE35EF74C80819181089520911C38B9
:1000F000E0911C38F0E0EE0FFF1FE35EF74C21119A
:1001000005C08083918380911C38089520813181BE
:10011000280F391F20833183E0911C38F0E0EE0F67
:10012000FF1FE35EF74C40815181E0911C38F0E005
:10013000EE0FFF1FE35EF74C2081318160E070E03D
:10014000405F5F4F6F4F7F4FA5E07695679557955E
:100150004795AA95D1F7241B350B20833183E09175
:100160001C38F0E0EE0FFF1FE35EF74C2081318179
:10017000220F331F220F331F2260B9016350710910
:10018000E0911C38F0E0EE0FFF1FE35EF74C40817A
:1001900051814F3F5F4348F48617970750F02D5F1A
:1001A0003F4F2817390728F0AECF8617970708F07A
:1001B000AACFE0911C38F0E09695879596958795A3
:1001C000EE0FFF1FE35EF74C9CCFE0E0F6E080818E
:1001D00081628083818181838281806A828380853C
:1001E0008360808782858061828784818260848346
:1001F00008958091213808958091480483FF86C036
:100200008091233821E030E0082E01C0220F0A94AB
:10021000EAF7322F209590913538292320933538ED
:1002200021116BC0909122389E7F9093223890913B
:1002300008042091363894FF5CC0932F90952923B1
:100240002093363821114CC0909122389D7F909395
:100250002238909148042091373890FF3DC0932F69
:10026000909529232093373821112EC09091223860
:100270009B7F909322389091280494FF17C0932F6E
:100280009095209138389223909338389923B1F083
:100290009F3F09F44BC08F5F877080932338F89499
:1002A00080912238809321387894089520913838AD
:1002B000932F922B909338389111EACF9091223856
:1002C000977F90932238E7CF2F3FA9F6909122385D
:1002D000946090932238CFCF232B20933738C4CF0C
:1002E0002F3F09F0B6CF9091223892609093223838
:1002F000B0CF232B20933638A5CF2F3F09F097CFCF
:100300009091223891609093223891CF8091233838
:1003100021E030E0082E01C0220F0A94EAF7322FC4
:1003200090913538292B209335387ACF9091223807
:10033000986090932238AFCF1092353810923638AB
:10034000109237381092383880914004877F80931C
:10035000400480915304886080935304809100048A
:100360008F7E80930004809114048860809314042D
:10037000809140048E7F8093400480915004886077
:1003800080935004809120048F7E8093200480917C
:10039000340488608093340424E130E088EE93E0F4
:1003A00000000197E9F721503109C1F708958091C4
:1003B000021081FDFCCF84E09FEF0E943E0B64376A
:1003C000754683479447F1F08091021081FDFCCF80
:1003D00061E080E09FEF0E94450B8091021081FD5B
:1003E000FCCF61E081E09FEF0E94450B80910210FD
:1003F00081FDFCCF44E755E663E774E784E09FEFB7
:100400000C94500B08959091021091FDFCCF682F31
:1004100080E09FEF0C94450B8091021081FDFCCF92
:1004200080E09FEF0C94360B9091021091FDFCCF71
:10043000682F81E09FEF0C94450B8091021081FDA5
:10044000FCCF81E09FEF0C94360BFC012181FB0176
:10045000918161E070E0921710F060E070E041E09F
:1004600050E0291710F040E050E0CB01841B950BC1
:1004700008952091C30825FF07C020E42093C208F7
:100480009093C4088093C4080895809124388F5FA6
:100490008093243890E00197FC01EE0FFF1F8E0F30
:1004A0009F1FFC01EF5AF74C608171818281089592
:1004B00090E0FC01EE0FFF1FE80FF91FEE0FFF1F8A
:1004C000E558F74CA081B1816C93A281B3814C9324
:1004D0000480F581E02D208381E080932538089504
:1004E000CF93DF9380912538882309F4DAC21092E4
:1004F0002538809139388093933880913A388093A9
:10050000943880913B388093953880913C38809323
:10051000963880913D388093973880913E3880930B
:10052000983880913F3880939938809140388093F3
:100530009A388091413880939B38809142388093DB
:100540009C388091433880939D38809144388093C3
:100550009E388091453880939F38809146388093AB
:10056000A038809147388093A13880914838809393
:10057000A238809149388093A33880914A3880937B
:10058000A43880914B388093A53880914C38809363
:10059000A63880914D388093A73880914E3880934B
:1005A000A83880914F388093A93880915038809333
:1005B000AA3825E232E042E050E06CE070E083E9E6
:1005C00098E30E9492091092533887EE97EE809339
:1005D000513890935238209194382F3308F0CBC281
:1005E00021116BC280E090E041E050E00090933830
:1005F00002C0440F551F0A94E2F740955095477E7C
:10060000577EFC01EE0FFF1F8E0F9F1FFC01EF5A5C
:10061000F74C40835183309196383F3308F031C214
:10062000822F90E0FC01EE0FFF1FDF01A80FB91F22
:10063000AF5AB74C12966C916317D8F42F5F822F84
:1006400090E0FC01EE0FFF1FEF01C80FD91FCF5A3A
:10065000D74C3A83AC0141505109DA01AA0FBB1FB4
:100660004A0F5B1FDA01AF5AB74C4D915C9148833A
:10067000598361E070E00090953802C0660F771FE3
:100680000A94E2F76095709546235723E80FF91F07
:10069000EF5AF74C40835183309198383F3308F03C
:1006A000F0C1DC01AA0FBB1F62816317D8F42F5F72
:1006B000822F90E0DC01AA0FBB1FED01C80FD91FEC
:1006C000CF5AD74C3A83AC0141505109FA01EE0F91
:1006D000FF1F4E0F5F1FFA01EF5AF74C4081518107
:1006E0004883598361E070E00090973802C0660F3C
:1006F000771F0A94E2F76095709546235723FD0112
:10070000E80FF91FEF5AF74C4083518330919A3824
:100710003F3308F0B6C1DC01AA0FBB1F628163172B
:10072000D8F42F5F822F90E0DC01AA0FBB1FED01F0
:10073000C80FD91FCF5AD74C3A83AC014150510949
:10074000FA01EE0FFF1F4E0F5F1FFA01EF5AF74C31
:10075000408151814883598361E070E0009099386D
:1007600002C0660F771F0A94E2F7609570954623E2
:100770005723FD01E80FF91FEF5AF74C40835183CF
:1007800030919C383F3308F07CC1DC01AA0FBB1FBD
:1007900062816317D8F42F5F822F90E0DC01AA0FEB
:1007A000BB1FED01C80FD91FCF5AD74C3A83AC01FC
:1007B00041505109FA01EE0FFF1F4E0F5F1FFA0162
:1007C000EF5AF74C408151814883598361E070E0D2
:1007D00000909B3802C0660F771F0A94E2F760957D
:1007E000709546235723FD01E80FF91FEF5AF74C88
:1007F0004083518330919E383F3308F042C1DC0181
:10080000AA0FBB1F62816317D8F42F5F822F90E07D
:10081000DC01AA0FBB1FED01C80FD91FCF5AD74C5F
:100820003A83AC0141505109FA01EE0FFF1F4E0F00
:100830005F1FFA01EF5AF74C408151814883598379
:1008400061E070E000909D3802C0660F771F0A9447
:10085000E2F76095709546235723FD01E80FF91FD5
:10086000EF5AF74C408351833091A0383F3308F062
:1008700008C1DC01AA0FBB1F62816317D8F42F5F88
:10088000822F90E0DC01AA0FBB1FED01C80FD91F1A
:10089000CF5AD74C3A83AC0141505109FA01EE0FBF
:1008A000FF1F4E0F5F1FFA01EF5AF74C4081518135
:1008B0004883598361E070E000909F3802C0660F62
:1008C000771F0A94E2F76095709546235723FD0140
:1008D000E80FF91FEF5AF74C408351833091A2384B
:1008E0003F3308F0CEC0DC01AA0FBB1F6281631743
:1008F000D8F42F5F822F90E0DC01AA0FBB1FED011F
:10090000C80FD91FCF5AD74C3A83AC014150510977
:10091000FA01EE0FFF1F4E0F5F1FFA01EF5AF74C5F
:10092000408151814883598361E070E00090A13893
:1009300002C0660F771F0A94E2F760957095462310
:100940005723FD01E80FF91FEF5AF74C40835183FD
:100950003091A4383F3308F094C0DC01AA0FBB1FCC
:1009600062816317D8F42F5F822F90E0DC01AA0F19
:10097000BB1FED01C80FD91FCF5AD74C3A83AC012A
:1009800041505109FA01EE0FFF1F4E0F5F1FFA0190
:10099000EF5AF74C408151814883598361E070E000
:1009A0000090A33802C0660F771F0A94E2F76095A3
:1009B000709546235723FD01E80FF91FEF5AF74CB6
:1009C000408351833091A6383F3308F05AC0DC0190
:1009D000AA0FBB1F6281631708F479C061E070E061
:1009E0000090A53802C0660F771F0A94E2F7609561
:1009F000709546235723FD01E80FF91FEF5AF74C76
:100A0000408351833091A8383F33D8F5DC01AA0FD9
:100A1000BB1F6281631708F476C061E070E000904C
:100A2000A73802C0660F771F0A94E2F760957095A9
:100A300046235723A80FB91FAF5AB74C4D935C9369
:100A400011973091AA383F33E0F4FC01EE0FFF1FFD
:100A500012966C91631708F472C08E0F9F1FFC01F1
:100A6000EF5AF74C81E090E00090A93802C0880F5F
:100A7000991F0A94E2F78095909548235923408363
:100A8000518381E0820F90E0FC01EE0FFF1F8E0F7B
:100A90009F1FFC01EF5AF74C8FE382832E5F209358
:100AA000003881E080932438609151387091523839
:100AB00080915338DF91CF910895209356388093D9
:100AC00054389093553881E090E021E08DCD2F5F30
:100AD000822F90E0DC01AA0FBB1FED01C80FD91FC8
:100AE000CF5AD74C3A83AC0141505109FA01EE0F6D
:100AF000FF1F4E0F5F1FFA01EF5AF74C40815181E3
:100B0000488359836BCF2F5F822F90E0DC01AA0FBF
:100B1000BB1FED01C80FD91FCF5AD74C3A83AC0188
:100B200041505109FA01EE0FFF1F4E0F5F1FFA01EE
:100B3000EF5AF74C40815181488359836ECF2F5F24
:100B4000822F90E0FC01EE0FFF1FEF01C80FD91FAD
:100B5000CF5AD74C3A83AC0141505109DA01AA0F60
:100B6000BB1F4A0F5B1FDA01AF5AB74C4D915C9126
:100B70004883598372CF20E084CFE0E0F4E08081A5
:100B80008A608083E0E2F4E0808184608083E0EC2E
:100B9000F8E080E2808384E88183808181608083C3
:100BA000A9E3B8E381E08C93EBE7F8E32AE338E3C9
:100BB0002083318392E012969C9312972CE338E3C2
:100BC0002283338314961C9214972EE338E32483F4
:100BD000358396E016969C93169720E438E3268397
:100BE000378397E018969C93189722E438E3208780
:100BF000318795E01A969C931A9724E438E322876C
:100C0000338799E01C969C931C9726E438E324874D
:100C100035879AE01E969C931E9728E438E3268732
:100C2000378798E050969C9350972AE438E3208BBE
:100C3000318B9EE052969C9352972CE438E3228BA2
:100C4000338B9FE054969C9354972EE438E3248B87
:100C5000358B9DE056969C9320E538E3268B378BA9
:100C6000A1E5B8E31D921C92119712961C92A081E7
:100C7000B1811C92A281B3811C92A481B5811C9286
:100C800080932538A681B7811C92A085B1851C92DE
:100C9000A285B3851C9280932538A485B5851C92C6
:100CA000A685B7851C92A089B1891C9280932538AE
:100CB000A289B3891C92A489B5891C920688F789F8
:100CC000E02D1082809325380C947002E0E0FAE069
:100CD00087E190E086A397A38285816082878081E7
:100CE0008B6080830895E0E8FAE084EC99E08487E3
:100CF0009587858181608583808183608083089565
:100D00001F920F920FB60F9211242F933F934F9380
:100D10005F936F937F938F939F93AF93BF93EF9363
:100D2000FF9381E08093013880910506886080936D
:100D3000050680911406909115060E947600809316
:100D400026389091263881E0911180E080932638F2
:100D5000809126380E945B00FF91EF91BF91AF9187
:100D60009F918F917F916F915F914F913F912F91C3
:100D70000F900FBE0F901F9018951F920F920FB6F5
:100D80000F9211248F938091C30886FF0FC080912A
:100D900025048460809325048091C3088064809337
:100DA000C308809126048460809326048F910F905D
:100DB0000FBE0F901F9018951F920F920FB60F92B3
:100DC00011248F9380910B0A816080930B0A80918C
:100DD00029388F5F80932938809129388F3311F417
:100DE000109229388F910F900FBE0F901F90189579
:100DF0001F920F920FB60F9211248F939F938091A1
:100E0000860A81608093860A9091273880910A38FB
:100E1000981739F09F918F910F900FBE0F901F90F0
:100E20001895809127388F5F8093273880912738D5
:100E3000843081F7109227389F918F910F900FBEC9
:100E40000F901F901895CF93C82F8130F9F0C8F0FC
:100E5000833079F0853021F40E94F90780930938B6
:100E6000E0910238F0910338EC0FF11D8081CF91B1
:100E7000089581E00E946D008093073890930838B0
:100E8000EFCF0E94F90080930438EACF80E00E94FF
:100E90006D008093053890930638E2CFCF93C82F2A
:100EA0000E9414028C2FCF910C94D7070C945802F7
:100EB0000C94030260E081E690E00E94700B0E94B7
:100EC000D7010E9466060E9473060E940C020E94CF
:100ED00021080E94BD050E949C010E941D020E94E3
:100EE00000080E94E5007894809126380E945B00FB
:100EF0008091263890E00E9467008091283810C0C9
:100F0000809129389091AD38891700F58091293862
:100F1000809328382091273890910A38291325C0CA
:100F2000909129389817B1F390912938981740F784
:100F30000E9470026093AB387093AC388093AD38E8
:100F4000809129389091AD38891700F38091AB38A2
:100F50009091AC380E9439020E9445026093AB38F0
:100F60007093AC388093AD38D1CF809127388F5FA4
:100F700080930A3880912738813079F058F0823098
:100F800021F48091013881110BC080912738809322
:100F90000A38B3CF0E94FC00F8CF0E94DA07F5CFE1
:100FA000F8940E946700109201387894EECF8093F5
:100FB0000B380895E0912A388091480490912804D4
:100FC00093FB992790F98270892B80932A38E81730
:100FD00009F000009091AE3824E0E202F001112403
:100FE000E45FF74CE80FF11D8081890F8093AE38E4
:100FF0000895F8948091AE381092AE3878940895A0
:1010000080930B38A0E4B4E08C918D7F8C93519643
:101010008C915197886051968C935197E0E2F4E05F
:101020008081877F808383898860838B18968C91E9
:10103000908593FB992790F98270892B80932A38A9
:101040000895880FE0EAF8E0848781EE81870895AB
:101050001F920F920FB60F9211242F933F934F932D
:101060005F936F937F938F939F93AF93BF93EF9310
:10107000FF938091AB0886FF04C08091AB0880FD90
:1010800043C08091AB0887FD1EC08091AB0886FFEE
:1010900009C08091AB0880FD05C082E08093AA085A
:1010A00010922C38FF91EF91BF91AF919F918F914A
:1010B0007F916F915F914F913F912F910F900FBE54
:1010C0000F901F9018958091AB0881FD2CC0309136
:1010D000AD0890912B38913009F47EC008F467C0B8
:1010E0009230B9F1933049F43F3708F47BC0109245
:1010F0002B38109234381092333883E08093AA084A
:1011000081E080932D38CECF83E08093AA0810929F
:10111000AF3881E080932C3810922B3810923438FD
:1011200010923338BFCF10922B388091AF380E9485
:1011300023078093AD0883E08093AA088091AF389D
:101140008F5F8093AF38863008F4ACCF1092AF3801
:10115000A9CF60912E3880912E38837080932E38DD
:1011600040912E38E0913438F0E0E15DF74C808119
:10117000232F2F70220F220F90E1499FA0011124ED
:1011800032953F70432B669566950E945607809175
:1011900034388F5F8093343890913438809133386D
:1011A000981708F0A4CF81E080932B38A6CF832F27
:1011B00082958F708B3009F469C08C3009F462C05D
:1011C0008530C1F010922B38109234381092333899
:1011D00087E08093AA0866CF30932E3882E0809310
:1011E0002B388BCF832F880F8093AC08832F0E94DE
:1011F00058077DCF81E080932B38832F8F7090E04C
:1012000030FF0BC0E0913338F0E0E15DF74C108225
:10121000209133382F5F2093333881FF0CC0E09149
:101220003338F0E0E15DF74C21E020832091333842
:101230002F5F2093333882FF0CC0E0913338F0E009
:10124000E15DF74C22E02083209133382F5F20931B
:101250003338959587959595879595958795892B9D
:1012600061F0E0913338F0E0E15DF74C83E080839A
:10127000809133388F5F8093333880913338811178
:101280003CCFA0CF83E080932B3837CF832F8F7054
:101290000E944E0710922B38109234381092333837
:1012A0002CCFDC01FB018C9190819D938193415067
:1012B000510914161506BCF30895A0E0B0E0E3E66A
:1012C000F9E00C94940B7C016B01D42FC52F89019C
:1012D000F90109956D2F7C2F97FF10C0C601F80109
:1012E000099597FF02C0C60118C06D2F7C2FC7015A
:1012F000F801099597FD0FC0C7010FC0C601F8019D
:101300000995181619067CF36D2F7C2FC701F8017B
:10131000099597FDF1CF8D2F9C2FCDB7DEB7E8E073
:101320000C94AD0BAAE0B0E0E8E9F9E00C948A0B6C
:101330008C017B0149875A87690129853A85200FED
:10134000311F29833A8337E0E316F10470F5698091
:101350007A8049855A85E49E5001E59EB00CF49E42
:10136000B00C1124A00EB11E6A147B0408F07AC1DF
:1013700073010E151F0528F089859A85680E791E60
:10138000F3CF4701E985FA858E1A9F0AB701C40198
:10139000F6010995181619067CF749855A85B40196
:1013A000C7010E9451097401E4CFC7019695879542
:1013B00029853A85829F5001839FB00C929FB00C83
:1013C0001124A00EB11EA701415051094B835C832B
:1013D00057E0E516F10409F44CC08B819C81829F93
:1013E0003001839F700C929F700C1124600E711E4F
:1013F00099E2E916F104A8F1C70143E096958795B3
:101400004A95E1F7829F4001839F900C929F900C38
:1014100011241401220C331CA801420D531DB801E4
:10142000680D791D9601C8010E945D092C01A50176
:10143000480D591D9194819491089601B501C501FB
:10144000880D991D0E945D095C01B301680D791D2D
:101450009601A301C301821993090E945D093C0111
:1014600001C028019601A301B501C2010E945D09D6
:101470005C0149855A85B501C8010E9451096980FE
:101480007A802B813C8149855A85249FF001259FD4
:10149000F00D349FF00D1124ED83FE835F01A00E4B
:1014A000B11E460D571D4B835C8325011301198224
:1014B0001A828B809C8089859A85881A990AA8143B
:1014C000B90408F450C0B801C401F6010995181612
:1014D0001906C4F1892B71F449855A85B401C101FB
:1014E0000E94510989859A85280E391EE1E0F0E0B5
:1014F000E983FA832B813C8149855A85240F351F66
:101500002B833C83D6CFB801C501F601099595011F
:1015100049855A85241B350B2F83388797FD16C0C4
:10152000892B71F449855A85B201C5010E94510980
:1015300029853A85421A530A41E050E049835A838B
:10154000AF80B884A814B904F0F60DC049855A8557
:10155000B501C4010E945109AF80B88441E050E058
:1015600049835A83C7CF89819A81892B09F44FC057
:101570006D807E8029853A85620E731E600E711E15
:101580007401E218F308A101401B510BE416F506A3
:101590000CF4A7011416150634F4B401641B750B82
:1015A000C8010E945109A2014A195B095A01A3010D
:1015B0004419550989859A85481B590BA416B50607
:1015C00008F4A5011416150634F4B301641B750B59
:1015D000C4010E945109E985FA85EE15FF0548F41A
:1015E000C701BF010E94760B9601AF01C8010E949E
:1015F000920929853A852A153B05A0F583010A1928
:101600001B09C501B9010E94760B7B0196CEE985C5
:10161000FA85EE9E5001EF9EB00CFE9EB00C112498
:10162000A00EB11E6A147B04E8F473010E151F05A9
:1016300028F089859A85680E791EF4CF4701E985DF
:10164000FA858E1A9F0AB701C401F601099518168A
:1016500019067CF749855A85B401C7010E945109D2
:101660007401E4CF2A96E2E10C94A30B03D08081AD
:1016700099270895FC01E050FC4E08950E943A0B12
:1016800060817181828193810895262F0E943A0B97
:101690000080021619F00E945D0B019701970895D2
:1016A0000396272F0E94460B0E94450B252F0E9470
:1016B000460B242F0C94460B262FAF93BF93E0E0EC
:1016C000F0E1328131FDFDCFDC01A050BC4E2C9306
:1016D0003DE934BF23E020830196BF91AF91089587
:1016E000DC0128ED209334006C930895AA1BBB1BEA
:1016F00051E107C0AA1FBB1FA617B70710F0A61B12
:10170000B70B881F991F5A95A9F780959095BC0132
:10171000CD0108952F923F924F925F926F927F92E8
:101720008F929F92AF92BF92CF92DF92EF92FF92F1
:101730000F931F93CF93DF93CDB7DEB7CA1BDB0B9D
:10174000CDBFDEBF09942A88398848885F846E84BB
:101750007D848C849B84AA84B984C884DF80EE80D5
:10176000FD800C811B81AA81B981CE0FD11DCDBF17
:0A177000DEBFED010895F894FFCFED
:10177A0001010438030400050006010400FF010208
:0C178A00010002FFFF0200010201FF004D
:00000001FF
