:100000000C943C000C9459000C9459000C94590029
:100010000C9459000C9459000C9459000C945900FC
:100020000C948D080C9459000C9459000C945900B0
:100030000C9459000C94A9080C9451060C94590086
:100040000C946E080C9459000C9459000C945900AF
:100050000C9459000C9459000C9459000C943108DC
:100060000C9459000C9459000C9459000C945900AC
:100070000C9459000C94590011241FBECFEFCDBF32
:10008000DFE3DEBF18E3A0E0B8E3E8EEF7E102C08B
:1000900005900D92AC30B107D9F728E3ACE0B8E396
:1000A00001C01D92A03AB207E1F70E940B090C941F
:1000B000F20B0C94000080930C38882321F088E028
:1000C00080930C06089586E080930C060895E0E086
:1000D000F6E08285816082870895E82FF0E0EE0FD8
:1000E000FF1FE35FF74C808191810895E0910C3808
:1000F000F0E0EE0FFF1FE35FF74C20813181280F06
:10010000391F20833183E0910C38F0E0EE0FFF1FA0
:10011000E35FF74C40815181E0910C38F0E0EE0F45
:10012000FF1FE35FF74C2081318160E070E0405FAA
:100130005F4F6F4F7F4FA5E0769567955795479531
:10014000AA95D1F7241B350B20833183E0910C381D
:10015000F0E0EE0FFF1FE35FF74C20813181220FAB
:10016000331F220F331F220F331F2460E0910C38FE
:10017000F0E0EE0FFF1FE35FF74C40815181452B0C
:1001800049F1A90147505109E0910C38F0E0EE0F18
:10019000FF1FE35FF74C608171816F3F7F4148F53E
:1001A0008417950728F0295F3F4F2817390778F4FF
:1001B000E0910C38F0E09695879596958795969501
:1001C0008795EE0FFF1FE35FF74C8083918380914B
:1001D0000C380895E0910C38F0E0EE0FFF1FE35F5C
:1001E000F74C408151814F3F5F41E8F280910C38DC
:1001F000089584179507E0F2EACFE0E0F6E0808109
:1002000081628083818181838281806A828380850B
:100210008360808782858061828784818260848315
:1002200008958091113808958091480483FF86C015
:100230008091133821E030E0082E01C0220F0A948B
:10024000EAF7322F209590912538292320932538DD
:1002500021116BC0909112389E7F9093123890912B
:1002600008042091263894FF5CC0932F9095292391
:100270002093263821114CC0909112389D7F909385
:100280001238909148042091273890FF3DC0932F59
:10029000909529232093273821112EC09091123850
:1002A0009B7F909312389091280494FF17C0932F4E
:1002B0009095209128389223909328389923B1F073
:1002C0009F3F09F44BC08F5F877080931338F89479
:1002D00080911238809311387894089520912838AD
:1002E000932F922B909328389111EACF9091123846
:1002F000977F90931238E7CF2F3FA9F6909112384D
:10030000946090931238CFCF232B20932738C4CFFB
:100310002F3F09F0B6CF9091123892609093123827
:10032000B0CF232B20932638A5CF2F3F09F097CFAE
:100330009091123891609093123891CF8091133838
:1003400021E030E0082E01C0220F0A94EAF7322F94
:1003500090912538292B209325387ACF9091123807
:10036000986090931238AFCF1092253810922638AB
:10037000109227381092283880914004877F80930C
:10038000400480915304886080935304809100045A
:100390008F7E8093000480911404886080931404FD
:1003A000809140048E7F8093400480915004886047
:1003B00080935004809120048F7E8093200480914C
:1003C000340488608093340424E130E088EE93E0C4
:1003D00000000197E9F721503109C1F70895FC01A8
:1003E0002181FB01918161E070E0921710F060E0E3
:1003F00070E041E050E0291710F040E050E0CB0100
:10040000841B950B08952091C30825FF07C020E4A5
:100410002093C2089093C4088093C40808958091E3
:1004200014388F5F8093143890E00197FC01EE0F31
:10043000FF1F8E0F9F1FFC01EF5BF74C60817181E6
:100440008281089590E0FC01EE0FFF1FE80FF91F75
:10045000EE0FFF1FE559F74CA081B1816C93A2818B
:10046000B3814C930480F581E02D208381E080935B
:1004700015380895CF93DF9380911538882309F4B8
:10048000DAC2109215388091293880938338809190
:100490002A388093843880912B38809385388091D6
:1004A0002C388093863880912D38809387388091BE
:1004B0002E388093883880912F38809389388091A6
:1004C000303880938A388091313880938B3880918E
:1004D000323880938C388091333880938D38809176
:1004E000343880938E388091353880938F3880915E
:1004F0003638809390388091373880939138809146
:10050000383880939238809139388093933880912D
:100510003A388093943880913B3880939538809115
:100520003C388093963880913D38809397388091FD
:100530003E388093983880913F38809399388091E5
:10054000403880939A382FEE31E042E050E06CE082
:1005500070E083E898E30E94C9091092433887EE5F
:1005600097EE8093413890934238209184382F330E
:1005700008F0CBC221116BC280E090E041E050E076
:100580000090833802C0440F551F0A94E2F740954B
:100590005095477E577EFC01EE0FFF1F8E0F9F1F69
:1005A000FC01EF5BF74C40835183309186383F3339
:1005B00008F031C2822F90E0FC01EE0FFF1FDF0137
:1005C000A80FB91FAF5BB74C12966C916317D8F4A4
:1005D0002F5F822F90E0FC01EE0FFF1FEF01C80F8D
:1005E000D91FCF5BD74C3A83AC0141505109DA0196
:1005F000AA0FBB1F4A0F5B1FDA01AF5BB74C4D91CF
:100600005C914883598361E070E00090853802C0B6
:10061000660F771F0A94E2F760957095462357237B
:10062000E80FF91FEF5BF74C408351833091883816
:100630003F3308F0F0C1DC01AA0FBB1F62816317D2
:10064000D8F42F5F822F90E0DC01AA0FBB1FED01D1
:10065000C80FD91FCF5BD74C3A83AC014150510929
:10066000FA01EE0FFF1F4E0F5F1FFA01EF5BF74C11
:10067000408151814883598361E070E00090873860
:1006800002C0660F771F0A94E2F7609570954623C3
:100690005723FD01E80FF91FEF5BF74C40835183AF
:1006A00030918A383F3308F0B6C1DC01AA0FBB1F76
:1006B00062816317D8F42F5F822F90E0DC01AA0FCC
:1006C000BB1FED01C80FD91FCF5BD74C3A83AC01DC
:1006D00041505109FA01EE0FFF1F4E0F5F1FFA0143
:1006E000EF5BF74C408151814883598361E070E0B2
:1006F0000090893802C0660F771F0A94E2F7609570
:10070000709546235723FD01E80FF91FEF5BF74C67
:100710004083518330918C383F3308F07CC1DC0139
:10072000AA0FBB1F62816317D8F42F5F822F90E05E
:10073000DC01AA0FBB1FED01C80FD91FCF5BD74C3F
:100740003A83AC0141505109FA01EE0FFF1F4E0FE1
:100750005F1FFA01EF5BF74C408151814883598359
:1007600061E070E000908B3802C0660F771F0A943A
:10077000E2F76095709546235723FD01E80FF91FB6
:10078000EF5BF74C4083518330918E383F3308F054
:1007900042C1DC01AA0FBB1F62816317D8F42F5F2F
:1007A000822F90E0DC01AA0FBB1FED01C80FD91FFB
:1007B000CF5BD74C3A83AC0141505109FA01EE0F9F
:1007C000FF1F4E0F5F1FFA01EF5BF74C4081518115
:1007D0004883598361E070E000908D3802C0660F55
:1007E000771F0A94E2F76095709546235723FD0121
:1007F000E80FF91FEF5BF74C40835183309190383D
:100800003F3308F008C1DC01AA0FBB1F62816317E8
:10081000D8F42F5F822F90E0DC01AA0FBB1FED01FF
:10082000C80FD91FCF5BD74C3A83AC014150510957
:10083000FA01EE0FFF1F4E0F5F1FFA01EF5BF74C3F
:10084000408151814883598361E070E000908F3886
:1008500002C0660F771F0A94E2F7609570954623F1
:100860005723FD01E80FF91FEF5BF74C40835183DD
:10087000309192383F3308F0CEC0DC01AA0FBB1F85
:1008800062816317D8F42F5F822F90E0DC01AA0FFA
:10089000BB1FED01C80FD91FCF5BD74C3A83AC010A
:1008A00041505109FA01EE0FFF1F4E0F5F1FFA0171
:1008B000EF5BF74C408151814883598361E070E0E0
:1008C0000090913802C0660F771F0A94E2F7609596
:1008D000709546235723FD01E80FF91FEF5BF74C96
:1008E00040835183309194383F3308F094C0DC0149
:1008F000AA0FBB1F62816317D8F42F5F822F90E08D
:10090000DC01AA0FBB1FED01C80FD91FCF5BD74C6D
:100910003A83AC0141505109FA01EE0FFF1F4E0F0F
:100920005F1FFA01EF5BF74C408151814883598387
:1009300061E070E00090933802C0660F771F0A9460
:10094000E2F76095709546235723FD01E80FF91FE4
:10095000EF5BF74C40835183309196383F3308F07A
:100960005AC0DC01AA0FBB1F6281631708F479C06B
:1009700061E070E00090953802C0660F771F0A941E
:10098000E2F76095709546235723FD01E80FF91FA4
:10099000EF5BF74C40835183309198383F33D8F563
:1009A000DC01AA0FBB1F6281631708F476C061E007
:1009B00070E00090973802C0660F771F0A94E2F744
:1009C0006095709546235723A80FB91FAF5BB74CAE
:1009D0004D935C93119730919A383F33E0F4FC01CA
:1009E000EE0FFF1F12966C91631708F472C08E0F02
:1009F0009F1FFC01EF5BF74C81E090E0009099387D
:100A000002C0880F991F0A94E2F7809590954823B9
:100A100059234083518381E0820F90E0FC01EE0F67
:100A2000FF1F8E0F9F1FFC01EF5BF74C8FE382834C
:100A30002E5F2093003881E0809314386091413814
:100A40007091423880914338DF91CF91089520937F
:100A50004638809344389093453881E090E021E017
:100A60008DCD2F5F822F90E0DC01AA0FBB1FED011F
:100A7000C80FD91FCF5BD74C3A83AC014150510905
:100A8000FA01EE0FFF1F4E0F5F1FFA01EF5BF74CED
:100A900040815181488359836BCF2F5F822F90E033
:100AA000DC01AA0FBB1FED01C80FD91FCF5BD74CCC
:100AB0003A83AC0141505109FA01EE0FFF1F4E0F6E
:100AC0005F1FFA01EF5BF74C4081518148835983E6
:100AD0006ECF2F5F822F90E0FC01EE0FFF1FEF0122
:100AE000C80FD91FCF5BD74C3A83AC014150510995
:100AF000DA01AA0FBB1F4A0F5B1FDA01AF5BB74CCD
:100B00004D915C914883598372CF20E084CFE0E01F
:100B1000F4E080818A608083E0E2F4E08081846098
:100B20008083E0ECF8E080E2808384E88183808148
:100B300081608083A9E2B8E381E08C93EBE6F8E37F
:100B40002AE238E32083318392E012969C93129735
:100B50002CE238E32283338314961C9214972EE2FE
:100B600038E32483358396E016969C93169720E30A
:100B700038E32683378397E018969C93189722E3EF
:100B800038E32087318795E01A969C931A9724E3DF
:100B900038E32287338799E01C969C931C9726E3C1
:100BA00038E3248735879AE01E969C931E9728E3A6
:100BB00038E32687378798E050969C9350972AE32E
:100BC00038E3208B318B9EE052969C9352972CE316
:100BD00038E3228B338B9FE054969C9354972EE3FB
:100BE00038E3248B358B9DE056969C9320E438E3C4
:100BF000268B378BA1E4B8E31D921C9211971296B5
:100C00001C92A081B1811C92A281B3811C92A4810B
:100C1000B5811C9280931538A681B7811C92A0855E
:100C2000B1851C92A285B3851C9280931538A4854A
:100C3000B5851C92A685B7851C92A089B1891C92A6
:100C400080931538A289B3891C92A489B5891C9216
:100C50000688F789E02D1082809315380C943A02AB
:100C6000E0E0FAE087E190E086A397A382858160C7
:100C7000828780818B6080830895E0E8FAE084ECCD
:100C800099E08487958785818160858380818360F1
:100C900080830895880FE0EAF8E0848781EE8187F9
:100CA00008951F920F920FB60F9211242F933F9326
:100CB0004F935F936F937F938F939F93AF93BF9364
:100CC000EF93FF938091AB0886FF04C08091AB083F
:100CD00080FD43C08091AB0887FD1EC08091AB08AA
:100CE00086FF09C08091AB0880FD05C082E080933B
:100CF000AA0810921738FF91EF91BF91AF919F9181
:100D00008F917F916F915F914F913F912F910F90B4
:100D10000FBE0F901F9018958091AB0881FD2CC0DD
:100D20003091AD0890911638913009F47EC008F4E6
:100D300067C09230B9F1933049F43F3708F47BC073
:100D40001092163810921F3810921E3883E080934C
:100D5000AA0881E080931838CECF83E08093AA0858
:100D600010929B3881E080931738109216381092B9
:100D70001F3810921E38BFCF1092163880919B38C2
:100D80000E94D4088093AD0883E08093AA088091E4
:100D90009B388F5F80939B38863008F4ACCF1092DD
:100DA0009B38A9CF6091193880911938837080934E
:100DB000193840911938E0911F38F0E0E65EF74CA1
:100DC0008081232F2F70220F220F90E1499FA001D5
:100DD000112432953F70432B669566950E94070952
:100DE00080911F388F5F80931F3890911F388091BA
:100DF0001E38981708F0A4CF81E080931638A6CF4C
:100E0000832F82958F708B3009F469C08C3009F480
:100E100062C08530C1F01092163810921F381092BF
:100E20001E3887E08093AA0866CF3093193882E095
:100E3000809316388BCF832F880F8093AC08832F35
:100E40000E9409097DCF81E080931638832F8F702F
:100E500090E030FF0BC0E0911E38F0E0E65EF74C0A
:100E6000108220911E382F5F20931E3881FF0CC006
:100E7000E0911E38F0E0E65EF74C21E020832091FF
:100E80001E382F5F20931E3882FF0CC0E0911E3861
:100E9000F0E0E65EF74C22E0208320911E382F5FC1
:100EA00020931E3895958795959587959595879567
:100EB000892B61F0E0911E38F0E0E65EF74C83E0AC
:100EC000808380911E388F5F80931E3880911E38FA
:100ED00081113CCFA0CF83E08093163837CF832F8A
:100EE0008F700E94FF081092163810921F381092CF
:100EF0001E382CCF8093013808958091480481FDDD
:100F000019C040E091E021E030E08091280483FDA9
:100F100002C0942F232F80912038891B80FF09C0A5
:100F20002093203890919C3882709150890F809343
:100F30009C38089543E092E022E033E0E6CFF89455
:100F400080919C3890910138923071F0943021F06A
:100F500010929C3878940895982F937090939C38B1
:100F60008595859578940895982F917090939C38E5
:100F700085957894089580930138809140048D7F01
:100F80008093400480915104886080935104809143
:100F90002004877F809320048091330488608093AD
:100FA00033048091480481FD0BC081E020E09091E2
:100FB000280493FF822F8093203810929C38089544
:100FC00082E023E0F4CF8091021081FDFCCF84E029
:100FD0009FEF0E94750B6437754683479447F1F085
:100FE0008091021081FDFCCF61E080E09FEF0E94C4
:100FF0007C0B8091021081FDFCCF61E081E09FEFCE
:101000000E947C0B8091021081FDFCCF44E755E6E5
:1010100063E774E784E09FEF0C94870B0895909149
:10102000021091FDFCCF682F80E09FEF0C947C0BA9
:101030008091021081FDFCCF80E09FEF0C946D0B3E
:101040009091021091FDFCCF682F81E09FEF0C94EE
:101050007C0B8091021081FDFCCF81E09FEF0C940E
:101060006D0B1F920F920FB60F9211242F933F9387
:101070004F935F936F937F938F939F93AF93BF93A0
:10108000EF93FF9381E0809302388091050688609A
:101090008093050680911406909115060E947600B3
:1010A000809321389091213881E0911180E08093E4
:1010B0002138809121380E945B00FF91EF91BF9110
:1010C000AF919F918F917F916F915F914F913F91E0
:1010D0002F910F900FBE0F901F9018951F920F9297
:1010E0000FB60F9211248F938091C30886FF0FC013
:1010F000809125048460809325048091C3088064D6
:101100008093C308809126048460809326048F9185
:101110000F900FBE0F901F9018951F920F920FB651
:101120000F9211248F9380910B0A816080930B0A98
:10113000809124388F5F80932438809124388F33B6
:1011400011F4109224388F910F900FBE0F901F90C2
:1011500018951F920F920FB60F9211248F939F93A1
:101160008091860A81608093860A909122388091CE
:101170000B38981739F09F918F910F900FBE0F90F9
:101180001F901895809122388F5F8093223880912C
:101190002238843081F7109222389F918F910F90DE
:1011A0000FBE0F901F901895CF93C82F8130F9F084
:1011B000C8F0833079F0853021F40E949F07809336
:1011C0000A38E0910338F0910438EC0FF11D80816A
:1011D000CF91089581E00E946D008093083890932C
:1011E0000938EFCF0E94110180930538EACF80E0E3
:1011F0000E946D008093063890930738E2CFCF931A
:10120000C82F0E9420088C2FCF910C947A070C9441
:1012100022020C940F0860E081E690E00E94A70B88
:101220000E94E3070E9430060E943D060E941808B3
:101230000E944A060E9487050E94B4010E94290864
:101240000E94BB070E94FD007894809121380E9483
:101250005B008091213890E00E94670080912338E4
:1012600010C08091243890919F38891700F58091A3
:101270002438809323382091223890910B382913F9
:1012800025C0909124389817B1F39091243898177D
:1012900040F70E943A0260939D3870939E38809385
:1012A0009F388091243890919F38891700F380915E
:1012B0009D3890919E380E9403020E940F02609315
:1012C0009D3870939E3880939F38D1CF809122387B
:1012D0008F5F80930B3880912238813079F058F0FD
:1012E000823021F48091023881110BC08091223824
:1012F00080930B38B3CF0E941401F8CF0E947D0772
:10130000F5CFF8940E946700109202387894EECFDF
:10131000DC01FB018C9190819D9381934150510997
:1013200014161506BCF30895A0E0B0E0EAE9F9E070
:101330000C94CB0B7C016B01D42FC52F8901F901D3
:1013400009956D2F7C2F97FF10C0C601F8010995F4
:1013500097FF02C0C60118C06D2F7C2FC701F8018E
:10136000099597FD0FC0C7010FC0C601F801099587
:10137000181619067CF36D2F7C2FC701F80109950B
:1013800097FDF1CF8D2F9C2FCDB7DEB7E8E00C9401
:10139000E40BAAE0B0E0EFECF9E00C94C10B8C0197
:1013A0007B0149875A87690129853A85200F311FBA
:1013B00029833A8337E0E316F10470F569807A8077
:1013C00049855A85E49E5001E59EB00CF49EB00C10
:1013D0001124A00EB11E6A147B0408F07AC17301B7
:1013E0000E151F0528F089859A85680E791EF3CFA2
:1013F0004701E985FA858E1A9F0AB701C401F601F3
:101400000995181619067CF749855A85B401C70154
:101410000E9488097401E4CFC701969587952985B4
:101420003A85829F5001839FB00C929FB00C11248B
:10143000A00EB11EA701415051094B835C8357E0B8
:10144000E516F10409F44CC08B819C81829F300128
:10145000839F700C929F700C1124600E711E99E294
:10146000E916F104A8F1C70143E0969587954A95DE
:10147000E1F7829F4001839F900C929F900C112472
:101480001401220C331CA801420D531DB801680D34
:10149000791D9601C8010E9494092C01A501480DEF
:1014A000591D9194819491089601B501C501880D4B
:1014B000991D0E9494095C01B301680D791D960184
:1014C000A301C301821993090E9494093C0101C040
:1014D00028019601A301B501C2010E9494095C0193
:1014E00049855A85B501C8010E94880969807A80BA
:1014F0002B813C8149855A85249FF001259FF00D61
:10150000349FF00D1124ED83FE835F01A00EB11E08
:10151000460D571D4B835C832501130119821A82E6
:101520008B809C8089859A85881A990AA814B904A9
:1015300008F450C0B801C401F6010995181619063F
:10154000C4F1892B71F449855A85B401C1010E9407
:10155000880989859A85280E391EE1E0F0E0E98343
:10156000FA832B813C8149855A85240F351F2B83B3
:101570003C83D6CFB801C501F6010995950149858F
:101580005A85241B350B2F83388797FD16C0892B6E
:1015900071F449855A85B201C5010E9488092985DF
:1015A0003A85421A530A41E050E049835A83AF809A
:1015B000B884A814B904F0F60DC049855A85B50160
:1015C000C4010E948809AF80B88441E050E049839B
:1015D0005A83C7CF89819A81892B09F44FC06D80C6
:1015E0007E8029853A85620E731E600E711E74011D
:1015F000E218F308A101401B510BE416F5060CF4A8
:10160000A7011416150634F4B401641B750BC80148
:101610000E948809A2014A195B095A01A3014419D1
:10162000550989859A85481B590BA416B50608F4F7
:10163000A5011416150634F4B301641B750BC4011F
:101640000E948809E985FA85EE15FF0548F4C7016F
:10165000BF010E94AD0B9601AF01C8010E94C909EC
:1016600029853A852A153B05A0F583010A191B092E
:10167000C501B9010E94AD0B7B0196CEE985FA85C3
:10168000EE9E5001EF9EB00CFE9EB00C1124A00EF9
:10169000B11E6A147B04E8F473010E151F0528F0CF
:1016A00089859A85680E791EF4CF4701E985FA8508
:1016B0008E1A9F0AB701C401F6010995181619067A
:1016C0007CF749855A85B401C7010E9488097401D5
:1016D000E4CF2A96E2E10C94DA0B03D080819927BB
:1016E0000895FC01E050FC4E08950E94710B60814A
:1016F0007181828193810895262F0E94710B008051
:10170000021619F00E94940B019701970895039611
:10171000272F0E947D0B0E947C0B252F0E947D0BA2
:10172000242F0C947D0B262FAF93BF93E0E0F0E1C4
:10173000328131FDFDCFDC01A050BC4E2C933DE940
:1017400034BF23E020830196BF91AF910895DC015F
:1017500028ED209334006C930895AA1BBB1B51E124
:1017600007C0AA1FBB1FA617B70710F0A61BB70B11
:10177000881F991F5A95A9F780959095BC01CD01B6
:1017800008952F923F924F925F926F927F928F9225
:101790009F92AF92BF92CF92DF92EF92FF920F9300
:1017A0001F93CF93DF93CDB7DEB7CA1BDB0BCDBF43
:1017B000DEBF09942A88398848885F846E847D84D6
:1017C0008C849B84AA84B984C884DF80EE80FD80E9
:1017D0000C811B81AA81B981CE0FD11DCDBFDEBF87
:0817E000ED010895F894FFCF1C
:0C17E8000104010538030400050006019F
:00000001FF
