S00F00004D4355313632362E7372656361
S11300000C9491000C94AE000C94AE000C94AE00D1
S11300100C94AE000C94AE000C94AE000C94AE00A4
S11300200C941B010C94AE000C94AE000C94AE0026
S11300300C94AE000C944F010C9481010C94AE000E
S11300400C94EC000C94AE000C94AE000C94AE0036
S11300500C94AE000C94AE000C94AE000C94BB0057
S11300600C94AE000C94AE000C94AE000C94AE0054
S11300700C94AE000C94AE005302850288028C02EC
S11300808F02930297026F07D707D707D707D707BF
S1130090D707D707D707D707D707D7077307D707D0
S11300A0D707D707D707D707D707D707D707D7075C
S11300B0D7077707D707D707D707D707D707D707AC
S11300C0D707D707D707D7077B07D707D707D70798
S11300D0D707D707D707D707D707D707D7077F0784
S11300E0D707D707D707D707D707D707D707D7071C
S11300F0D707D7078A07D707D707D707D707D70759
S1130100D707D707D707D707D7079607D707D7073C
S1130110D707D707D707D707D707D707D707D707EB
S1130120A10711241FBECFEFCDBFDFE3DEBF18E36D
S1130130A0E0B8E3EEEBF8E102C005900D92A43024
S1130140B107D9F728E3A4E0B8E301C01D92A03EAB
S1130150B207E1F70E9429020C945D0C0C94000094
S1130160E0E0F4E0808180628083E0E4F4E0808178
S11301708860808308951F920F920FB60F92112406
S11301802F933F934F935F936F937F938F939F939B
S1130190AF93BF93EF93FF932091140680911506BC
S11301A0E0E0F6E095819860958390E0982F8827A9
S11301B0822B0E94B602FF91EF91BF91AF919F9164
S11301C08F917F916F915F914F913F912F910F90FC
S11301D00FBE0F901F9018951F920F920FB60F929B
S11301E011248F93AF93BF93EF93FF938091C30830
S11301F086FF17C0E0E2F4E0858184608583A0EC8B
S1130200B8E013968C911397806413968C9313978C
S113021012968C9112978F7B12968C9386818460B0
S11302208683FF91EF91BF91AF918F910F900FBE95
S11302300F901F9018951F920F920FB60F921124D2
S11302402F933F934F935F936F937F938F939F93DA
S1130250AF93BF93CF93DF93EF93FF93C0E0DAE0C4
S11302608B8581608B870E94780490E08EA39FA386
S1130270862F972F0E946D04FF91EF91DF91CF910C
S1130280BF91AF919F918F917F916F915F914F91AA
S11302903F912F910F900FBE0F901F9018951F92B2
S11302A00F920FB60F9211242F938F939F93EF9376
S11302B0FF93E0E8FAE086818160868380910438C8
S11302C08F5F809304382091043885E2289F912D14
S11302D01124822F891B8695890F86958695982FE0
S11302E0990F990F990F981B291B20930438FF919C
S11302F0EF919F918F912F910F900FBE0F901F90B0
S113030018951F920F920FB60F9211242F933F93BB
S11303104F935F936F937F938F939F93AF93BF9309
S1130320EF93FF938091AB0886FF18C08091AB08D0
S113033083FF09C0E0EAF8E083858860838782E070
S11303408093AA0875C08091AB0880FF04C083E045
S11303508093AA0803C082E08093AA088091AB0826
S113036088230CF065C08091AB0881FF5AC00E94BD
S1130370D8078130F1F030F0823091F1833009F404
S113038045C048C091110EC080E00E94AD02809328
S113039018389093193880911838909119388093AF
S11303A0AD083BC080911838909119389093AD08EE
S11303B034C091110EC081E00E94AD0280931838C0
S11303C09093193880911838909119388093AD081A
S11303D024C080911838909119389093AD081DC0AD
S11303E091110DC00E94F10380931838909319382D
S11303F080911838909119388093AD080EC080917F
S11304001838909119389093AD0807C00E94E20201
S11304108093AD088BE08093AD0883E08093AA08B5
S113042007C08091AD080E94530783E08093AA0817
S1130430FF91EF91BF91AF919F918F917F916F91B8
S11304405F914F913F912F910F900FBE0F901F908E
S1130450189560E081E690E00E94120C0E94B000C2
S11304600E9441080E944E080E9442070E941407FD
S11304700E94BE030E94CE020E944104789490918F
S11304800538809104389817D1F38091043880930B
S11304900538E0910538F0E0E730F10580F7E45CD9
S11304A0FF4F0C94270A0E941B0860932C3870930A
S11304B02D3880932E3890932F38ECE2F8E3808126
S11304C04381440F628180E8689FB00111248181D7
S11304D0682B8081823069F018F4813031F0CFCFFD
S11304E0833059F0843069F0CACF80E00E94EF066F
S11304F0C6CF81E00E94EF06C2CF82E00E94EF06E1
S1130500BECF83E00E94EF06BACF0E94F603B7CFB6
S113051080E00E949B02B3CF0E94E502B0CF81E04D
S11305200E949B02ACCF80E00E94C002A8CF81E071
S11305300E94C002A4CF811102C096E001C098E0DD
S1130540E0E0F6E0948792E49A95F1F700C0928592
S113055091609287809306380895E82FF0E0EE0FBB
S1130560FF1FE05DF74C808191810895E09106388A
S1130570F0E0EE0FFF1FE95FF74C8083918308954D
S113058090E0880F991FFC01E95FF74C20813181CD
S1130590FC01E05DF74C208331830895E0E0F6E050
S11305A0808181628083818181838281806A828368
S11305B08085836080878285806182878481826070
S11305C08483089580910B3808958091480483FFB3
S11305D010C081E090E000900D3802C0880F991F90
S11305E00A94E2F7E4E3F8E3809590818923808319
S11305F00EC081E090E000900D3802C0880F991F72
S11306000A94E2F7E4E3F8E39081892B80838091F4
S11306103438811106C080910C388E7F80930C3859
S113062007C08F3F29F480910C38816080930C3887
S11306308091080484FF10C081E090E000900D38A0
S113064002C0880F991F0A94E2F7E4E3F8E3809567
S11306509181892381830EC081E090E000900D3860
S113066002C0880F991F0A94E2F7E4E3F8E391814A
S1130670892B818380913538811106C080910C3893
S11306808D7F80930C3807C08F3F29F480910C38FC
S1130690826080930C388091480480FF10C081E010
S11306A090E000900D3802C0880F991F0A94E2F779
S11306B0E4E3F8E380959281892382830EC081E08C
S11306C090E000900D3802C0880F991F0A94E2F759
S11306D0E4E3F8E39281892B828380913638811197
S11306E006C080910C388B7F80930C3807C08F3FF5
S11306F029F480910C38846080930C38809128040C
S113070084FF10C081E090E000900D3802C0880F93
S1130710991F0A94E2F7E4E3F8E38095938189232F
S113072083830EC081E090E000900D3802C0880FF2
S1130730991F0A94E2F7E4E3F8E39381892B838316
S113074080913738811106C080910C38877F80935F
S11307500C3807C08F3F29F480910C38886080934F
S11307600C3880910D388F5F877080930D38F89422
S113077080910C3880930B387894089580E090E051
S113078005C0FC01EC5CF74C1082019684309105A5
S1130790C4F3E0E4F4E08081877F80838389886008
S11307A0838BA0E0B4E08C918F7E8C9354968C91D3
S11307B05497886054968C9380818E7F808380893F
S11307C08860808BE0E2F4E080818F7E808384897E
S11307D08860848B87E893E10197F1F700C00000FB
S11307E0089580910F3890911038089580914804AD
S11307F081FD02C090E001C093E08091280483FF52
S113080002C081E0982780910E38891B80FF09C0BF
S113081090930E38827090913838890F815080936C
S1130820383820913838222359F180911138909129
S11308301238820F911D27FD9A9580931138909359
S11308401238893621E092073CF088569140809313
S113085011389093123808C0992334F488599E4F64
S1130860809311389093123810923838F89480910C
S113087011389091123880930F38909310387894EF
S11308800895E0E4F4E080818D7F8083818988602D
S1130890818BA0E2B4E08C91877F8C9353968C91EA
S11308A05397886053968C93808581FD02C080E0C5
S11308B001C083E09091280493FF02C091E089274E
S11308C080930E38109238380895FC01838190E0AB
S11308D0FB012381821B910908952091C30825FF00
S11308E006C0E0ECF8E020E4228394838483089536
S11308F080911338882339F1809114388823A9F022
S113090022C0FC01EE0FFF1FE80FF91FDF01A75CF7
S1130910B74C2D913C911197E35AF74C20833183C6
S113092012962C912283019602C080E090E02091DF
S1130930013830E08217930724F3809101388093C3
S11309400038109213388091143890E0FC01EE0FB7
S1130950FF1F8E0F9F1FFC01E35AF74C208131814A
S11309604281809114388F5F8093143860910038ED
S1130970809114380E941B0A90931438842FB90173
S113098008958F929F92AF92BF92CF92DF92EF928F
S1130990FF920F931F93CF938C016A017B01C22FA7
S11309A02BE339E848E85CE3C701B6010E94AE09CD
S11309B04B015C0120E030E040E752E4C701B6019E
S11309C00E94C808882394F46C2F70E080E090E0C3
S11309D00E94FE089B01AC01C501B4010E94AE094E
S11309E0EC2E0E94CD08F62EC0E0B1C020E030E02D
S11309F040EF52E4C701B6010E94C8088823E4F41A
S1130A006C2F70E080E090E00E94FE086B017C0196
S1130A10A501940160E070E080E090E40E945B082E
S1130A209B01AC01C701B6010E94AE090E94CD082A
S1130A30E62EFC2EC0E08BC020E030E044E353E41B
S1130A40C701B6010E94C8088823E4F46C2F70E043
S1130A5080E090E00E94FE086B017C0120E030E021
S1130A6040E050E4C501B4010E945B089B01AC0165
S1130A70C701B6010E94AE09E12CFC2E0E94CD08EC
S1130A80C62F65C020E030E040E753E4C701B6015B
S1130A900E94C8088823DCF46C2F70E080E090E0AA
S1130AA00E94FE086B017C01A501940160E070E0E6
S1130AB080E890E40E945B089B01AC01C701B60189
S1130AC00E94AE09E12C0E94CD08F62E40C020E021
S1130AD030E046E953E4C701B6010E94C808882300
S1130AE0DCF46C2F70E080E090E00E94FE086B0163
S1130AF07C0120E030E040E850E4C501B4010E94EC
S1130B005B089B01AC01C701B6010E94AE090E94BB
S1130B10CD08E62EF12C1BC06C2F70E080E090E035
S1130B200E94FE086B017C01A501940160E070E065
S1130B3080EC90E40E945B089B01AC01C701B60104
S1130B400E94AE09EC2EF12C0E94CD08C62FF801AC
S1130B50E182F382C583CF911F910F91FF90EF90B3
S1130B60DF90CF90BF90AF909F908F900895A1EBAE
S1130B70B8E381E08C93E1E8F8E3828382EB98E3C5
S1130B808083918382E012968C931297868384EB00
S1130B9098E38483958314961C921497128686EBAB
S1130BA098E38087918786E016968C9316978687BC
S1130BB088EB98E38487958787E018968C93189739
S1130BC0828B8AEB98E3808B918B85E01A968C93C9
S1130BD01A97868B8CEB98E3848B958B89E01C9613
S1130BE08C931C97828F8EEB98E3808F918F8AE091
S1130BF01E968C931E97868F80EC98E3848F958F36
S1130C0088E050968C93509782A382EC98E380A35B
S1130C1091A38EE052968C93529786A384EC98E32A
S1130C2084A395A38FE054968C93549782A786EC63
S1130C3098E380A791A78DE056968C9386A788ECBD
S1130C4098E384A795A7E9E3F8E31082118212825E
S1130C50089580E090E00CC0FC01EE0FFF1FEE0F42
S1130C60FF1FEF57F74CA081B1812C91238301968C
S1130C708C3091058CF325E634E044E050E06CE0E0
S1130C8070E081E898E30E946E0A10920138109295
S1130C903B3820E030E047EE57EE51C0F901EE0F4B
S1130CA0FF1FEE0FFF1FEF57F74C63818091013850
S1130CB090E0FC01EE0FFF1F8E0F9F1FFC01E75C0D
S1130CC0F74C82818617C8F4809101388F5F809336
S1130CD001388091013890E0F901EE0FFF1FEE0F0B
S1130CE0FF1FEF57F74C6381FC01EE0FFF1F8E0FC0
S1130CF09F1FFC01E75CF74C6283F901EE0FFF1FB5
S1130D00EE0FFF1FEF57F74C628181E090E002C0C5
S1130D10880F991F6A95E2F7809590954823592387
S1130D208091013890E0FC01EE0FFF1F8E0F9F1F92
S1130D30FC01E75CF74C408351832F5F3F4F2C301D
S1130D4031055CF4F901EE0FFF1FEE0FFF1FEF57A3
S1130D50F74C83818F3F09F0A1CF809101388F5FD9
S1130D608093013880E090E040E032C02091013867
S1130D7030E0215031098217930759F4FC01EE0F3A
S1130D80FF1FE80FF91FE75CF74C242F20952283FF
S1130D9015C09C012F5F3F4FF901EE0FFF1F2E0F6F
S1130DA03F1FF901E75CF74C2281241BFC01EE0F85
S1130DB0FF1FE80FF91FE75CF74C2283FC01EE0FDD
S1130DC0FF1FE80FF91FE75CF74C2281420F0196E1
S1130DD02091013830E08217930744F208951F935D
S1130DE0CF93DF93142F10921338C82FD0E080E0F4
S1130DF090E00E94FC08AB01BC01CE01880F991F52
S1130E008C0F9D1F880F991F212F8F54974C0E9480
S1130E10C1040E942906F89481E0809313387894E1
S1130E20DF91CF911F910895E0E0F4E080818A6022
S1130E308083E0E2F4E0808184608083E0ECF8E089
S1130E4080E2808384E881838081816080830E9442
S1130E50B70540E060E070E080E00E94EF0640E00B
S1130E6060E070E081E00E94EF0640E060E070E046
S1130E7082E00E94EF0640E060E070E083E00E94C0
S1130E80EF060895E0EAF8E089E0848783EE81873D
S1130E90E9ECF8E381E0808382E0848383E0808767
S1130EA084E084870895E82F88230CF055C080914E
S1130EB0173881117CC0EF771092153810921638CC
S1130EC08FEF809302388E2F90E0FC013B97EE3435
S1130ED0F10508F06CC0ED5BFF4F0C94270A81E02C
S1130EE080931738089584E080931738089582E03A
S1130EF080931738089583E080931738089580917C
S1130F00C93888230CF453C01092023885E08093CA
S1130F10173808958091CD3888230CF448C081E0B7
S1130F208093023886E08093173808958091D138F1
S1130F308823ECF182E08093023887E080931738AD
S1130F4008958091D538882394F183E08093023802
S1130F5088E080931738089580911738855084303D
S1130F6010F58091023890E020911638DC01AA0F28
S1130F70BB1FAA0FBB1FA753B74CA20FB11D1196DD
S1130F80EC932F5F20931638233088F0880F991F35
S1130F90880F991FFC01E753F74C80818068808398
S1130FA01092173808951092163810921738089531
S1130FB080911738823029F118F4813031F035C02E
S1130FC0833069F1843079F030C080E09091153835
S1130FD021E0290F20931538223060F11092153842
S1130FE010921738089581E09091153821E0290F67
S1130FF0209315382230F0F01092153810921738DB
S1131000089582E09091153821E0290F2093153836
S1131010223080F01092153810921738089583E02A
S1131020109215381092173808951092153884E0EC
S113103010921738089580E090E01BC0F894FC01EA
S1131040EE0FFF1FEE0FFF1FE753F74C608166237F
S113105074F4880F991F880F991FFC01E753F74C0C
S11310606F776083718182819381789408957894F5
S113107001968530910514F36FEF70E080E090E005
S11310800895E0E0FAE081E090E086A397A38285EA
S11310908160828780818D6080830895E0E8FAE032
S11310A088E090E08487958785818160858380814D
S11310B08560808308955058BB27AA270E9473082F
S11310C00C9474090E94660938F00E946D0920F09E
S11310D039F49F3F19F426F40C9463090EF4E09557
S11310E0E7FB0C945D09E92F0E94850958F3BA17B0
S11310F0620773078407950720F079F4A6F50C942A
S1131100A7090EF4E0950B2EBA2FA02D0B01B901FF
S113111090010C01CA01A0011124FF27591B99F069
S1131120593F50F4503E68F11A16F040A22F232F75
S1131130342F4427585FF3CF469537952795A795C5
S1131140F0405395C9F77EF41F16BA0B620B730B6C
S1131150840BBAF09150A1F0FF0FBB1F661F771FDD
S1131160881FC2F70EC0BA0F621F731F841F48F492
S1131170879577956795B795F7959E3F08F0B0CF1B
S11311809395880F08F09927EE0F97958795089502
S11311900E94390908F481E008950E948D0988F0BD
S11311A09F5798F0B92F9927B751B0F0E1F0660F27
S11311B0771F881F991F1AF0BA95C9F714C0B13068
S11311C091F00E94A709B1E008950C94A709672F34
S11311D0782F8827B85F39F0B93FCCF38695779597
S11311E06795B395D9F73EF4909580957095619580
S11311F07F4F8F4F9F4F0895E89409C097FB3EF4AB
S113120090958095709561957F4F8F4F9F4F99234F
S1131210A9F0F92F96E9BB279395F69587957795CD
S11312206795B795F111F8CFFAF4BB0F11F460FF8D
S11312301BC06F5F7F4F8F4F9F4F16C0882311F0E5
S113124096E911C0772321F09EE8872F762F05C0F9
S1131250662371F096E8862F70E060E02AF09A9594
S1131260660F771F881FDAF7880F9695879597F989
S11312700895990F0008550FAA0BE0E8FEEF161623
S11312801706E807F907C0F012161306E407F50776
S113129098F0621B730B840B950B39F40A2661F0EA
S11312A0232B242B252B21F408950A2609F4A1408D
S11312B0A6958FEF811D811D089597F99F6780E89A
S11312C070E060E008959FEF80EC089500240A9494
S11312D01616170618060906089500240A9412160D
S11312E01306140605060895092E0394000C11F440
S11312F0882352F0BB0F40F4BF2B11F460FF04C0ED
S11313006F5F7F4F8F4F9F4F089557FD9058440F45
S1131310551F59F05F3F71F04795880F97FB991F50
S113132061F09F3F79F0879508951216130614060D
S1131330551FF2CF4695F1DF08C01616170618069A
S1131340991FF1CF86957105610508940895E89475
S1131350BB2766277727CB0197F908950E94C10917
S11313600C9474090E94660938F00E946D0920F0FB
S1131370952311F00C945D090C94630911240C94C9
S1131380A8090E94850970F3959FC1F3950F50E059
S1131390551F629FF001729FBB27F00DB11D639F23
S11313A0AA27F00DB11DAA1F649F6627B00DA11DC9
S11313B0661F829F2227B00DA11D621F739FB00D6F
S11313C0A11D621F839FA00D611D221F749F3327DF
S11313D0A00D611D231F849F600D211D822F762F78
S11313E06A2F11249F5750409AF0F1F088234AF055
S11313F0EE0FFF1FBB1F661F771F881F91505040C1
S1131400A9F79E3F510580F00C945D090C94A8093E
S11314105F3FE4F3983ED4F3869577956795B79547
S1131420F795E7959F5FC1F7FE2B880F911D969561
S1131430879597F90895991B79E004C0991F961729
S113144008F0961B881F7A95C9F780950895EE0FCA
S1131450FF1F0590F491E02D0994DC01FB018C91B0
S113146090819D9381934150510914161506BCF344
S11314700895A0E0B0E0EFE3FAE00C94360C7C01B0
S11314806B01D42FC52F8901F90109956D2F7C2F8C
S113149097FF10C0C601F801099597FF02C0C60165
S11314A018C06D2F7C2FC701F801099597FD0FC057
S11314B0C7010FC0C601F8010995181619067CF377
S11314C06D2F7C2FC701F801099597FDF1CF8D2F62
S11314D09C2FCDB7DEB7E8E00C944F0CAAE0B0E047
S11314E0E4E7FAE00C942C0C8C017B0149875A87C1
S11314F0690129853A85200F311F29833A8337E012
S1131500E316F10470F569807A8049855A85E49E72
S11315105001E59EB00CF49EB00C1124A00EB11E37
S11315206A147B0408F07AC173010E151F0528F0B4
S113153089859A85680E791EF3CF4701E985FA8576
S11315408E1A9F0AB701C401F601099518161906E7
S11315507CF749855A85B401C7010E942D0A74019C
S1131560E4CFC7019695879529853A85829F5001D6
S1131570839FB00C929FB00C1124A00EB11EA70142
S1131580415051094B835C8357E0E516F10409F49B
S11315904CC08B819C81829F3001839F700C929FF1
S11315A0700C1124600E711E99E2E916F104A8F181
S11315B0C70143E0969587954A95E1F7829F4001DC
S11315C0839F900C929F900C11241401220C331CC5
S11315D0A801420D531DB801680D791D9601C8017B
S11315E00E94390A2C01A501480D591D919481943A
S11315F091089601B501C501880D991D0E94390A0B
S11316005C01B301680D791D9601A301C301821920
S113161093090E94390A3C0101C028019601A301E3
S1131620B501C2010E94390A5C0149855A85B50198
S1131630C8010E942D0A69807A802B813C814985EA
S11316405A85249FF001259FF00D349FF00D11243D
S1131650ED83FE835F01A00EB11E460D571D4B8323
S11316605C832501130119821A828B809C808985F1
S11316709A85881A990AA814B90408F450C0B801C4
S1131680C401F601099518161906C4F1892B71F4E1
S113169049855A85B401C1010E942D0A89859A851C
S11316A0280E391EE1E0F0E0E983FA832B813C81C6
S11316B049855A85240F351F2B833C83D6CFB80127
S11316C0C501F6010995950149855A85241B350BF9
S11316D02F83388797FD16C0892B71F449855A8565
S11316E0B201C5010E942D0A29853A85421A530A7E
S11316F041E050E049835A83AF80B884A814B90408
S1131700F0F60DC049855A85B501C4010E942D0A21
S1131710AF80B88441E050E049835A83C7CF8981C0
S11317209A81892B09F44FC06D807E8029853A8582
S1131730620E731E600E711E7401E218F308A1019B
S1131740401B510BE416F5060CF4A70114161506FC
S113175034F4B401641B750BC8010E942D0AA20164
S11317604A195B095A01A3014419550989859A85C7
S1131770481B590BA416B50608F4A5011416150642
S113178034F4B301641B750BC4010E942D0AE9856E
S1131790FA85EE15FF0548F4C701BF010E94180C35
S11317A09601AF01C8010E946E0A29853A852A155F
S11317B03B05A0F583010A191B09C501B9010E9463
S11317C0180C7B0196CEE985FA85EE9E5001EF9EBA
S11317D0B00CFE9EB00C1124A00EB11E6A147B0442
S11317E0E8F473010E151F0528F089859A85680EA3
S11317F0791EF4CF4701E985FA858E1A9F0AB7014D
S1131800C401F6010995181619067CF749855A850D
S1131810B401C7010E942D0A7401E4CF2A96E2E1C3
S11318200C94450CDC0128ED209334006C9308954E
S1131830AA1BBB1B51E107C0AA1FBB1FA617B707F2
S113184010F0A61BB70B881F991F5A95A9F780950E
S11318509095BC01CD0108952F923F924F925F92D3
S11318606F927F928F929F92AF92BF92CF92DF92AC
S1131870EF92FF920F931F93CF93DF93CDB7DEB711
S1131880CA1BDB0BCDBFDEBF09942A883988488880
S11318905F846E847D848C849B84AA84B984C88488
S11318A0DF80EE80FD800C811B81AA81B981CE0F7F
S11118B0D11DCDBFDEBFED010895F894FFCF2A
S10718BE0101FF0021
S9030000FC
