S02B0000646973742F52656C656173652F70726F64756374696F6E2F4D4355313632362E70726F64756374693F
S11300000C9443000C9460000C9460000C94600009
S11300100C9460000C9460000C9460000C946000DC
S11300200C94C0000C9460000C9460000C9460006C
S11300300C9460000C94F3000C941A010C9460006E
S11300400C949C000C9460000C9460000C94600070
S11300500C9460000C9460000C9460000C946D008F
S11300600C9460000C9460000C9460000C9460008C
S11300700C9460000C946000BD01EA01ED01EF01F5
S1130080F201F601F80111241FBECFEFCDBFDFE36B
S1130090DEBF18E3A0E0B8E3EEECF6E102C00590A1
S11300A00D92A430B107D9F728E3A4E0B8E301C066
S11300B01D92A03EB207E1F70E9493010C94650BD8
S11300C00C940000E0E0F4E0808180628083E0E44E
S11300D0F4E080818860808308951F920F920FB6A8
S11300E00F9211242F933F934F935F936F937F93BA
S11300F08F939F93AF93BF93EF93FF9380911406D5
S113010020911506E0E0F6E095819860958390E0F3
S1130110922B0E941802FF91EF91BF91AF919F9192
S11301208F917F916F915F914F913F912F910F909C
S11301300FBE0F901F9018951F920F920FB60F923B
S113014011248F938091C30886FF14C080912504E5
S11301508460809325048091C30880648093C308DD
S11301608091C2088F7B8093C208809126048460AA
S1130170809326048F910F900FBE0F901F901895B7
S11301801F920F920FB60F9211242F933F934F9308
S11301905F936F937F938F939F93AF93BF93CF930B
S11301A0DF93EF93FF93C0E0DAE08B8581608B8768
S11301B00E94B00390E08EA39FA3CB010E94A403EE
S11301C0FF91EF91DF91CF91BF91AF919F918F916B
S11301D07F916F915F914F913F912F910F900FBE3F
S11301E00F901F9018951F920F920FB60F92112423
S11301F06F937F938F939F93EF93FF93E0E8FAE0DD
S1130200868181608683809104388F5F809304386F
S11302108091043867E00E94230990930438FF9189
S1130220EF919F918F917F916F910F900FBE0F90DF
S11302301F9018951F920F920FB60F9211242F93AF
S11302403F934F935F936F937F938F939F93AF935A
S1130250BF93EF93FF938091AB0886FF14C0809106
S1130260AB0883FF07C08091AB0888608093AB081C
S113027082E046C08091AB0880FF02C083E001C0E9
S113028082E08093AA088091AB0887FF3BC08091ED
S1130290AB0881FF30C00E94E406813071F048F061
S11302A08230C9F0833019F50E9444028093AD086E
S11302B01EC0911115C080E003C0911111C081E0EE
S11302C00E940F028093183890931938809118383F
S11302D0909119380DC0911103C00E942E03F2CFE2
S11302E080911838909119389093AD0808C08BE02C
S11302F08093AD0804C08091AD080E94730683E02A
S11303008093AA08FF91EF91BF91AF919F918F9134
S11303107F916F915F914F913F912F910F900FBEFD
S11303200F901F90189560E081E690E00E941A0BF0
S11303300E9462000E9449070E9456070E946206BA
S11303400E9435060E9400030E9430020E94760338
S1130350789490910538809104389817D1F380915E
S1130360043880930538E0910538F0E0E730F10572
S113037080F7E45CFF4F0C942F090E942A076093D6
S11303802C3870932D3880932E3890932F38809189
S11303902C3840912F38440F60912E3880912D389D
S11303A090E8699FB0011124682B80912C38823029
S11303B059F020F4813069F680E007C0833041F0C1
S11303C0843039F683E001C081E00E941606C1CF73
S11303D082E0FBCF0E943303BCCF80E004C00E94C4
S11303E04702B7CF81E00E94FC01B3CF80E001C097
S11303F081E00E942202ADCF882311F098E001C071
S113040096E090930C0692E49A95F1F700C09091CF
S11304100A06916090930A06809306380895E82F9F
S1130420F0E0EE0FFF1FE05DF74C808191810895AD
S1130430E0910638F0E0EE0FFF1FE95FF74C808390
S11304409183089590E0880F991FFC01E05DF74CBB
S1130450DC01A95FB74C8D919C91808391830895B1
S1130460E0E0F6E080818162808381818183828102
S1130470806A8283808583608087828580618287A9
S1130480848182608483089580910B38089520913B
S1130490480480910D389091343823FF0CC041E01A
S11304A050E0082E01C0440F0A94EAF7409549230E
S11304B0409334380AC021E030E0082E01C0220FF6
S11304C00A94EAF7292B2093343890913438911107
S11304D004C090910C389E7F05C09F3F29F49091F1
S11304E00C38916090930C38209108049091353821
S11304F024FF0CC041E050E0082E01C0440F0A94D0
S1130500EAF740954923409335380AC021E030E0AA
S1130510082E01C0220F0A94EAF7292B20933538BC
S113052090913538911104C090910C389D7F05C08D
S11305309F3F29F490910C38926090930C3820914D
S113054048049091363820FF0CC041E050E0082E5A
S113055001C0440F0A94EAF7409549234093363882
S11305600AC021E030E0082E01C0220F0A94EAF705
S1130570292B2093363890913638911104C09091EC
S11305800C389B7F05C09F3F29F490910C389460F0
S113059090930C38209128049091373824FF0CC094
S11305A041E050E0082E01C0440F0A94EAF7409558
S11305B04923409337380AC021E030E0082E01C0B7
S11305C0220F0A94EAF7292B209337389091373871
S11305D0911104C090910C38977F05C09F3F29F476
S11305E090910C38986090930C388F5F877080934B
S11305F00D38F89480910C3880930B3878940895D2
S1130600E4E3F8E31082118212821382E0E4F4E05E
S11306108081877F808383898860838BA0E0B4E0B6
S11306208C918F7E8C9354968C91549788605496B9
S11306308C9380818E7F808380898860808BE0E2C8
S1130640F4E080818F7E808384898860848B87E84E
S113065093E10197F1F700C00000089580910F38ED
S11306609091103808958091480481FF02C093E06E
S113067001C090E08091280483FF02C081E09827A4
S113068080910E38891B80FF09C090930E38909199
S1130690383891508270890F8093383820913838D7
S11306A0222319F18091113890911238820F911DF3
S11306B027FD9A95893621E092071CF088569140CF
S11306C004C097FF02C088599E4F809311389093BD
S11306D0123810923838F894809111389091123869
S11306E080930F3890931038789408958091400443
S11306F08D7F8093400480915104886080935104DD
S113070080912004877F8093200480913304886043
S1130710809333048091480481FF02C083E001C0C8
S113072080E09091280493FF02C091E08927809390
S11307300E38109238380895FC01838190E0FB0153
S11307402381821B910908952091C30825FF07C0C6
S113075020E42093C2089093C4088093C4080895A9
S113076080911338882331F180911438811122C08B
S113077080E090E02091013830E082179307A4F4E0
S1130780FC01EE0FFF1FE80FF91FDF01A75CB74C58
S11307902D913C911197E35AF74C208331831296A3
S11307A02C9122830196E6CF809101388093003802
S11307B0109213388091143890E0FC01EE0FFF1F63
S11307C08E0F9F1FFC01E35AF74C20813181428137
S11307D0809114388F5F8093143860910038809131
S11307E014380E94230990931438842FB901089572
S11307F04F925F926F927F928F929F92AF92BF922D
S1130800EF92FF920F931F93CF937C012A013B0138
S1130810C22F2BE339E848E85CE3C301B2010E942C
S1130820B6084B015C0120E030E040E752E4C3012C
S1130830B2010E94D0070C2F10E087FF0FC0B8014F
S1130840110F880B990B0E940608A50194010E94C0
S1130850B6080E94D507862F6C2F23C020E030E015
S113086040EF52E4C301B2010E94D00787FF1BC0CE
S1130870B801110F880B990B0E9406082B013C014B
S1130880A501940160E070E080E090E40E946307B9
S11308909B01AC01C301B2010E94B6080E94D507B6
S11308A08C2FC0E089C020E030E044E353E4C3016E
S11308B0B2010E94D00787FF1BC0B801110F880B3B
S11308C0990B0E9406082B013C0120E030E040E037
S11308D050E4C501B4010E9463079B01AC01C3014C
S11308E0B2010E94B6080E94D5078C2FC62F23C0E0
S11308F020E030E040E753E4C301B2010E94D00796
S113090087FF1BC0B801110F880B990B0E940608C2
S11309102B013C01A501940160E070E080E890E4C3
S11309200E9463079B01AC01C301B2010E94B60897
S11309300E94D507862F60E03FC020E030E046E902
S113094053E4C301B2010E94D00787FF19C0B80164
S1130950110F880B990B0E9406082B013C0120E023
S113096030E040E850E4C501B4010E9463079B01F4
S1130970AC01C301B2010E94B6080E94D5071BC096
S1130980B801110F880B990B0E9406082B013C013A
S1130990A501940160E070E080EC90E40E9463079C
S11309A09B01AC01C301B2010E94B6080E94D507A5
S11309B0862F6C2FC82F80E0F70161838383C58362
S11309C0CF911F910F91FF90EF90BF90AF909F90A8
S11309D08F907F906F905F904F900895A1EBB8E354
S11309E081E08C93E1E8F8E3828382EB98E38083EF
S11309F0918382E012968C931297868384EB98E31A
S1130A008483958314961C921497128686EB98E33C
S1130A108087918786E016968C931697868788EB55
S1130A2098E38487958787E018968C931897828B30
S1130A308AEB98E3808B918B85E01A968C931A97B6
S1130A40868B8CEB98E3848B958B89E01C968C9336
S1130A501C97828F8EEB98E3808F918F8AE01E968D
S1130A608C931E97868F80EC98E3848F958F88E013
S1130A7050968C93509782A382EC98E380A391A321
S1130A808EE052968C93529786A384EC98E384A3C9
S1130A9095A38FE054968C93549782A786EC98E3A1
S1130AA080A791A78DE056968C9386A788EC98E34F
S1130AB084A795A7E9E3F8E31082118212820895CE
S1130AC01F93CF93DF9380E090E0FC01EE0FFF1FB4
S1130AD0EE0FFF1FEF57F74CA081B1812C912383B8
S1130AE001968C30910589F72CE933E044E050E01D
S1130AF06CE070E081E898E30E9476091092013876
S1130B0010923B3820E030E047EE57EE61E070E0B1
S1130B10D901AA0FBB1FAA0FBB1FED01CF57D74C9A
S1130B208B818F3F09F443C01B818091013890E091
S1130B30FC01EE0FFF1F8E0F9F1FFC01E75CF74CBB
S1130B408281811790F4809101388F5F80930138FE
S1130B508091013890E0CB81FC01EE0FFF1F8E0FD6
S1130B609F1FFC01E75CF74CC283AF57B74C12964A
S1130B708C91FB0102C0EE0FFF1F8A95E2F7CF01B3
S1130B8080959095482359238091013890E0FC0189
S1130B90EE0FFF1F8E0F9F1FFC01E75CF74C408395
S1130BA051832F5F3F4F2C30310509F0B1CF809135
S1130BB001388F5F8093013880E090E060E02091FD
S1130BC0013830E0821793076CF54091013850E00A
S1130BD0415051099C01220F331FDC0111968417E7
S1130BE0950741F4F901E80FF91FE75CF74C462F2C
S1130BF040950EC0FD01EE0FFF1FEA0FFB1FE75CDF
S1130C00F74C4281461BF901E80FF91FE75CF74CEA
S1130C104283820F931FFC01E75CF74C8281680FCB
S1130C20CD01CDCFDF91CF911F910895CF93DF9365
S1130C30C82FD42F1092133880E090E00E9404084B
S1130C40AB01BC0126E0C29FC00111242D2F8F549B
S1130C50974C0E94F8030E946005F89481E0809309
S1130C6013387894DF91CF910895E0E0F4E0808127
S1130C708A608083E0E2F4E0808184608083E0EC39
S1130C80F8E080E2808384E88183808181608083CE
S1130C900E94EE0440E060E070E080E00E941606EE
S1130CA040E060E070E081E00E94160640E060E011
S1130CB070E082E00E94160640E060E070E083E0AD
S1130CC00C941606E0EAF8E089E0848783EE8187D5
S1130CD0E9ECF8E381E0808382E0848383E0808729
S1130CE084E0848708959091173887FF4CC0911150
S1130CF06AC010921538109216389FEF90930238FC
S1130D008F778C32C9F048F4863191F0813291F0BA
S1130D108B3009F058C081E033C08234B9F018F444
S1130D20873361F008958D34D1F0883509F1089541
S1130D3084E026C082E024C083E022C08091C938C8
S1130D4087FD41C01092023885E01AC08091CD38E9
S1130D5087FD39C081E08093023886E011C080911C
S1130D60D13887FD30C082E08093023887E008C024
S1130D708091D53887FD27C083E08093023888E0CE
S1130D8080931738089595509430C8F4E091023850
S1130D909091163824E0E29FF0011124E753F74CB8
S1130DA0DF01A90FB11D11968C9381E0890F809307
S1130DB01638833040F080818068808302C01092AE
S1130DC0163810921738089580911738823039F107
S1130DD018F4813031F038C0833081F1843081F0EF
S1130DE033C09091153881E0890F823018F48093D4
S1130DF0153804C0109215381092173880E0089501
S1130E009091153881E0890F823018F48093153859
S1130E1004C0109215381092173881E0089590910B
S1130E20153881E0890F823018F48093153804C096
S1130E30109215381092173882E0089510921538E0
S1130E401092173883E008951092153810921738CD
S1130E5084E00895E9ECF8E320E030E0F894608160
S1130E6067FF0EC0220F331F220F331FF901E75310
S1130E70F74C6F77608371818281938178940895B0
S1130E8078942F5F3F4F34962530310539F76FEF53
S1130E900895E0E0FAE081E090E086A397A38285DC
S1130EA08160828780818D6080830895E0E8FAE024
S1130EB088E090E08487958785818160858380813F
S1130EC08560808308955058BB27AA270E947B071A
S1130ED00C947C080E946E0838F00E94750820F07B
S1130EE039F49F3F19F426F40C946B080EF4E09542
S1130EF0E7FB0C946508E92F0E948D0858F3BA1794
S1130F00620773078407950720F079F4A6F50C941B
S1130F10AF080EF4E0950B2EBA2FA02D0B01B901EA
S1130F2090010C01CA01A0011124FF27591B99F05B
S1130F30593F50F4503E68F11A16F040A22F232F67
S1130F40342F4427585FF3CF469537952795A795B7
S1130F50F0405395C9F77EF41F16BA0B620B730B5E
S1130F60840BBAF09150A1F0FF0FBB1F661F771FCF
S1130F70881FC2F70EC0BA0F621F731F841F48F484
S1130F80879577956795B795F7959E3F08F0B0CF0D
S1130F909395880F08F09927EE0F979587950895F4
S1130FA00E94410808F481E008950E94950888F0A1
S1130FB09F5798F0B92F9927B751B0F0E1F0660F19
S1130FC0771F881F991F1AF0BA95C9F714C0B1305A
S1130FD091F00E94AF08B1E008950C94AF08672F18
S1130FE0782F8827B85F39F0B93FCCF38695779589
S1130FF06795B395D9F73EF4909580957095619572
S11310007F4F8F4F9F4F0895E89409C097FB3EF49C
S113101090958095709561957F4F8F4F9F4F992341
S1131020A9F0F92F96E9BB279395F69587957795BF
S11310306795B795F111F8CFFAF4BB0F11F460FF7F
S11310401BC06F5F7F4F8F4F9F4F16C0882311F0D7
S113105096E911C0772321F09EE8872F762F05C0EB
S1131060662371F096E8862F70E060E02AF09A9586
S1131070660F771F881FDAF7880F9695879597F97B
S11310800895990F0008550FAA0BE0E8FEEF161615
S11310901706E807F907C0F012161306E407F50768
S11310A098F0621B730B840B950B39F40A2661F0DC
S11310B0232B242B252B21F408950A2609F4A1407F
S11310C0A6958FEF811D811D089597F99F6780E88C
S11310D070E060E008959FEF80EC089500240A9486
S11310E01616170618060906089500240A941216FF
S11310F01306140605060895092E0394000C11F432
S1131100882352F0BB0F40F4BF2B11F460FF04C0DE
S11311106F5F7F4F8F4F9F4F089557FD9058440F37
S1131120551F59F05F3F71F04795880F97FB991F42
S113113061F09F3F79F087950895121613061406FF
S1131140551FF2CF4695F1DF08C01616170618068C
S1131150991FF1CF86957105610508940895E89467
S1131160BB2766277727CB0197F908950E94C90802
S11311700C947C080E946E0838F00E94750820F0D8
S1131180952311F00C9465080C946B0811240C94AD
S1131190B0080E948D0870F3959FC1F3950F50E03D
S11311A0551F629FF001729FBB27F00DB11D639F15
S11311B0AA27F00DB11DAA1F649F6627B00DA11DBB
S11311C0661F829F2227B00DA11D621F739FB00D61
S11311D0A11D621F839FA00D611D221F749F3327D1
S11311E0A00D611D231F849F600D211D822F762F6A
S11311F06A2F11249F5750409AF0F1F088234AF047
S1131200EE0FFF1FBB1F661F771F881F91505040B2
S1131210A9F79E3F510580F00C9465080C94B00822
S11312205F3FE4F3983ED4F3869577956795B79539
S1131230F795E7959F5FC1F7FE2B880F911D969553
S1131240879597F90895991B79E004C0991F96171B
S113125008F0961B881F7A95C9F780950895EE0FBC
S1131260FF1F0590F491E02D0994DC01FB018C91A2
S113127090819D9381934150510914161506BCF336
S11312800895A0E0B0E0E7E4F9E00C943E0B7C01A3
S11312906B01D42FC52F8901F90109956D2F7C2F7E
S11312A097FF10C0C601F801099597FF02C0C60157
S11312B018C06D2F7C2FC701F801099597FD0FC049
S11312C0C7010FC0C601F8010995181619067CF369
S11312D06D2F7C2FC701F801099597FDF1CF8D2F54
S11312E09C2FCDB7DEB7E8E00C94570BAAE0B0E032
S11312F0ECE7F9E00C94340B8C017B0149875A87A5
S1131300690129853A85200F311F29833A8337E003
S1131310E316F10470F569807A8049855A85E49E64
S11313205001E59EB00CF49EB00C1124A00EB11E29
S11313306A147B0408F07AC173010E151F0528F0A6
S113134089859A85680E791EF3CF4701E985FA8568
S11313508E1A9F0AB701C401F601099518161906D9
S11313607CF749855A85B401C7010E943509740187
S1131370E4CFC7019695879529853A85829F5001C8
S1131380839FB00C929FB00C1124A00EB11EA70134
S1131390415051094B835C8357E0E516F10409F48D
S11313A04CC08B819C81829F3001839F700C929FE3
S11313B0700C1124600E711E99E2E916F104A8F173
S11313C0C70143E0969587954A95E1F7829F4001CE
S11313D0839F900C929F900C11241401220C331CB7
S11313E0A801420D531DB801680D791D9601C8016D
S11313F00E9441092C01A501480D591D9194819425
S113140091089601B501C501880D991D0E944109F5
S11314105C01B301680D791D9601A301C301821912
S113142093090E9441093C0101C028019601A301CE
S1131430B501C2010E9441095C0149855A85B50183
S1131440C8010E94350969807A802B813C814985D5
S11314505A85249FF001259FF00D349FF00D11242F
S1131460ED83FE835F01A00EB11E460D571D4B8315
S11314705C832501130119821A828B809C808985E3
S11314809A85881A990AA814B90408F450C0B801B6
S1131490C401F601099518161906C4F1892B71F4D3
S11314A049855A85B401C1010E94350989859A8507
S11314B0280E391EE1E0F0E0E983FA832B813C81B8
S11314C049855A85240F351F2B833C83D6CFB80119
S11314D0C501F6010995950149855A85241B350BEB
S11314E02F83388797FD16C0892B71F449855A8557
S11314F0B201C5010E94350929853A85421A530A69
S113150041E050E049835A83AF80B884A814B904F9
S1131510F0F60DC049855A85B501C4010E9435090C
S1131520AF80B88441E050E049835A83C7CF8981B2
S11315309A81892B09F44FC06D807E8029853A8574
S1131540620E731E600E711E7401E218F308A1018D
S1131550401B510BE416F5060CF4A70114161506EE
S113156034F4B401641B750BC8010E943509A2014F
S11315704A195B095A01A3014419550989859A85B9
S1131580481B590BA416B50608F4A5011416150634
S113159034F4B301641B750BC4010E943509E98559
S11315A0FA85EE15FF0548F4C701BF010E94200B20
S11315B09601AF01C8010E94760929853A852A154A
S11315C03B05A0F583010A191B09C501B9010E9455
S11315D0200B7B0196CEE985FA85EE9E5001EF9EA5
S11315E0B00CFE9EB00C1124A00EB11E6A147B0434
S11315F0E8F473010E151F0528F089859A85680E95
S1131600791EF4CF4701E985FA858E1A9F0AB7013E
S1131610C401F6010995181619067CF749855A85FF
S1131620B401C7010E9435097401E4CF2A96E2E1AE
S11316300C944D0BDC0128ED209334006C93089539
S1131640AA1BBB1B51E107C0AA1FBB1FA617B707E4
S113165010F0A61BB70B881F991F5A95A9F7809500
S11316609095BC01CD0108952F923F924F925F92C5
S11316706F927F928F929F92AF92BF92CF92DF929E
S1131680EF92FF920F931F93CF93DF93CDB7DEB703
S1131690CA1BDB0BCDBFDEBF09942A883988488872
S11316A05F846E847D848C849B84AA84B984C8847A
S11316B0DF80EE80FD800C811B81AA81B981CE0F71
S11116C0D11DCDBFDEBFED010895F894FFCF1C
S10716CE0101FF0013
S9030000FC
