:100000000C9445000C9474070C9474070C947407BA
:100010000C9474070C9474070C9474070C94740774
:100020000C9407060C9474070C9474070C947407D2
:100030000C9474070C9424060C9486010C94740799
:100040000C943F060C9474070C9474070C9474077A
:100050000C9474070C9474070C9474070C94740734
:100060000C9474070C9474070C9474070C94740724
:100070000C9474070C9474073800388D80388D38D0
:100080008E000EFA388E389A800011241FBECFEFF2
:10009000CDBFDFE3DEBFE8E7F0E040E017C0B59199
:1000A000A59135912591059107FD0CC095918591FC
:1000B000EF01F92FE82F05900D92A217B307D9F79A
:1000C000FE0104C01D92A217B307E1F7E938F40757
:0E00D00031F70E946E040C944707F894FFCF9E
:1000DE00A8E3B0E0E5E7F0E00C9459063C014A01D4
:1000EE001901869EA001879E500D969E500D1124DB
:1000FE0081E090E089AB9AAB1BAA1CAA4115510571
:10010E0009F4F9C0CA01881999099301280F391FFA
:10011E002DAB3EAB8B829C8289829A82FE013196F8
:10012E002F0181919191880D991D20813181820F2E
:10013E00931F828393838417950798F3AA24A3941D
:10014E00B12CEDA9FEA96E167F0608F05AC089A93A
:10015E009AA983709927039789F482019501A101C9
:10016E00B401C3010E949B0362E070E0CE01C19610
:10017E000E94DB0532E0A30EB11C3BC0C501019706
:10018E008FAB98AFFC01EE0FFF1FE40DF51D208124
:10019E0031818DA99EA9861997092817390768F00C
:1001AE006201E12CF12C85019E012F5C3F4FA101D4
:1001BE00B401C3010E94610207C082019501A10131
:1001CE00B401C3010E949B03AA94AB2849F461E0D9
:1001DE0070E0CE01C1960E94AF05A12CB12C09C0D2
:1001EE006FA978ADCE01C1960E94AF05AA24A39443
:1001FE00B12C89A99AA9816089AB9AAB680C791C3C
:10020E00A0CF6201E12CF12C85019E012F5C3F4FA6
:10021E00A101B401C3010E946102F1E0AF16B10465
:10022E0009F45FC084F4CE01C1960E94CD048C0106
:10023E00BC01CE01C1960E94DB059501200F311F36
:10024E002DAB3EAB49C062E070E0CE01C1960E947C
:10025E00AF05C50102978DAB9EAB89A99AA9E7E0C0
:10026E008E2789AB9AAB61E070E0CE01C1960E94F9
:10027E00DB05850101501109EDA9FEA9EE0FFF1F47
:10028E00E40DF51D80819181880D991D6201EE248A
:10029E00E394F12C9E012F5C3F4FA101B401F301B9
:1002AE00E81BF90BCF010E94610261E070E0CE0104
:1002BE00C1960E94AF0589A99AA9816089AB9AABB4
:1002CE000DA91EA99E012F5C3F4FA101B401C301D0
:1002DE00881999090E94610268187908ADA8BEA80C
:1002EE009CCF89A99AA9019709F09DCF8BA99CA9AA
:0E02FE00892B09F098CFE896E2E10C948A066D
:10030C001F920F920FB60F9211242F933F934F937E
:10031C005F936F937F938F939F93AF93BF93EF9361
:10032C00FF938091AB0886FF04C08091AB0880FDE1
:10033C0063C08091AB0887FD1EC08091AB0886FF1F
:10034C0009C08091AB0880FD05C082E08093AA08AB
:10035C0010929038FF91EF91BF91AF919F918F9137
:10036C007F916F915F914F913F912F910F900FBEA5
:10037C000F901F9018958091AB0881FD4CC0809117
:10038C00AD0890918F38913009F48BC008F459C0A6
:10039C00923059F560919238462F437040939238C1
:1003AC00282F2F70220F220F90E1499FA0011124BA
:1003BC0082958F70482B66956695E0919438F0E0A5
:1003CC00ED57F74C80810E947607809194388F5FAF
:1003DC008093943890919338891708F468C01092E0
:1003EC008F38109294381092933883E08093AA0837
:1003FC0081E080939138AECF83E08093AA0810926D
:10040C00953881E08093903810928F381092943800
:10041C00109293389FCF10928F38809195380E940C
:10042C0068078093AD0883E08093AA088091953883
:10043C008F5F803118F0109295388CCF809395385F
:10044C0089CF982F92959F70953009F591E09093F4
:10045C008F388F7090E04091933820E030E0BC01F1
:10046C00022E02C0759567950A94E2F760FF06C0EC
:10047C00E42FF0E0ED57F74C20834F5F2F5F3F4F99
:10048C002430310561F7409393384111AECF10926F
:10049C008F38109294381092933887E08093AA0882
:1004AC0059CF8093923882E080938F389ECF81E031
:0604BC0080938F389ACFF7
:1004C200A4E4B0E0E7E6F2E00C9459065C013B01DB
:1004D2002A0148011601F901808191818BAF9CAFFD
:1004E200828193818DAF9EAFA982BA829E012D5FD8
:1004F2003F4F21962EAF3FAF2197CC24C394D12CEE
:1005020088279927861B970B25968EAF9FAF259735
:100512008BAD9CAD019709F460C0C401880F991F8F
:10052200F101E80FF91F2396EEAFFFAF2397808109
:1005320091818501081B190B69817A81C801F20139
:100542000995181619062CF0E114F10409F059C0A6
:100552004AC0EF28E9F0FFEFCF1ADF0A2196EEAD8D
:10056200FFAD2197019311932196EEAFFFAF219733
:10057200CE01CB960E94CD047C01BC01CE01CB966C
:100582000E94DB058E0C9F1CE12CF12C5801C0CF80
:10059200F2E08F169104FCF22396EEADFFAD2397A5
:1005A2003497808191812596EEACFFAC2597E81AAD
:1005B200F90AEA0CFB1CB80125968EAD9FAD259772
:1005C2008A0D9B1DF201099597FF0DC0B801C70165
:1005D200F201099597FDBFCF06C08DAD9EAD892B67
:1005E20009F09BCFB1CFA601BE016F5F7F4FC30160
:1005F2000E942A0581019401A201B301C5010E9452
:0C0602009B03CC5BDF4FE2E10C948A0606
:10060E000F931F93CF93DF9380918E3881110DC07E
:10061E0010928C38609100387091013880910238B8
:10062E00DF91CF911F910F9108950E94A206109213
:10063E008E38EFE3F8E3C7E2D8E3DE0180818C93D6
:10064E00818111968C9311973296129688E3E73535
:10065E00F807A1F72CEC36E042E050E06CE070E0D9
:10066E0087E298E30E946F000E94A2060E94B706DE
:10067E001092023887EE97EE8093003890930138EF
:10068E0060E041E050E019C02D913C918E0F9F1F0C
:10069E00FC01E050F84CCA01088002C0880F991F77
:1006AE000A94E2F78095909528233923208331838D
:1006BE002296B8E3CF33DB0789F12981203470F518
:1006CE00862F90E0FC01EE0FFF1FDF01A80FB91F70
:1006DE00A050B84C12963C9112973217A8F66F5F45
:1006EE00862F90E0FC01EE0FFF1F8F01080F191FE0
:1006FE000050184CD80112962C939C0121503109B0
:10070E00D901AA0FBB1F2A0F3B1FD901A050B84C0D
:10071E002D913C91D8012D933C93B8CF6F5F609390
:08072E008D380E94B70674CF5C
:10073600A0E4B0E0E1EAF3E00C9459063B011A01AB
:1007460079010DAF1EAF89839A838E010F5F1F4F0C
:1007560032E0832E912C0FAF21961FAF21974424B0
:100766005524461A570AF4013197EBAFFCAFF2E075
:10077600EF16F1047CF15C01A40CB51CF701E25004
:10078600F048EE0FFF1F2DAD3EADE20FF31F2081A7
:1007960031816201C21AD30AC80ED91EB6018981F7
:1007A6009A81F101099597FF0EC0B501C601F101C5
:1007B600099597FD1DC0F801C282D382F1E0EF1AB8
:1007C600F10856011BC0B50189819A81F10109958D
:1007D60097FDEBCF4BAD5CAD6FAD21967FAD21970D
:1007E600C3010E942A05C05CDF4FE2E10C948A0631
:1007F600F801A282B382F2E0EF1AF1082FEF821A13
:0A080600920A0E5F1F4FC501AECF2E
:10081000AFE3B8E381E08C93E7E5F8E380E498E3A5
:100820008083918382E012968C93129782E498E3FE
:100830008283938314961C92149784E498E38483B0
:10084000958386E016968C93169786E498E38683C4
:10085000978387E018968C93189788E498E38087AD
:10086000918785E01A968C931A978AE498E3828799
:10087000938789E01C968C931C978CE498E384877B
:1008800095878AE01E968C931E978EE498E3868760
:10089000978788E050968C93509780E598E3808BFB
:1008A000918B8EE052968C93529782E598E3828BDF
:1008B000938B8FE054968C93549784E598E3848BC4
:1008C000958B8DE056968C9386E598E3868B978B77
:0C08D000E0E0F8E310821182128208952B
:1008DC0060E081E690E00E946E07809101048064E4
:1008EC0080930104809121048062809321040E94F2
:1008FC0021070E942E0781E00E94E0060E946E05EF
:10090C007894809197389091963809C09091893855
:10091C00891791F1982F10928A3810928B38891779
:10092C00D1F3809396388111F1CF2CE04EE366E33E
:10093C000E94720628E04BE162E281E00E9472069E
:10094C002DE04BE263E182E00E94720622E046E376
:10095C0065E283E00E9472060E9407036093873869
:10096C007093883880938938CB010E943B07809123
:10097C00973890919638CFCF80918738909188385E
:0E098C000E943B078091973890919638C4CF17
:10099A00CF93DF93FC01808191810197A0E0B0E0C1
:1009AA0044275527BA01481B590B6A0B7B0B9A013E
:1009BA00AB01282339234A235B2369E276EE8BE6CF
:1009CA0097E00E940207DC01CB013BE1B695A795AF
:1009DA00979587953A95D1F7DC01AC51B247CC91FE
:1009EA000C2E000CDD0B209761F582819381A0E02B
:1009FA00B0E044275527BA01481B590B6A0B7B0BF9
:100A0A009A01AB01282339234A235B2369E276EE54
:100A1A008BE697E00E940207DC01CB012BE1B69539
:100A2A00A795979587952A95D1F7FC01EC51F2473E
:100A3A008081082E000C990B40968031910509F0AF
:0A0A4A00EC01CE01DF91CF91089579
:100A5400A0E0B1E0E0E3F5E00C945F066C015B011B
:100A640042305105ACF1440F551F8B01040F151F83
:100A7400CE010196F80180839183C114D10441F120
:100A84007601F1E0CF16DF0618F0E12CFF24F39491
:100A9400F50160817181A701F801808191810E9433
:100AA40052074501F40162817381A701808191811C
:100AB4000E945207F401808191818E0D9F1D8193C4
:100AC40091934F01E017F10769F7CE18DF08D5CFEE
:080AD400D395ECE00C949006B0
:100ADC00E0E0F4E080818A608083E0E2F4E08081F1
:100AEC0084608083E0ECF8E080E2808384E881839A
:100AFC008081816080830E940804E7E5F8E3A0818F
:100B0C00B1811C92A281B3811C92A481B5811C92EB
:100B1C00A681B7811C92A085B1851C92A285B38554
:100B2C001C92A485B5851C92A685B7851C92A089BC
:100B3C00B1891C92A289B3891C92A489B5891C9293
:100B4C000688F789E02D108281E080938E380C9412
:020B5C0007038D
:100B5E00FC016031710540F0605171098081918115
:100B6E0082839383108211828081918122813381CD
:100B7E00062E02C0220F331F0A94E2F740E150E026
:100B8E00461B570BDC0102C0B695A7954A95E2F7B6
:100B9E002A2B3B2B2283338302C0880F991F6A9521
:080BAE00E2F7808391830895B2
:100BB600FC016031710540F06051710982819381B9
:100BC6008083918312821382828193812081318175
:100BD600062E02C0369527950A94E2F740E150E0CA
:100BE600461B570BDC0102C0AA0FBB1F4A95E2F752
:100BF6002A2B3B2B2083318302C0969587956A95D5
:080C0600E2F782839383089555
:100C0E001F921FB61F9211248F9380910B0A816041
:100C1E0080930B0A809197388F5F813438F0109251
:100C2E0097388F911F901FBE1F90189580939738FD
:0A0C3E008F911F901FBE1F901895A4
:100C48008F938FB78F939F93EF93FF93E0E8FAE02A
:100C580086818160868380918A3890918B3801964D
:100C680080938A3890938B38FF91EF919F918F9161
:060C78008FBF8F9118955B
:100C7E008F938FB78F938091C30886FF0FC080919B
:100C8E0025048460809325048091C308806480933A
:100C9E00C308809126048460809326048F918FBFB1
:040CAE008F91189575
:100CB2002F923F924F925F926F927F928F929F926A
:100CC200AF92BF92CF92DF92EF92FF920F931F9358
:100CD200CF93DF93CDB7DEB7CA1BDB0BCDBFDEBF31
:020CE200099473
:100CE40090E0FC01EE0FFF1FE80FF91FEE0FFF1F4E
:100CF400E95AF74CA081B1816C93A281B3814C93E2
:100D04000480F581E02D208381E080938E3808955E
:100D14002A88398848885F846E847D848C849B8487
:100D2400AA84B984C884DF80EE80FD800C811B8195
:100D3400AA81B981CE0FD11DCDBFDEBFED010895CB
:100D440080919938882341F0809124048F7D809389
:100D5400240410929938089581E080939938809101
:0A0D640024048062809324040895A3
:100D6E0080919838882341F010929838809104042D
:100D7E008F7B80930404089581E08093983880914E
:0A0D8E0004048064809304040895B7
:100D9800FC012181FB01918161E070E0921710F064
:100DA80060E070E041E050E0291710F040E050E0CA
:080DB800CB01841B950B08958B
:100DC000880F8160E0EAF8E0848783EE8187EFE6B0
:100DD000F8E381E0808382E0848383E0808784E09D
:040DE0008487089567
:100DE400000117021D1813031E1B190B1408040D10
:100DF4001F161C121A0A070C1511090610050F0EEE
:100E0400DB018F939F930E945D07BF91AF91A29FD7
:100E1400800D911DA39F900DB29F900D11240895F4
:100E2400A29FB001B39FC001A39F700D811D112427
:0E0E3400911DB29F700D811D1124911D089516
:100E4200E0E0FAE087E190E086A397A382858160E3
:0A0E5200828780818B608083089501
:100E5C00E0E8FAE080E197E28487958785818160FC
:0A0E6C0085838081836080830895F0
:100E76002091C30825FF07C020E42093C208909361
:080E8600C4088093C40808951C
:100E8E00EC010E947B070E947A07CE010E947C072C
:060E9E00CE010E9478075E
:100EA400FB01DC01480F591FA417B50719F0219164
:060EB4002D93FACF089512
:100EBA000E941207A59F900DB49F900DA49F800DCC
:060ECA00911D11240895A2
:0C0ED000880F982F990F990F890F089533
:0C0EDC00DC0128ED209334006C93089595
:040EE8000C94000066
:040EEC000C947206EA
:040EF0000E946D00EF
:020EF40008955F
:020EF60008955D
:020EF80008955B
:010EFA0001F6
:00000001FF
