:0200000460009A
:100000004643464200000156000000000101020084
:1000100000000000000000000000000000000000E0
:1000200000000000000000000000000000000000D0
:1000300000000000000000000000000000000000C0
:1000400000000000010403000000000000000000A8
:100050000000800000000000000000000000000020
:100060000000000000000000000000000000000090
:100070000000000000000000000000000000000080
:10008000EB04180A063204260000000000000000FD
:10009000050404240000000000000000000000002F
:1000A0000000000000000000000000000000000050
:1000B0000604000000000000000000000000000036
:1000C0000000000000000000000000000000000030
:1000D00020041808000000000000000000000000DC
:1000E0000000000000000000000000000000000010
:1000F0000000000000000000000000000000000000
:10010000D8041808000000000000000000000000F3
:100110000204180804200000000000000000000095
:1001200000000000000000000000000000000000CF
:10013000600400000000000000000000000000005B
:1001400000000000000000000000000000000000AF
:10015000000000000000000000000000000000009F
:10016000000000000000000000000000000000008F
:10017000000000000000000000000000000000007F
:10018000000000000000000000000000000000006F
:10019000000000000000000000000000000000005F
:1001A000000000000000000000000000000000004F
:1001B000000000000000000000000000000000003F
:1001C000000100000010000001000000000000001D
:1001D000000001000000000000000000000000001E
:1001E000000000000000000000000000000000000F
:1001F00000000000000000000000000000000000FF
:10020000FFFFFFFFFFFFFFFFFFFFFFFFFFFFFFFFFE
:10021000FFFFFFFFFFFFFFFFFFFFFFFFFFFFFFFFEE
:10100000D10020402C100060000000000000000013
:1010100020100060001000600000000000000000D0
:1010200000000060B89700000000000000000120F0
:1010300035100060774B4FF42A01774A77485A649D
:101040001864774A99639546764A03F530337649B2
:1010500008208A42C3F854010FD0744B9A420CD234
:10106000D4430846234423F0030304330B4450F8CD
:10107000041B984242F8041BF9D16D4A6D498A421B
:101080000FD06D4B9A420CD2D4430846234423F030
:10109000030304330B4450F8041B984242F8041B2A
:1010A000F9D1664A664B9A420BD2D04311460024CE
:1010B000034423F003030433134441F8044B8B42ED
:1010C000FBD1604A4FF470015F4B116003F5307142
:1010D0005E4A43F8042F9942FBD15D4B80215D4A63
:1010E00003F8011B9342FBD15B4C4FF080375B4E02
:1010F0004FF0FF32DFF8A4A10025DFF8A491DFF85C
:10110000A481574B4349C3F800A0C4F80471C4F844
:101110000091C4F8F470C4F8F080F36923F07F0301
:1011200043F04003F361736A23F07F0343F040030D
:1011300073628A66CA660A674A6700F0E1F8494A3C
:101140006320494B4949106003221D60CAF83810DA
:1011500043F8082C4649474A4748C3F8082D0B680E
:10116000464A43F08073CAF83C0045480B60136858
:10117000444943F00103136003680B6000F0FAFA7E
:10118000C4F804714048C4F80091C4F8F470C4F87D
:10119000F08000F091FC00BF00BF00BF00BFF16E07
:1011A0003A4A41F440513A4BF1661560C2F8085191
:1011B000C2F81851C2F82851C2F838519A6BD207B8
:1011C00008D442F61562334959651A659A6B42F0A4
:1011D00001029A632E4A304C936843F001139360E6
:1011E00000F00AF900F074FC2368132BFCD900F01E
:1011F00081FB00F059F800F077FC00F0EDFA00F008
:101200006BFC2368B3F5967FFBD300F05DFC00F028
:1012100067FCFEE700C00A40ABAAAAAA07002000AC
:101220000080072000000000101B0060E86A00003A
:1012300000000020FC850060C0110020C0110020CB
:10124000C032002088ED00E0FC170020E1410000E2
:1012500000E400E0A0E400E000800D4000C00F408A
:1012600008ED00E014E000E018E000E0D5540000D4
:10127000FCED00E000002020D9540000001000E048
:10128000041000E0D41300200046C32300400840AF
:1012900000400D400000C056DC1300200018002064
:1012A0001B1018200C0D1113114B1249D86E0A4651
:1012B00040F4403030B4D86640F23765D86EA02490
:1012C00040F44070D8664D648C64936C1B06FCD46B
:1012D000094B40F23760A0211A4658649964936C18
:1012E00013F08003FBD1054A137030BC704700BF78
:1012F00000C00F4000400C4000800C40D013002084
:10130000F0B5284A0020284B4FF0100C274C11272D
:10131000DFF8D8E0122620600125C2F800C0C3F82B
:1013200000E01760DFF8C8E0214FC3F800E0166066
:101330001F60204E204F166020491F60204E41F054
:101340001501204F16601F6007F540371E4E1160D3
:1013500002371E60DFF89CE01C4E1D49C2F800E019
:101360001F6016601B4F19601B4E1C4917601E60E2
:101370001B4F11601B4E1C491F60166019602560D1
:10138000BFF34F8FBFF36F8FC3F8B001BFF34F8F21
:10139000BFF36F8F52F8883C43F4403342F8883CE7
:1013A000F0BD00BF9CED00E0A0ED00E094ED00E09A
:1013B000090010001300200021000207C0320020A5
:1013C0001400002025000813090000101700004039
:1013D00033001013180000602F000B071900007075
:1013E00037000B171A0000702F000B133F0000107E
:1013F0002500080316002020F0B5B84B1822B84E7F
:101400000120B84948F20C7EB74D4FF0FF37B74C7A
:10141000C3F85C12C3F860520025C3F86412C3F825
:1014200068424FF40054C3F86C62B149C3F870626B
:10143000C3F87462C3F87862AE4EDA661A675A6708
:101440009A67DA67C3F88020C3F88420C3F888203D
:1014500040F20562C1F82C03C1F83003C1F834032F
:10146000C1F83803C1F83C03C1F850032946B369F9
:10147000A1481840A14B0343A148B361D6F884307A
:1014800043F00C03C6F8843002260368334303603C
:10149000036803EA0E0E9B4B4EEA0303DFF89CE25F
:1014A0000360994B4760DEF808703B40974F43F06C
:1014B00000538360C36823F07803C360036A1F404E
:1014C000934B3B43914F0362036A1F40904B3B4356
:1014D000904F43628762C762DEF8B8308E4F23F0C8
:1014E0003F0343F00103C0F8B830DEF8BC30DFF84A
:1014F00034E223F03F0343F00103C0F8BC30056140
:1015000004660767C0F8802044664767C0F88420F7
:101510000468824B24F00204814A0460C0F818E099
:10152000C66143F8041B9342FBD1754B1A681946F8
:1015300042F001021A600B68714A13F00103FAD1FC
:10154000784E022540F2F56440F2664040F299413F
:10155000754F966142F20146D56140F23545C2F8B9
:10156000004242F20124C2F810020120C2F8201207
:101570001146C2F8307207F15A47C2F8346207F5D3
:101580001377C2F84052694E694DC2F85072C2F8E2
:101590005462C2F86052C2F86442C2F8A030C2F885
:1015A000A430C2F8B0004B69554ADD07FBD50123D2
:1015B00000244FF4803011465361C2F8A040C2F8B5
:1015C000A400C2F8B0304B694D4ADC07FBD50123BB
:1015D00000244FF4003011465361C2F8A040C2F815
:1015E000A400C2F8B0304B69454AD807FBD50123A7
:1015F0000024504811465361C2F8A040C2F8A4002C
:10160000C2F8B0304B693E4ADB07FBD5D2F8003157
:1016100045F60D5121209BB250618B4200D0F0BDA8
:1016200000244FF4802001231146C2F8A040C2F8E4
:10163000A400C2F8B0304B69314ADF07FBD5012363
:101640004FF40004002011465361C2F8A040C2F8D4
:10165000A400C2F8B0304B69294ADE07FBD501234C
:101660004FF400044FF4803011465361C2F8A0409B
:10167000C2F8A400C2F8B0304B69214ADD07FBD59F
:1016800001234FF400044FF4003011465361C2F8B7
:10169000A040C2F8A400C2F8B0304B69184ADC0779
:1016A000FBD501234FF40004224811465361C2F8D0
:1016B000A040C2F8A400C2F8B0304B69104AD80765
:1016C000FBD5D2F8003145F60D5121209BB2506177
:1016D0008B4235D0184B08221A70F0BD00801F4095
:1016E000F9700100F9B00100F9100100F9000100E2
:1016F00000841F4000C00F40FFFCFF1F000300A03C
:1017000000402A401200FFFFFF37F70000FFF07C87
:1017100040000080FF000F836300020000422A4067
:1017200000432A40F05AF05A9F041830063201262E
:101730003806180A04000300E013002000802A4045
:101740004FF400044FF4802001231146C2F8A0405A
:10175000C2F8A400C2F8B0304B69044ADB07FBD5DD
:101760000120034B102150611970F0BD00402A4048
:10177000E0130020F0B4174A40274FF480314FF4B3
:1017800080564FF400554FF4404443F24200136931
:1017900013F0020F06D0946151619061136913F048
:1017A000020FF8D113F4005F01D15561EFE713F494
:1017B000805F01D15661EAE7002BE8DA13F4803F3D
:1017C00001D09161E3E75B0601D45761DFE7F0BC2C
:1017D000704700BF00800D403B4AF3EE096A3B4969
:1017E00000201368F0B523F001030324DFF800E1C3
:1017F0001360C2F89040D1F8E030354FDDB2C3F34A
:101800000B24344EC4EB135307EE905AA5F1550147
:10181000CEF80050B8EEE77A03EB830507EE904A66
:1018200003FB01F13B6003EB8313B8EEE75A07EECD
:10183000901A491B77EE666AB8EE677A264D07EE76
:10184000901A0B44C5ED006AF8EE677A3460C7EE73
:10185000265A224E15682249224C87EEA66A07EEC8
:10186000903A214BC6F84031F8EE677A87EEA67AB7
:1018700075EE855A76EE056AFCEEE55AFCEEE66AF0
:1018800015EE903A45EA035316EE905A77EE057A34
:10189000136001EA0541D2F81031FCEEE77A0B4300
:1018A000C2F8103117EE903AD2F81011C3F30B03BF
:1018B0000B43C2F81031136843F002031360207029
:1018C0000A4B01221A60F0BD80810D4000441F4088
:1018D000EC130020F0130020E81300200018002073
:1018E0000000FF0F40E400E0BD42000008E100E01E
:1018F000E4130020304B40F6617270B5C3F820212C
:1019000040F2044500F0F8F82C492D48D1F8802029
:101910002C4C42F003022C4BC1F88020C0F86051DF
:10192000226813401BB9D0F8A8319A071AD0244B6B
:101930004FF00041234A51631A46D3F8401141F059
:101940000201C3F84011D2F840319B07FBD44FF499
:1019500000301E491B4B4FF00042086019209A636B
:1019600000F0C6F81A4D0022164B4FF08041144C7F
:101970000A26996328461A601146C4F8A8614FF4F4
:10198000207200F09DF84FF481064FF4800040F281
:101990004313104A10492E602864C4F85851C2F805
:1019A0000412C4F848310D4A4FF40031012311608C
:1019B000C4F8403170BD00BF00800D4000C00F4032
:1019C00000002E4000900D40001C1E008CE200E044
:1019D0000030002000180020294400000CE100E045
:1019E00016035500530042002000530065007200AA
:1019F000690061006C000000180354006500650078
:101A00006E00730079006400750069006E006F005D
:101A10000403090409024300020100C03209040062
:101A2000000102020100052400100105240101014A
:101A30000424020605240600010705820310001095
:101A400009040100020A000000070503024000002B
:101A5000070584024000000009024300020100C0A3
:101A600032090400000102020100052400100105F2
:101A70002401010104240206052406000107058251
:101A80000310000509040100020A00000007050315
:101A90000200020007058402000200000A0600029C
:101AA00002000040010001FFF8B500BFF8BC08BC0F
:101AB0009E467047FFFFFFFF5FF800F0F13900001E
:101AC0005FF800F02D5F00005FF800F05158000053
:101AD0005FF800F0F94100005FF800F0FD41000000
:101AE0005FF800F04D4000005FF800F0F95400008E
:101AF0005FF800F0B53C00005FF800F0E14B00003B
:101B000001010000D1320000FFFFFFFFFFFFFFFFD8
:101B100000000000000000000000000000000000C5
:101B200000000000000000000000000000000000B5
:101B30004FF08442F8B5936955691D400DD0244F8C
:101B40000126956195FAA5F4B4FA84F457F8243087
:101B500006FA04F49847A543F4D11E4A93695569DF
:101B60001D400DD01C4F0126956195FAA5F4B4FADD
:101B700084F457F8243006FA04F49847A543F4D1C6
:101B8000164A936955691D400DD0154F0126956180
:101B900095FAA5F4B4FA84F457F8243006FA04F45C
:101BA0009847A543F4D10F4A936955691D400ED05B
:101BB0000D4F0126956195FAA5F4B4FA84F457F80F
:101BC000243006FA04F49847A543F4D1F8BDF8BDD3
:101BD000D40500200040004254060020008000424E
:101BE000D406002000C000425407002010B5054C68
:101BF000237833B9044B13B10448AFF300800123B9
:101C0000237010BDC011002000000000E46A000035
:101C1000084B10B51BB108490848AFF300800848CD
:101C2000036803B910BD074B002BFBD0BDE8104083
:101C3000184700BF00000000C4110020E46A000043
:101C4000C011002000000000F0B589B078232C22DC
:101C50002D49684603F03AFB2C4904A803F096FB93
:101C600004A9684603F008FC044604A803F04EFBF0
:101C700024B9684603F04AFB09B0F0BD78232C2252
:101C8000214904A803F022FB04A803F0FFFB04464B
:101C900004A803F03BFB78232C221B4904A803F083
:101CA00015FB04A803F0F2FB064604A803F02EFB84
:101CB00078232C22144904A803F008FB04A803F09D
:101CC000E5FB054604A803F021FB78230A220E4910
:101CD00004A803F0FBFA04A803F0D8FB074604A805
:101CE00003F014FBFAB2F1B2E8B203F06DFA024667
:101CF000A1B2074803F062FA054803F03BF96846D1
:101D000003F004FB09B0F0BD04080020000000202F
:101D10005C120020204B5A68136850681968936859
:101D200010B404681940D06804421BD0137C03F03F
:101D3000030309B143F0040343F008039910013B86
:101D400011740D2B0BD8DFE803F021071B070A15D0
:101D50002121150A071B07215369013B53615DF8D7
:101D6000044B7047137C03F003030029E6D043F0D3
:101D70000403E3E753695DF8044B023B536170478A
:101D800053695DF8044B02335361704753695DF842
:101D9000044B013353617047F4120020204B9A68C2
:101DA000136850681968936810B404681940D068C3
:101DB00004421BD0137C03F0030309B143F0040376
:101DC00043F008039910013B11740D2B0BD8DFE889
:101DD00003F021071B070A152121150A071B0721FC
:101DE0005369013B53615DF8044B7047137C03F06A
:101DF00003030029E6D043F00403E3E753695DF8E9
:101E0000044B023B5361704753695DF8044B023346
:101E10005361704753695DF8044B01335361704758
:101E2000F4120020204BDA68136850681968936830
:101E300010B404681940D06804421BD0137C03F02E
:101E4000030309B143F0040343F008039910013B75
:101E500011740D2B0BD8DFE803F021071B070A15BF
:101E60002121150A071B07215369013B53615DF8C6
:101E7000044B7047137C03F003030029E6D043F0C2
:101E80000403E3E753695DF8044B023B5361704779
:101E900053695DF8044B02335361704753695DF831
:101EA000044B013353617047F4120020204B1A6930
:101EB000136850681968936810B404681940D068B2
:101EC00004421BD0137C03F0030309B143F0040365
:101ED00043F008039910013B11740D2B0BD8DFE878
:101EE00003F021071B070A152121150A071B0721EB
:101EF0005369013B53615DF8044B7047137C03F059
:101F000003030029E6D043F00403E3E753695DF8D7
:101F1000044B023B5361704753695DF8044B023335
:101F20005361704753695DF8044B01335361704747
:101F3000F4120020204B5A6913685068196893689E
:101F400010B404681940D06804421BD0137C03F01D
:101F5000030309B143F0040343F008039910013B64
:101F600011740D2B0BD8DFE803F021071B070A15AE
:101F70002121150A071B07215369013B53615DF8B5
:101F8000044B7047137C03F003030029E6D043F0B1
:101F90000403E3E753695DF8044B023B5361704768
:101FA00053695DF8044B02335361704753695DF820
:101FB000044B013353617047F4120020204B9A699F
:101FC000136850681968936810B404681940D068A1
:101FD00004421BD0137C03F0030309B143F0040354
:101FE00043F008039910013B11740D2B0BD8DFE867
:101FF00003F021071B070A152121150A071B0721DA
:102000005369013B53615DF8044B7047137C03F047
:1020100003030029E6D043F00403E3E753695DF8C6
:10202000044B023B5361704753695DF8044B023324
:102030005361704753695DF8044B01335361704736
:10204000F4120020204BDA6913685068196893680D
:1020500010B404681940D06804421BD0137C03F00C
:10206000030309B143F0040343F008039910013B53
:1020700011740D2B0BD8DFE803F021071B070A159D
:102080002121150A071B07215369013B53615DF8A4
:10209000044B7047137C03F003030029E6D043F0A0
:1020A0000403E3E753695DF8044B023B5361704757
:1020B00053695DF8044B02335361704753695DF80F
:1020C000044B013353617047F4120020204B1A6A0D
:1020D000136850681968936810B404681940D06890
:1020E00004421BD0137C03F0030309B143F0040343
:1020F00043F008039910013B11740D2B0BD8DFE856
:1021000003F021071B070A152121150A071B0721C8
:102110005369013B53615DF8044B7047137C03F036
:1021200003030029E6D043F00403E3E753695DF8B5
:10213000044B023B5361704753695DF8044B023313
:102140005361704753695DF8044B01335361704725
:10215000F4120020204B5A6A13685068196893687B
:1021600010B404681940D06804421BD0137C03F0FB
:10217000030309B143F0040343F008039910013B42
:1021800011740D2B0BD8DFE803F021071B070A158C
:102190002121150A071B07215369013B53615DF893
:1021A000044B7047137C03F003030029E6D043F08F
:1021B0000403E3E753695DF8044B023B5361704746
:1021C00053695DF8044B02335361704753695DF8FE
:1021D000044B013353617047F4120020204B9A6A7C
:1021E000136850681968936810B404681940D0687F
:1021F00004421BD0137C03F0030309B143F0040332
:1022000043F008039910013B11740D2B0BD8DFE844
:1022100003F021071B070A152121150A071B0721B7
:102220005369013B53615DF8044B7047137C03F025
:1022300003030029E6D043F00403E3E753695DF8A4
:10224000044B023B5361704753695DF8044B023302
:102250005361704753695DF8044B01335361704714
:10226000F4120020204BDA6A1368506819689368EA
:1022700010B404681940D06804421BD0137C03F0EA
:10228000030309B143F0040343F008039910013B31
:1022900011740D2B0BD8DFE803F021071B070A157B
:1022A0002121150A071B07215369013B53615DF882
:1022B000044B7047137C03F003030029E6D043F07E
:1022C0000403E3E753695DF8044B023B5361704735
:1022D00053695DF8044B02335361704753695DF8ED
:1022E000044B013353617047F4120020204B1A6BEA
:1022F000136850681968936810B404681940D0686E
:1023000004421BD0137C03F0030309B143F0040320
:1023100043F008039910013B11740D2B0BD8DFE833
:1023200003F021071B070A152121150A071B0721A6
:102330005369013B53615DF8044B7047137C03F014
:1023400003030029E6D043F00403E3E753695DF893
:10235000044B023B5361704753695DF8044B0233F1
:102360005361704753695DF8044B01335361704703
:10237000F4120020204B5A6B136850681968936858
:1023800010B404681940D06804421BD0137C03F0D9
:10239000030309B143F0040343F008039910013B20
:1023A00011740D2B0BD8DFE803F021071B070A156A
:1023B0002121150A071B07215369013B53615DF871
:1023C000044B7047137C03F003030029E6D043F06D
:1023D0000403E3E753695DF8044B023B5361704724
:1023E00053695DF8044B02335361704753695DF8DC
:1023F000044B013353617047F4120020204B9A6B59
:10240000136850681968936810B404681940D0685C
:1024100004421BD0137C03F0030309B143F004030F
:1024200043F008039910013B11740D2B0BD8DFE822
:1024300003F021071B070A152121150A071B072195
:102440005369013B53615DF8044B7047137C03F003
:1024500003030029E6D043F00403E3E753695DF882
:10246000044B023B5361704753695DF8044B0233E0
:102470005361704753695DF8044B013353617047F2
:10248000F4120020204BDA6B1368506819689368C7
:1024900010B404681940D06804421BD0137C03F0C8
:1024A000030309B143F0040343F008039910013B0F
:1024B00011740D2B0BD8DFE803F021071B070A1559
:1024C0002121150A071B07215369013B53615DF860
:1024D000044B7047137C03F003030029E6D043F05C
:1024E0000403E3E753695DF8044B023B5361704713
:1024F00053695DF8044B02335361704753695DF8CB
:10250000044B013353617047F4120020204B1A6CC6
:10251000136850681968936810B404681940D0684B
:1025200004421BD0137C03F0030309B143F00403FE
:1025300043F008039910013B11740D2B0BD8DFE811
:1025400003F021071B070A152121150A071B072184
:102550005369013B53615DF8044B7047137C03F0F2
:1025600003030029E6D043F00403E3E753695DF871
:10257000044B023B5361704753695DF8044B0233CF
:102580005361704753695DF8044B013353617047E1
:10259000F4120020204B5A6C136850681968936835
:1025A00010B404681940D06804421BD0137C03F0B7
:1025B000030309B143F0040343F008039910013BFE
:1025C00011740D2B0BD8DFE803F021071B070A1548
:1025D0002121150A071B07215369013B53615DF84F
:1025E000044B7047137C03F003030029E6D043F04B
:1025F0000403E3E753695DF8044B023B5361704702
:1026000053695DF8044B02335361704753695DF8B9
:10261000044B013353617047F4120020204B9A6C35
:10262000136850681968936810B404681940D0683A
:1026300004421BD0137C03F0030309B143F00403ED
:1026400043F008039910013B11740D2B0BD8DFE800
:1026500003F021071B070A152121150A071B072173
:102660005369013B53615DF8044B7047137C03F0E1
:1026700003030029E6D043F00403E3E753695DF860
:10268000044B023B5361704753695DF8044B0233BE
:102690005361704753695DF8044B013353617047D0
:1026A000F4120020204BDA6C1368506819689368A4
:1026B00010B404681940D06804421BD0137C03F0A6
:1026C000030309B143F0040343F008039910013BED
:1026D00011740D2B0BD8DFE803F021071B070A1537
:1026E0002121150A071B07215369013B53615DF83E
:1026F000044B7047137C03F003030029E6D043F03A
:102700000403E3E753695DF8044B023B53617047F0
:1027100053695DF8044B02335361704753695DF8A8
:10272000044B013353617047F4120020204B1A6DA3
:10273000136850681968936810B404681940D06829
:1027400004421BD0137C03F0030309B143F00403DC
:1027500043F008039910013B11740D2B0BD8DFE8EF
:1027600003F021071B070A152121150A071B072162
:102770005369013B53615DF8044B7047137C03F0D0
:1027800003030029E6D043F00403E3E753695DF84F
:10279000044B023B5361704753695DF8044B0233AD
:1027A0005361704753695DF8044B013353617047BF
:1027B000F4120020204B5A6D136850681968936812
:1027C00010B404681940D06804421BD0137C03F095
:1027D000030309B143F0040343F008039910013BDC
:1027E00011740D2B0BD8DFE803F021071B070A1526
:1027F0002121150A071B07215369013B53615DF82D
:10280000044B7047137C03F003030029E6D043F028
:102810000403E3E753695DF8044B023B53617047DF
:1028200053695DF8044B02335361704753695DF897
:10283000044B013353617047F4120020204B9A6D12
:10284000136850681968936810B404681940D06818
:1028500004421BD0137C03F0030309B143F00403CB
:1028600043F008039910013B11740D2B0BD8DFE8DE
:1028700003F021071B070A152121150A071B072151
:102880005369013B53615DF8044B7047137C03F0BF
:1028900003030029E6D043F00403E3E753695DF83E
:1028A000044B023B5361704753695DF8044B02339C
:1028B0005361704753695DF8044B013353617047AE
:1028C000F4120020204BDA6D136850681968936881
:1028D00010B404681940D06804421BD0137C03F084
:1028E000030309B143F0040343F008039910013BCB
:1028F00011740D2B0BD8DFE803F021071B070A1515
:102900002121150A071B07215369013B53615DF81B
:10291000044B7047137C03F003030029E6D043F017
:102920000403E3E753695DF8044B023B53617047CE
:1029300053695DF8044B02335361704753695DF886
:10294000044B013353617047F4120020204B1A6E80
:10295000136850681968936810B404681940D06807
:1029600004421BD0137C03F0030309B143F00403BA
:1029700043F008039910013B11740D2B0BD8DFE8CD
:1029800003F021071B070A152121150A071B072140
:102990005369013B53615DF8044B7047137C03F0AE
:1029A00003030029E6D043F00403E3E753695DF82D
:1029B000044B023B5361704753695DF8044B02338B
:1029C0005361704753695DF8044B0133536170479D
:1029D000F4120020204B1A68136850681968936835
:1029E00010B404681940D06804421BD0137C03F073
:1029F000030309B143F0040343F008039910013BBA
:102A000011740D2B0BD8DFE803F021071B070A1503
:102A10002121150A071B07215369013B53615DF80A
:102A2000044B7047137C03F003030029E6D043F006
:102A30000403E3E753695DF8044B023B53617047BD
:102A400053695DF8044B02335361704753695DF875
:102A5000044B013353617047F4120020214BD3F82B
:102A6000D420136850681968936810B4046819403A
:102A7000D06804421BD0137C03F0030309B143F078
:102A8000040343F008039910013B11740D2B0BD87C
:102A9000DFE803F021071B070A152121150A071B90
:102AA00007215369013B53615DF8044B7047137C68
:102AB00003F003030029E6D043F00403E3E753697E
:102AC0005DF8044B023B5361704753695DF8044B5A
:102AD00002335361704753695DF8044B013353610E
:102AE000704700BFF4120020214BD3F8D8201368A0
:102AF00050681968936810B404681940D06804429B
:102B00001BD0137C03F0030309B143F0040343F02B
:102B100008039910013B11740D2B0BD8DFE803F06B
:102B200021071B070A152121150A071B07215369D5
:102B3000013B53615DF8044B7047137C03F00303C2
:102B40000029E6D043F00403E3E753695DF8044B42
:102B5000023B5361704753695DF8044B0233536184
:102B6000704753695DF8044B01335361704700BFF0
:102B7000F4120020214BD3F8C42013685068196860
:102B8000936810B404681940D06804421BD0137CC9
:102B900003F0030309B143F0040343F00803991061
:102BA000013B11740D2B0BD8DFE803F021071B0745
:102BB0000A152121150A071B07215369013B53619F
:102BC0005DF8044B7047137C03F003030029E6D043
:102BD00043F00403E3E753695DF8044B023B5361A0
:102BE000704753695DF8044B023353617047536972
:102BF0005DF8044B01335361704700BFF4120020AD
:102C0000214BD3F8C820136850681968936810B432
:102C100004681940D06804421BD0137C03F00303FE
:102C200009B143F0040343F008039910013B117408
:102C30000D2B0BD8DFE803F021071B070A15212114
:102C4000150A071B07215369013B53615DF8044BCB
:102C50007047137C03F003030029E6D043F004031C
:102C6000E3E753695DF8044B023B536170475369D6
:102C70005DF8044B02335361704753695DF8044BB0
:102C800001335361704700BFF4120020214BD3F889
:102C9000CC20136850681968936810B40468194010
:102CA000D06804421BD0137C03F0030309B143F046
:102CB000040343F008039910013B11740D2B0BD84A
:102CC000DFE803F021071B070A152121150A071B5E
:102CD00007215369013B53615DF8044B7047137C36
:102CE00003F003030029E6D043F00403E3E753694C
:102CF0005DF8044B023B5361704753695DF8044B28
:102D000002335361704753695DF8044B01335361DB
:102D1000704700BFF4120020214BD3F8D020136875
:102D200050681968936810B404681940D068044268
:102D30001BD0137C03F0030309B143F0040343F0F9
:102D400008039910013B11740D2B0BD8DFE803F039
:102D500021071B070A152121150A071B07215369A3
:102D6000013B53615DF8044B7047137C03F0030390
:102D70000029E6D043F00403E3E753695DF8044B10
:102D8000023B5361704753695DF8044B0233536152
:102D9000704753695DF8044B01335361704700BFBE
:102DA000F4120020214BD3F8A4201368506819684E
:102DB000936810B404681940D06804421BD0137C97
:102DC00003F0030309B143F0040343F0080399102F
:102DD000013B11740D2B0BD8DFE803F021071B0713
:102DE0000A152121150A071B07215369013B53616D
:102DF0005DF8044B7047137C03F003030029E6D011
:102E000043F00403E3E753695DF8044B023B53616D
:102E1000704753695DF8044B02335361704753693F
:102E20005DF8044B01335361704700BFF41200207A
:102E3000214BD3F8A820136850681968936810B420
:102E400004681940D06804421BD0137C03F00303CC
:102E500009B143F0040343F008039910013B1174D6
:102E60000D2B0BD8DFE803F021071B070A152121E2
:102E7000150A071B07215369013B53615DF8044B99
:102E80007047137C03F003030029E6D043F00403EA
:102E9000E3E753695DF8044B023B536170475369A4
:102EA0005DF8044B02335361704753695DF8044B7E
:102EB00001335361704700BFF4120020214BD3F857
:102EC000AC20136850681968936810B404681940FE
:102ED000D06804421BD0137C03F0030309B143F014
:102EE000040343F008039910013B11740D2B0BD818
:102EF000DFE803F021071B070A152121150A071B2C
:102F000007215369013B53615DF8044B7047137C03
:102F100003F003030029E6D043F00403E3E7536919
:102F20005DF8044B023B5361704753695DF8044BF5
:102F300002335361704753695DF8044B01335361A9
:102F4000704700BFF4120020214BD3F8B020136863
:102F500050681968936810B404681940D068044236
:102F60001BD0137C03F0030309B143F0040343F0C7
:102F700008039910013B11740D2B0BD8DFE803F007
:102F800021071B070A152121150A071B0721536971
:102F9000013B53615DF8044B7047137C03F003035E
:102FA0000029E6D043F00403E3E753695DF8044BDE
:102FB000023B5361704753695DF8044B0233536120
:102FC000704753695DF8044B01335361704700BF8C
:102FD000F4120020214BD3F8B4201368506819680C
:102FE000936810B404681940D06804421BD0137C65
:102FF00003F0030309B143F0040343F008039910FD
:10300000013B11740D2B0BD8DFE803F021071B07E0
:103010000A152121150A071B07215369013B53613A
:103020005DF8044B7047137C03F003030029E6D0DE
:1030300043F00403E3E753695DF8044B023B53613B
:10304000704753695DF8044B02335361704753690D
:103050005DF8044B01335361704700BFF412002048
:10306000214BD3F8B820136850681968936810B4DE
:1030700004681940D06804421BD0137C03F003039A
:1030800009B143F0040343F008039910013B1174A4
:103090000D2B0BD8DFE803F021071B070A152121B0
:1030A000150A071B07215369013B53615DF8044B67
:1030B0007047137C03F003030029E6D043F00403B8
:1030C000E3E753695DF8044B023B53617047536972
:1030D0005DF8044B02335361704753695DF8044B4C
:1030E00001335361704700BFF4120020214BD3F825
:1030F000BC20136850681968936810B404681940BC
:10310000D06804421BD0137C03F0030309B143F0E1
:10311000040343F008039910013B11740D2B0BD8E5
:10312000DFE803F021071B070A152121150A071BF9
:1031300007215369013B53615DF8044B7047137CD1
:1031400003F003030029E6D043F00403E3E75369E7
:103150005DF8044B023B5361704753695DF8044BC3
:1031600002335361704753695DF8044B0133536177
:10317000704700BFF4120020214BD3F8C020136821
:1031800050681968936810B404681940D068044204
:103190001BD0137C03F0030309B143F0040343F095
:1031A00008039910013B11740D2B0BD8DFE803F0D5
:1031B00021071B070A152121150A071B072153693F
:1031C000013B53615DF8044B7047137C03F003032C
:1031D0000029E6D043F00403E3E753695DF8044BAC
:1031E000023B5361704753695DF8044B02335361EE
:1031F000704753695DF8044B01335361704700BF5A
:10320000F4120020204B5A6E1368506819689368B6
:1032100010B404681940D06804421BD0137C03F03A
:10322000030309B143F0040343F008039910013B81
:1032300011740D2B0BD8DFE803F021071B070A15CB
:103240002121150A071B07215369013B53615DF8D2
:10325000044B7047137C03F003030029E6D043F0CE
:103260000403E3E753695DF8044B023B5361704785
:1032700053695DF8044B02335361704753695DF83D
:10328000044B013353617047F4120020204B9A6EB7
:10329000136850681968936810B404681940D068BE
:1032A00004421BD0137C03F0030309B143F0040371
:1032B00043F008039910013B11740D2B0BD8DFE884
:1032C00003F021071B070A152121150A071B0721F7
:1032D0005369013B53615DF8044B7047137C03F065
:1032E00003030029E6D043F00403E3E753695DF8E4
:1032F000044B023B5361704753695DF8044B023342
:103300005361704753695DF8044B01335361704753
:10331000F4120020204BDA6E136850681968936825
:1033200010B404681940D06804421BD0137C03F029
:10333000030309B143F0040343F008039910013B70
:1033400011740D2B0BD8DFE803F021071B070A15BA
:103350002121150A071B07215369013B53615DF8C1
:10336000044B7047137C03F003030029E6D043F0BD
:103370000403E3E753695DF8044B023B5361704774
:1033800053695DF8044B02335361704753695DF82C
:10339000044B013353617047F4120020204B1A6F25
:1033A000136850681968936810B404681940D068AD
:1033B00004421BD0137C03F0030309B143F0040360
:1033C00043F008039910013B11740D2B0BD8DFE873
:1033D00003F021071B070A152121150A071B0721E6
:1033E0005369013B53615DF8044B7047137C03F054
:1033F00003030029E6D043F00403E3E753695DF8D3
:10340000044B023B5361704753695DF8044B023330
:103410005361704753695DF8044B01335361704742
:10342000F4120020204B5A6F136850681968936893
:1034300010B404681940D06804421BD0137C03F018
:10344000030309B143F0040343F008039910013B5F
:1034500011740D2B0BD8DFE803F021071B070A15A9
:103460002121150A071B07215369013B53615DF8B0
:10347000044B7047137C03F003030029E6D043F0AC
:103480000403E3E753695DF8044B023B5361704763
:1034900053695DF8044B02335361704753695DF81B
:1034A000044B013353617047F4120020204B9A6F94
:1034B000136850681968936810B404681940D0689C
:1034C00004421BD0137C03F0030309B143F004034F
:1034D00043F008039910013B11740D2B0BD8DFE862
:1034E00003F021071B070A152121150A071B0721D5
:1034F0005369013B53615DF8044B7047137C03F043
:1035000003030029E6D043F00403E3E753695DF8C1
:10351000044B023B5361704753695DF8044B02331F
:103520005361704753695DF8044B01335361704731
:10353000F4120020204BDA6F136850681968936802
:1035400010B404681940D06804421BD0137C03F007
:10355000030309B143F0040343F008039910013B4E
:1035600011740D2B0BD8DFE803F021071B070A1598
:103570002121150A071B07215369013B53615DF89F
:10358000044B7047137C03F003030029E6D043F09B
:103590000403E3E753695DF8044B023B5361704752
:1035A00053695DF8044B02335361704753695DF80A
:1035B000044B013353617047F4120020214BD3F8C0
:1035C0008020136850681968936810B40468194023
:1035D000D06804421BD0137C03F0030309B143F00D
:1035E000040343F008039910013B11740D2B0BD811
:1035F000DFE803F021071B070A152121150A071B25
:1036000007215369013B53615DF8044B7047137CFC
:1036100003F003030029E6D043F00403E3E7536912
:103620005DF8044B023B5361704753695DF8044BEE
:1036300002335361704753695DF8044B01335361A2
:10364000704700BFF4120020214BD3F88420136888
:1036500050681968936810B404681940D06804422F
:103660001BD0137C03F0030309B143F0040343F0C0
:1036700008039910013B11740D2B0BD8DFE803F000
:1036800021071B070A152121150A071B072153696A
:10369000013B53615DF8044B7047137C03F0030357
:1036A0000029E6D043F00403E3E753695DF8044BD7
:1036B000023B5361704753695DF8044B0233536119
:1036C000704753695DF8044B01335361704700BF85
:1036D000F4120020214BD3F8882013685068196831
:1036E000936810B404681940D06804421BD0137C5E
:1036F00003F0030309B143F0040343F008039910F6
:10370000013B11740D2B0BD8DFE803F021071B07D9
:103710000A152121150A071B07215369013B536133
:103720005DF8044B7047137C03F003030029E6D0D7
:1037300043F00403E3E753695DF8044B023B536134
:10374000704753695DF8044B023353617047536906
:103750005DF8044B01335361704700BFF412002041
:10376000214BD3F88C20136850681968936810B403
:1037700004681940D06804421BD0137C03F0030393
:1037800009B143F0040343F008039910013B11749D
:103790000D2B0BD8DFE803F021071B070A152121A9
:1037A000150A071B07215369013B53615DF8044B60
:1037B0007047137C03F003030029E6D043F00403B1
:1037C000E3E753695DF8044B023B5361704753696B
:1037D0005DF8044B02335361704753695DF8044B45
:1037E00001335361704700BFF4120020214BD3F81E
:1037F0009020136850681968936810B404681940E1
:10380000D06804421BD0137C03F0030309B143F0DA
:10381000040343F008039910013B11740D2B0BD8DE
:10382000DFE803F021071B070A152121150A071BF2
:1038300007215369013B53615DF8044B7047137CCA
:1038400003F003030029E6D043F00403E3E75369E0
:103850005DF8044B023B5361704753695DF8044BBC
:1038600002335361704753695DF8044B0133536170
:10387000704700BFF4120020214BD3F89420136846
:1038800050681968936810B404681940D0680442FD
:103890001BD0137C03F0030309B143F0040343F08E
:1038A00008039910013B11740D2B0BD8DFE803F0CE
:1038B00021071B070A152121150A071B0721536938
:1038C000013B53615DF8044B7047137C03F0030325
:1038D0000029E6D043F00403E3E753695DF8044BA5
:1038E000023B5361704753695DF8044B02335361E7
:1038F000704753695DF8044B01335361704700BF53
:10390000F4120020214BD3F89820136850681968EE
:10391000936810B404681940D06804421BD0137C2B
:1039200003F0030309B143F0040343F008039910C3
:10393000013B11740D2B0BD8DFE803F021071B07A7
:103940000A152121150A071B07215369013B536101
:103950005DF8044B7047137C03F003030029E6D0A5
:1039600043F00403E3E753695DF8044B023B536102
:10397000704753695DF8044B0233536170475369D4
:103980005DF8044B01335361704700BFF41200200F
:10399000214BD3F89C20136850681968936810B4C1
:1039A00004681940D06804421BD0137C03F0030361
:1039B00009B143F0040343F008039910013B11746B
:1039C0000D2B0BD8DFE803F021071B070A15212177
:1039D000150A071B07215369013B53615DF8044B2E
:1039E0007047137C03F003030029E6D043F004037F
:1039F000E3E753695DF8044B023B53617047536939
:103A00005DF8044B02335361704753695DF8044B12
:103A100001335361704700BFF4120020214BD3F8EB
:103A2000A020136850681968936810B4046819409E
:103A3000D06804421BD0137C03F0030309B143F0A8
:103A4000040343F008039910013B11740D2B0BD8AC
:103A5000DFE803F021071B070A152121150A071BC0
:103A600007215369013B53615DF8044B7047137C98
:103A700003F003030029E6D043F00403E3E75369AE
:103A80005DF8044B023B5361704753695DF8044B8A
:103A900002335361704753695DF8044B013353613E
:103AA000704700BFF41200202DE9F0470E4615467E
:103AB0000446022130464FF0000A01F05BFF284621
:103AC0000221DFF8C49201F055FFA04A3301A0495A
:103AD000280102EB030E52F8038017184FF4FA6323
:103AE000DEF80CE0C4F80080C4F808E0FF6852F883
:103AF00000C00846C4F814A0E760DFF890A2096887
:103B0000D9F80020C4F804C0AAFB0292920C03FB6F
:103B100002F203685B1A9A42FBD8D8F80030DCF84E
:103B200000201EEA030F14BF01230023174202D016
:103B300043F00203DBB22374362E00F28E85DFE8F9
:103B400016F07F0575056B05610557054D054305A5
:103B500039052F0525051B0511050705FD04F3048F
:103B6000E904DF04D504CB04C104B704AD04A30405
:103B700099048F0485047B0425041C0413040A049F
:103B80000104F703ED03E303D903CF03C503BB032C
:103B9000B103A7039D03930389037F0375036B039D
:103BA000610357034D03430339032F0325033700F4
:103BB000684B042268493620C3F8D84001F01CFF46
:103BC00001232376362D00F24585DFE815F0D50276
:103BD000CB02C102B702AD02A30299028F02850295
:103BE0007B022C02220218020E020402FA01F001EA
:103BF000E601DC01D201C801BE01B401AA01A001A5
:103C000096018C01820178016E0164015A014F0115
:103C1000440139012E01230118010D010201F700B1
:103C2000EC00E100B400A9009E00930088007D0034
:103C3000720067005C00510046003700454B0422CB
:103C400045493620C3F8D84001F0D6FE237E012234
:103C5000134420462376BDE8F0873E4B04223F49BB
:103C60003520C3F8D44001F0C7FE237E0122EFE7E0
:103C7000384B04223A493420C3F8D04001F0BCFE4E
:103C8000237E0122E4E7334B042236493320C3F874
:103C9000CC4001F0B1FE237E0122D9E72D4B042256
:103CA00031493220C3F8C84001F0A6FE237E01222C
:103CB000CEE7284B04222D493120C3F8C44001F03F
:103CC0009BFE237E0122C3E7224B04222849302099
:103CD000C3F8C04001F090FE237E0122B8E71D4BDF
:103CE000042224492F20C3F8BC4001F085FE237E26
:103CF0000122ADE7174B04221F492E20C3F8B8401C
:103D000001F07AFE237E0122A2E7124B04221B4916
:103D10002D20C3F8B44001F06FFE237E012297E707
:103D20000C4B042216492C20C3F8B04001F064FE6D
:103D3000237E01228CE7074B042212492B20C3F873
:103D4000AC4001F059FE237E012281E7A80000204B
:103D5000041000E0F4120020D90F00004D0F000005
:103D6000091200007D110000F11000006510000034
:103D700069160000DD15000051150000C514000093
:103D800039140000AD130000D005002083DE1B4372
:103D9000AA4B0422AA492A20C3F8A84001F02CFE0D
:103DA000237E012254E7A54B0422A6492920C3F80B
:103DB000A44001F021FE237E012249E79F4B04220B
:103DC000A1492820C3F8A04001F016FE237E01225D
:103DD0003EE79A4B04229D492720C3F89C4001F0FE
:103DE0000BFE237E012233E7944B042298492620C0
:103DF000C3F8984001F000FE237E012228E78F4B94
:103E0000042294492520C3F8944001F0F5FD237E57
:103E100001221DE7894B04228F492420C3F89040DA
:103E200001F0EAFD237E012212E7844B04228B4934
:103E30002320C3F88C4001F0DFFD237E012207E739
:103E40007E4B042286492220C3F8884001F0D4FD2D
:103E5000237E0122FCE6794B042282492120C3F80B
:103E6000844001F0C9FD237E0122F1E6734B042258
:103E70007D492020C3F8804001F0BEFD237E012251
:103E8000E6E66E4B042279491F20DC6701F0B4FDA1
:103E9000237E0122DCE6694B042275491E209C67C3
:103EA00001F0AAFD237E0122D2E6644B042271496F
:103EB0001D205C6701F0A0FD237E0122C8E65F4B58
:103EC00004226D491C201C6701F096FD237E01220F
:103ED000BEE65A4B042269491B20DC6601F08CFDCA
:103EE000237E0122B4E6554B042265491A209C66C4
:103EF00001F082FD237E0122AAE6504B0422614993
:103F000019205C6601F078FD237E0122A0E64B4B70
:103F100004225D4918201C6601F06EFD237E0122FB
:103F200096E6464B042259491720DC6501F064FDF2
:103F3000237E01228CE6414B0422554916209C65C4
:103F400001F05AFD237E012282E63C4B04225149B6
:103F500015205C6501F050FD237E012278E6374B89
:103F600004224D4914201C6501F046FD237E0122E8
:103F70006EE6324B042249491320DC6401F03CFD1B
:103F8000237E012264E62D4B0422454912209C64C5
:103F900001F032FD237E01225AE6284B04224149DA
:103FA00011205C6401F028FD237E012250E6234BA2
:103FB00004223D4910201C6401F01EFD237E0122D5
:103FC00046E61E4B042239490F20DC6301F014FD44
:103FD000237E01223CE6194B042235490E209C63C6
:103FE00001F00AFD237E012232E6144B04223149FE
:103FF0000D205C6301F000FD237E012228E60F4BBB
:1040000004222D490C201C6301F0F6FC237E0122C2
:104010001EE60A4B042229490B20DC6201F0ECFC6D
:10402000237E012214E6054B042225490A209C62C6
:1040300001F0E2FC237E01220AE600BFF412002018
:1040400021130000951200000D1F0000811E0000CA
:10405000F51D0000691D0000DD1C0000511C000062
:10406000C51B0000391B0000AD1A0000251A000016
:104070009D190000151900008D180000051800009A
:104080007D170000F51600003D0E0000B50D000084
:104090002D0D0000A50C00001D0C0000950B00006C
:1040A0000D0B0000850A0000FD09000075090000E5
:1040B000ED08000065080000DD070000550700005E
:1040C000CD060000B64B0422B64909205C6201F01F
:1040D00093FC237E0122BBE5B14B0422B2490820A8
:1040E0001C6201F089FC237E0122B1E5AC4B042265
:1040F000AE490720DC6101F07FFC237E0122A7E5A9
:10410000A74B0422AA4906209C6101F075FC237E7E
:1041100001229DE5A24B0422A64905205C6101F025
:104120006BFC237E012293E504229D4BA24910469D
:104130001C6101F061FC237E012289E5984B042279
:104140009E490320DC6001F057FC237E01227FE5BD
:10415000934B04229A4902209C6001F04DFC237E7F
:10416000012275E58E4B0422964901205C6001F026
:1041700043FC237E01226BE5894B042292490020F7
:104180001C6001F039FC237E012261E5844B04228E
:104190008E493520C3F8D44001F02EFC012310E5F0
:1041A0007F4B04228A493420C3F8D04001F024FC1C
:1041B000012306E57A4B042286493320C3F8CC401C
:1041C00001F01AFC0123FCE4754B042282493220E1
:1041D000C3F8C84001F010FC0123F2E4704B042244
:1041E0007E493120C3F8C44001F006FC0123E8E415
:1041F0006B4B04227A493020C3F8C04001F0FCFB2D
:104200000123DEE4664B042276492F20C3F8BC402C
:1042100001F0F2FB0123D4E4614B042272492E2009
:10422000C3F8B84001F0E8FB0123CAE45C4B042268
:104230006E492D20C3F8B44001F0DEFB0123C0E439
:10424000574B04226A492C20C3F8B04001F0D4FB3C
:104250000123B6E4524B042266492B20C3F8AC403C
:1042600001F0CAFB0123ACE44D4B042262492A2031
:10427000C3F8A84001F0C0FB0123A2E4484B04228C
:104280005E492920C3F8A44001F0B6FB012398E45D
:10429000434B04225A492820C3F8A04001F0ACFB4C
:1042A00001238EE43E4B042256492720C3F89C404C
:1042B00001F0A2FB012384E4394B04225249262059
:1042C000C3F8984001F098FB01237AE4344B0422B0
:1042D0004E492520C3F8944001F08EFB012370E481
:1042E0002F4B04224A492420C3F8904001F084FB5C
:1042F000012366E42A4B042246492320C3F88C405C
:1043000001F07AFB01235CE4254B04224249222080
:10431000C3F8884001F070FB012352E4204B0422D3
:104320003E492120C3F8844001F066FB012348E4A4
:104330001B4B04223A492020C3F8804001F05CFB6B
:1043400001233EE4164B042236491F20DC6701F0AE
:1043500053FB012335E4124B042233491E209C6792
:1043600001F04AFB01232CE40D4B04222F491D20B0
:104370005C6701F041FB012323E4094B04222C4933
:104380001C201C6701F038FB01231AE4044B0422B3
:1043900028491B20DC6601F02FFB012311E400BF3C
:1043A000F412002045060000BD05000035050000A0
:1043B000AD040000250400009D030000150300006B
:1043C0008D02000005020000C50E00004D0F000028
:1043D000091200007D110000F110000065100000BE
:1043E00069160000DD15000051150000C51400001D
:1043F00039140000AD1300002113000095120000D5
:104400000D1F0000811E0000F51D0000691D000049
:10441000DD1C0000511C0000C51B0000391B000002
:10442000AD1A0000251A00009D19000015190000A2
:104430008D18000005180000894B042289491A20B4
:104440009C6601F0D9FA0123FFF7BBBB844B042221
:10445000854919205C6601F0CFFA0123FFF7B1BB53
:104460007F4B0422814918201C6601F0C5FA012304
:10447000FFF7A7BB7A4B04227D491720DC6501F0CA
:10448000BBFA0123FFF79DBB754B04227949162027
:104490009C6501F0B1FA0123FFF793BB704B042236
:1044A000754915205C6501F0A7FA0123FFF789BB68
:1044B0006B4B0422714914201C6501F09DFA012305
:1044C000FFF77FBB664B04226D491320DC6401F0CB
:1044D00093FA0123FFF775BB614B0422694912204F
:1044E0009C6401F089FA0123FFF76BBB5C4B04224B
:1044F000654911205C6401F07FFA0123FFF761BB7D
:10450000574B0422614910201C6401F075FA012305
:10451000FFF757BB524B04225D490F20DC6301F0CB
:104520006BFA0123FFF74DBB4D4B042259490E2076
:104530009C6301F061FA0123FFF743BB484B04225F
:1045400055490D205C6301F057FA0123FFF739BB91
:10455000434B042251490C201C6301F04DFA012306
:10456000FFF72FBB3E4B04224D490B20DC6201F0CC
:1045700043FA0123FFF725BB394B042249490A209E
:104580009C6201F039FA0123FFF71BBB344B042274
:10459000454909205C6201F02FFA0123FFF711BBA6
:1045A0002F4B0422414908201C6201F025FA012307
:1045B000FFF707BB2A4B04223D490720DC6101F0CD
:1045C0001BFA0123FFF7FDBA254B042239490620C7
:1045D0009C6101F011FA0123FFF7F3BA204B04228A
:1045E000354905205C6101F007FA0123FFF7E9BABC
:1045F00004221B4B314910461C6101F0FDF90123D7
:10460000FFF7DFBA164B04222D490320DC6001F0CE
:10461000F3F90123FFF7D5BA114B042229490220EF
:104620009C6001F0E9F90123FFF7CBBA0C4B04229F
:10463000254901205C6001F0DFF90123FFF7C1BAD1
:10464000074B0422214900201C6001F0D5F9012309
:10465000FFF7B7BA0022FFF7FBBA0023FFF7B1BAA2
:10466000F41200207D170000F51600003D0E00003A
:10467000B50D00002D0D0000A50C00001D0C000064
:10468000950B00000D0B0000850A0000FD090000DD
:1046900075090000ED08000065080000DD07000056
:1046A00055070000CD06000045060000BD050000CE
:1046B00035050000AD040000250400009D03000046
:1046C000150300008D02000005020000C50E000069
:1046D000F8B5124C124D04F11006671C15F8012FA5
:1046E000012114F8013F0F489A4214D002F05EFBFA
:1046F00000230A22E11B0C4800F082FD01210B4837
:1047000002F054FB2978084800F0BAFD064800F092
:1047100067FD2B782370A642E0D1F8BD7B12002004
:10472000471200200400002004080020140000208C
:1047300008B50321142001F01DF90321132001F015
:1047400019F9064B0649002203F1200043F8042F13
:10475000834241F8042FF9D108BD00BF1C1200208C
:10476000B412002070B5164D0024164E02E001343C
:10477000082C23D055F8043F56F8042F9B1A002B21
:10478000B8BF5B42032BF2DD01210F4802F00EFBA4
:1047900000230A2221460D48013400F031FD012199
:1047A0000B4802F003FB2968084800F069FD074840
:1047B00000F016FD2B68082C3360DBD170BD00BF04
:1047C0001C120020B4120020080000200408002061
:1047D000140000202DE9F84F2D4D0024DFF8CC9077
:1047E00005F10808A3462B4F2B4EDFF8C4A05FFA53
:1047F0008BF12A4B1720C1F340021C70C1F38003D8
:1048000001F001013A70337001F0A8F839781620F0
:1048100001F0A4F83178152001F0A0F8204BDAF867
:10482000001020481A683223A0FB0202920C03FBFE
:1048300002F2DAF800305B1A9A42FAD8142084F0B7
:10484000010401F091F8031C4FF0130018BF01237D
:1048500005F8013F01F088F8031C4FF0080018BF6D
:10486000012308F8013F01F07FF8031C4FF012000C
:1048700018BF012309F8013F00F00EFE0A4B43F870
:104880002B000BF1010BBBF1080FB0D1BDE8F88F85
:1048900047120020B1120020B2120020B0120020F6
:1048A000D005002083DE1B43201200206F12002061
:1048B000041000E070B5134D0024134E15F8012BC1
:1048C000022116F8013B11489A4217D002F06EFA05
:1048D00000230A2221460E4800F092FC01210D48D7
:1048E00002F064FA15F8011C094800F0C9FC0848F8
:1048F00000F076FC15F8013C06F8013C0134042C6C
:10490000DCD170BD701200208C1200200C00002041
:104910000408002014000020B14B10B41A7E012AB4
:1049200024D972B65A6962B6AE4BAF48197E02609E
:10493000012953D972B65A6962B6AC4BAC48197E9C
:104940000260012940F2828072B65A6962B6A94BB0
:10495000A948197E0260012940F2B08072B65A69F6
:1049600062B6A64B5DF8044B1A60704772B61A68BF
:10497000586811680468D8689A68044201EA02011C
:1049800000F0D4801A7C02F0030209B142F0040264
:1049900042F008029110013A19740D2AC2D801A1FF
:1049A00051F822F0793000007130000069300000C9
:1049B00071300000152E00006130000079300000D9
:1049C0007930000061300000152E000071300000C9
:1049D00069300000713000007930000072B61A684A
:1049E000586811680468D8689A68044201EA0201AC
:1049F00000F0AD801A7C02F0030209B142F004021B
:104A000042F008029110013A19740D2A93D801A1BD
:104A100051F822F0B9300000B1300000A930000098
:104A2000B1300000272E0000A1300000B930000096
:104A3000B9300000A1300000272E0000B130000086
:104A4000A9300000B1300000B930000072B61A6819
:104A5000586811680468D8689A68044201EA02013B
:104A60006DD01A7C02F0030209B142F0040242F058
:104A700008029110013A19740D2A3FF666AF01A1A0
:104A800051F822F099300000913000008930000088
:104A9000913000003B2E0000813000009930000072
:104AA00099300000813000003B2E00009130000062
:104AB00089300000913000009930000072B61A6809
:104AC000586811680468D8689A68044201EA0201CB
:104AD00046D01A7C02F00302002940F0998042F08F
:104AE00008029110013A19740D2A3FF638AF01A15E
:104AF00051F822F0F9300000F1300000C930000018
:104B0000F13000004F2E0000C1300000F9300000ED
:104B1000F9300000C13000004F2E0000F1300000DD
:104B2000C9300000F1300000F93000001A7C02F0BA
:104B3000030200293FF42EAF42F004022AE71A7C58
:104B400002F00302002994D042F0040291E71A7C9B
:104B500002F0030200293FF455AF42F0040251E78E
:104B60001A7C02F003020029BBD042F00402B8E72D
:104B70005A69023A5A61D6E65A6902325A61D2E655
:104B80005A69013A5A61CEE65A6901325A61CAE657
:104B90005A69023A5A61D9E65A6902325A61D5E62F
:104BA0005A69013A5A61D1E65A6901325A61CDE631
:104BB0005A69023A5A61BFE65A6902325A61BBE643
:104BC0005A69013A5A61B7E65A6901325A61B3E645
:104BD0005A69023A5A61C3E65A6902325A61BFE61B
:104BE00094120020D8120020B4120020DC11002002
:104BF00044120020FC110020F8110020781200203F
:104C00005A69013A5A61ABE65A6901325A61A7E61C
:104C100042F0040263E700BF38B5264C264D2268F7
:104C20002B689A420CD00521244802F0BFF8216875
:104C3000234800F025FB224800F0D2FA23682B60BD
:104C4000204C214D22682B689A420CD005211F4828
:104C500002F0ACF821681A4800F012FB184800F086
:104C6000BFFA23682B601A4C1A4D22682B689A42AF
:104C70000CD00521184802F099F82168104800F07E
:104C8000FFFA0F4800F0ACFA23682B60134C144D68
:104C900022682B689A420CD00521124802F086F84F
:104CA0002168074800F0ECFA054800F099FA2368FB
:104CB0002B6038BDB41200205812002010000020D4
:104CC0000408002044120020401200201800002098
:104CD000F811002018120020200000207812002077
:104CE0001C1200202800002038B50A21254800F0B9
:104CF000EBFA254D254A2649264C1378002BFCD08B
:104D00000B78DB07F9D52B6820681B1A0E2BF4D91A
:104D10002721214802F04AF81A4800F061FA1E21C2
:104D20001E4802F043F8174800F05AFA27211A48A3
:104D300002F03CF8134800F053FA194B19490022CD
:104D400003F1100403F8012F9C424FF0000001F81A
:104D5000012FF7D1144B154A187058709870D870FD
:104D6000107050709070D070FFF7E2FC104800F0A7
:104D700031FA0F4800F0FEF80D48BDE8384000F069
:104D8000A3B800BF04080020DC1300202814002072
:104D900068150020883200203000002058000020D4
:104DA000471200207B1200208C120020701200207D
:104DB0005C12002008B5FFF70DFDFFF7ADFDFFF712
:104DC00087FCFFF777FDFFF727FFFFF7CBFC01F02C
:104DD00087FF00B908BDBDE80840FCF735BF00BF3C
:104DE00010B5104C522309221021204600F0D0F9B2
:104DF00020460D4A0D4902F065FA012200210C48B7
:104E0000FEF752FE032202210A48FEF74DFE05225C
:104E100004210948FEF748FE072206210748FEF74D
:104E200043FE10BD5C120020C8050020993300002D
:104E300094120020D8120020DC110020FC11002068
:104E4000F0B5C379160C150AF6B2EDB25FFA82FE20
:104E50005BB103FB06F603FB05F503FB0EFEC6F391
:104E60000726C5F30725CEF3072EC77B047BBC427C
:104E700014D08468120E04EB81010F444BB9D3B2F5
:104E80003B70077BCE55437BCD54837B01F803E019
:104E9000F0BD03FB02F3C3F30723F1E701EB41018C
:104EA00083681944EEE700BF10B50446806808B176
:104EB00002F08AFA94F90600002803DBC0B2002150
:104EC00000F058FD204610BD10B5044690F90600CC
:104ED000002807DBC0B2012100F04CFD0021A079C1
:104EE00000F03CFD0123637010BD00BF38B50446DF
:104EF00080680D4608B102F067FAE37B0121207B50
:104F000083420CBF0320042010FB05F080B2A08078
:104F100002F0E2F9A06008B1658038BDA080608031
:104F200038BD00BFF0B5C47BC1F3810590F80CE03B
:104F3000FF29C1F3811201F00307CEEB04048CBFFB
:104F400000260126C1F30111B4FA84F44573856883
:104F5000C273640987730670017355B1511AB1FAAF
:104F600081F14909A14204D04188BDE8F040FFF732
:104F7000BDBFF0BD2DE9F04F836885B00390002BD5
:104F800071D0044600F084FC2369C01AB0F5967F06
:104F9000F8D372B6039E664896F90630654C1B013D
:104FA0000268654954F803C0E518B36842F080729E
:104FB000D5F80C8035461E460193AC880260324617
:104FC0000B6822445D4C43F00103029217462A7895
:104FD0000B605B4920680B68002A47D0594D1B0ABB
:104FE000BE42A5FB032300EB13102CD2564F574EA5
:104FF000019B4FF008094FF0800E13F801AB0193AD
:1050000022680B68121A1B0AA5FB03B3B2EB131F2D
:10501000F6D34A4B1AEA0E0F1868CCF884807ED07B
:1050200023680A681B1AA7FB02B2B3EBD24FF7D36F
:10503000B9F10109CCF888804FEA5E0EE0D1029BFD
:10504000019A9342D4D13D4D3E4C2A680B68121A06
:105050001B0AA4FB0363B2EB131FF6D362B600F086
:1050600017FC039B186105B0BDE8F08F354EDB09D6
:10507000A6FB0323029A00EB1310019B934234D248
:10508000DFF8CCE0314F019B4FF0080A4FF0800968
:1050900013F801BB019322680B68121ADB09A6FB07
:1050A0000353B2EB131FF6D3244B1BEA090F186806
:1050B000CCF884802AD0CDF800C022680D68121A7E
:1050C000AEFB05C3ED1A03EB5503B2EBD34FF4D39C
:1050D000DDF800C0BAF1010ACCF888804FEA59091E
:1050E000D9D1029B019A9342CDD1144D154C2A6817
:1050F0000B68121ADB09A4FB0363B2EB131FF6D390
:1051000062B600F0C5FB039B1861ACE723680A6830
:105110001B1AA7FB0252B3EBD24FF7D3DAE723688F
:105120000A681B1AA6FB02B2B3EB125FF7D37FE744
:10513000FCED00E0A8000020001000E0041000E0FA
:10514000D0050020598B4F016BCA5F6B83DE1B4378
:10515000B3671F4238B543786BB1044690F9060037
:105160000D46002809DBC0B2002100F003FC637883
:10517000A5711BB938BD817138BDA17128460121C7
:1051800000F0F8FB28460021BDE8384000F0E6BBFF
:10519000F8B5002504460F46164619464570C571F8
:1051A00085600561FFF7BEFE39462046FFF79EFE8B
:1051B00020463146FFF7CEFF2046F8BD43888B429C
:1051C00001D9FFF73DBE704742EA012242EA0040A2
:1051D000704700BF82880021806802F02FBC00BFAA
:1051E00010B5064C82B003680222248801A95B68CE
:1051F000ADF80440984702B010BD00BF7800002011
:10520000F0B506468BB0002A33D0012A08BF0A2227
:1052100051B3212500E0FDB26F1EB1FBF2F402FB99
:105220001411C8B2092900F1370100F1300088BF1C
:10523000C8B221460AAC98BFC0B22C4404F8240C72
:105240000029E8D133B1013D0AAB2D22EDB22B4448
:1052500003F8242C336801A9C5F122023046294401
:105260005B6898470BB0F0BD302221258DF82520D2
:10527000E8E70368C9B21B6898470BB0F0BD00BFF0
:10528000002903DB00230A22FFF7BABF49422D237E
:105290000A22FFF7B5BF00BF70B50A4D04462E685D
:1052A00006E001F005FE2B68A2689B1B934206D224
:1052B000236820465B6998470028F2DB70BD4FF0F9
:1052C000FF3070BDDC130020816070472DE9F04194
:1052D0001E460F4600219046054600F057F896B14D
:1052E000002406E00FD043450DD000F09BF8A64205
:1052F00009D038460134FFF7CFFF031E2846D9B244
:10530000F0DA01233B732846BDE8F08110B504466E
:10531000006802F059F8204610BD00BF38B5436858
:105320008B4201D3012038BD0D460446013100688F
:1053300002F0D6FB0028F6D0A36884E82100002BF9
:10534000F0D10370EEE700BFF8B50446154632B958
:10535000036803B11A700023A3602046F8BD0E460F
:105360001146FFF7DBFF074648B9206810B102F08D
:105370002BF82760002320466360A360F8BDA5607A
:105380003146206802F0B6FDE7E700BF38B50023DC
:105390000446036043608360037341B10D460846D1
:1053A00002F016FE024629462046FFF7CDFF2046B2
:1053B00038BD00BF2DE9F8430F4603680446154683
:1053C000BB4281680AD85A18974207D2C3EB070933
:1053D0004FF0010835B92046BDE8F8834FF00008CA
:1053E000002DF8D04E1920463146FFF797FF0028D0
:1053F000F1D0B8F1000F0ED023682A46A06803EB65
:105400000901184400F0B2FB236800229A55A660F7
:105410002046BDE8F88320683946A368184402F0A6
:1054200069FDF4E710B582B00023044601228DF82F
:10543000041001A98DF80530FFF7BCFF204602B02B
:1054400010BD00BF10B583688C681B1B93420CD342
:10545000036873B1096851B110462246184402F03E
:1054600025FEB0FA80F0400910BD002010BD0846AE
:1054700010BD184610BD00BF82688B689A4202D3E7
:105480000022FFF7DFBF0020704700BF006808B1AF
:1054900001F01EBF704700BF2A281BD814490B78A3
:1054A0004BB1144A936C1B06FCD4134A936C13F053
:1054B0008003FBD10B70114B1B5CFF2B0AD01A062B
:1054C0000AD40C4A114613600B6A0A4AD807FBD566
:1054D000506A704700207047074A03F07F03114667
:1054E00013600B6A044ADB07FBD5506A704700BFA4
:1054F000D013002000400C4000800C407C000020B5
:10550000964A974B90422DE9F043964CD3F814E01D
:105510009969E6681CD9944B984240F21581934BE7
:1055200040F22765924F0344924C1A0AA7FB0232BD
:10553000D30903EB830303EB830202F2E243AB42A2
:1055400028BF2B46A3F54873A4FB0335ED0804E000
:10555000894DA84294BF06250E25814A06F01F07F3
:10556000D2F88030AF4243F0C003C2F880300AD294
:105570007C4B26F01F061A462E43DE601368002B74
:10558000FCDA06F01F071EF0007331D17B4C7C4A19
:10559000D4F810C014460CEA0202A2420ABF4FF02F
:1055A000C0534FF4805200228EEA030414F0605F6F
:1055B00008D02EF0605E03F06053694C43EA0E0E93
:1055C000C4F814E081EA020313F4405F08D0644B8E
:1055D00021F4405111431A469961936C1C07FCD485
:1055E0004EF0007E5E4AC2F814E0936C9906FCD43B
:1055F0000121644C0A4601FB02F300FB03F3A342C2
:1056000009D8072A00F29580013201FB02F300FB62
:1056100003F3A342F5D95C485C4C1844A4FB000397
:105620001B0D6C2B00F28B80352B00F28F80DFF886
:10563000888136235648DFF844C1564CDCF8009088
:10564000B0FBF2F009EA04044445B0FBF1F00BD0E2
:1056500043F400534FF480586446CCF80080CCF8F3
:1056600000302368002BFCDADFF8F4C0013ADCF8E4
:10567000103003F00703934207D002F0070264469C
:10568000CCF81020A36CDB03FCD4013989028EEA2C
:10569000010313F4E05F0CD0314B2EF4E05E01F413
:1056A000E0511A4641EA0E0EC3F814E0936C9907D4
:1056B000FCD4394B39490344DB09A1FB0331090B05
:1056C000042928BF04214B1E1B028EEA030212F498
:1056D000407F07D02EF4407E03F44073204A43EA13
:1056E0000E0353611E4B5C691A4624F000745C6122
:1056F000936C9B06FCD42A4B4FF0FF32294CBD42E1
:10570000A3FB00E320604FEA9343274CB2FBF3F383
:10571000B0FBF1F1254A2160136008D2114B26F04D
:105720001F061A462E43DE601368002BFCDABDE824
:10573000F08304293FF66FAF013101225BE7DFF808
:105740007C806C231A4876E7122506E71948DFF8B3
:10575000708000FB03F043EA08086CE700A4781FA0
:1057600000C00F40000008400046C32300BA3CDCE4
:1057700023B24C001F85EB5100366E0100800D40B6
:1057800040300080FFB19F26808D5B00819F5E16B8
:1057900000B29F267F3001807FD1F0089F10E50086
:1057A00083DE1B43D0050020CC050020D813002049
:1057B00000643F4D001BB700362000806C20008045
:1057C00000200080002857D001222DE9F04F85B03D
:1057D00083462A4C2A4D2B4EDDE9028954E8003FCE
:1057E0002868336844E800210029F7D1264FCDE925
:1057F00002893A68D31A254A4FF47A7E01971268D3
:105800000127A3FB02234FF47A72984600238B42B0
:1058100008BF42452CBFC246F2460EFB00AA54E820
:10582000003F2A68316844E80073002BF7D10198E3
:105830000068411A15484FF47A7E00680EFB02F2A8
:10584000A1FB00014FF47A70CAEB020288460021E6
:10585000994208BF40452CBF434673461A447245DF
:1058600007D3BBF1010B0AF57A7AD8D105B0BDE8B0
:10587000F08F01F01DFBD2E7704700BF70160020CB
:10588000DC130020D4130020041000E0D813002003
:105890002DE9F003124A0126124D134C52E8003F45
:1058A0002968206842E80063002BF7D10F4A166888
:1058B0000F4F321A4FF000094FF47A783E684FF4D8
:1058C0007A709945A2FB066708BFB8453C462CBFD5
:1058D0003C46044600FB0140BDE8F003704700BFB2
:1058E00070160020DC130020D4130020041000E008
:1058F000D813002000010F4B1A181B5810B4D068A1
:105900005C68044205D059B1C3F884005DF8044BCB
:105910007047936849B9084A5DF8044B1A607047AC
:10592000C3F888005DF8044B7047044A5DF8044BE7
:105930001A607047A80000203830010038F00100DC
:105940000001054B1A5819189268CB681A4214BF07
:1059500001200020704700BFA8000020362801D891
:10596000FFF7C8BF704700BF362801D8FFF7E8BF70
:105970000020704736281CD800011A4A012902EB82
:105980000003105810B415D0042913D0DC68426805
:1059900022EA040242609A68E9B102291ED0032972
:1059A0005B685DF8044B0CBF0F491049116015226C
:1059B0001A607047DA680129446842EA04024260CA
:1059C0009A6808D040F6380111605B6815225DF8CE
:1059D000044B1A60704738211160F6E704491160E2
:1059E000F3E700BFA80000203830010038000100B4
:1059F00038F00100704700BF362823D80001F0B509
:105A00004B4C4C4D2358AB4246D07AD94A4DAB4211
:105A100044D005F58045AB4240F08580474F204497
:105A2000474E484CD0F804E0C568C4F8B462464814
:105A30004FF000540460042A62D8DFE802F04846C0
:105A400004314800704703265A696FEA050C0524A3
:105A500095FAA5F00CEA0202B0FA80F05A61CEF88D
:105A600000405A6802EA0C025A6047F82010DC69CC
:105A70000E2804EA0C04DC6148DC40000321DA68EB
:105A8000814006FA00F022EA01010843D8609D61D6
:105A90005A692A435A61F0BD2C4FC0E72C4FBEE72C
:105AA0005A696FEA050C052495FAA5F002EA0C0282
:105AB0000226B0FA80F05A61CEF800405A680CEA2B
:105AC00002025A6047F82010D1E70126BCE75C6962
:105AD0006FEA050C052695FAA5F004EA0C04042AE1
:105AE000B0FA80F05C61CEF800605C680CEA0404F7
:105AF0005C6047F8201018D1DA692A43DA61C6E7FA
:105B0000F0BDB3F1844F0FD1124F88E71249032241
:105B10001C69014449008A4006FA01F124EA0202A4
:105B200011431961B3E7F0BDF0BD00269FE700BF48
:105B3000A8000020004000420080004254070020DE
:105B4000210000000018002010E100E054060020B1
:105B5000D4060020D4050020F0FFFF7F08B5FFF732
:105B6000C3F8FFF727F901F0A3F9FAE7844641EA01
:105B7000000313F003036DD1403A41D351F8043BC5
:105B800040F8043B51F8043B40F8043B51F8043B17
:105B900040F8043B51F8043B40F8043B51F8043B07
:105BA00040F8043B51F8043B40F8043B51F8043BF7
:105BB00040F8043B51F8043B40F8043B51F8043BE7
:105BC00040F8043B51F8043B40F8043B51F8043BD7
:105BD00040F8043B51F8043B40F8043B51F8043BC7
:105BE00040F8043B51F8043B40F8043B51F8043BB7
:105BF00040F8043B51F8043B40F8043B403ABDD226
:105C0000303211D351F8043B40F8043B51F8043BC7
:105C100040F8043B51F8043B40F8043B51F8043B86
:105C200040F8043B103AEDD20C3205D351F8043B56
:105C300040F8043B043AF9D2043208D0D2071CBF22
:105C400011F8013B00F8013B01D30B88038060464B
:105C5000704700BF082A13D38B078DD010F00303C1
:105C60008AD0C3F10403D21ADB071CBF11F8013B31
:105C700000F8013B80D331F8023B20F8023B7BE780
:105C8000043AD9D3013A11F8013B00F8013BF9D2AB
:105C90000B7803704B7843708B7883706046704745
:105CA000F0B44E1E0025374600E00135B0FBF2F39C
:105CB00002FB130000F13704092800F13000E4B2C0
:105CC00098BFC4B2184607F8014F002BEDD14A190E
:105CD00053704DB1013316F8014F1778E81A377039
:105CE000834202F80149F5DB0846F0BC704700BF6B
:105CF00004207146084203D0EFF3098000F008B891
:105D0000EFF3088000F004B8704700BF704700BF91
:105D10001B4B05211B4A382030B5C2F84811082119
:105D2000C2F8380383B05A68174C0A4317485A60C0
:105D3000C3F88410C3F888102368834202D914483A
:105D4000FFF7DEFB0E4D08240020124A1249C5F869
:105D500084400190019B934205D8019B013301933C
:105D6000019B9342F9D9C5F888400190019B8B4271
:105D7000EDD8019B01330193019B8B42F9D9E6E7F2
:105D800000C01B4000801F40D0050020FF45C323FA
:105D900000A3E1113F420F003F548900094A08B5B2
:105DA000136820B118440849884202D81060184688
:105DB00008BD01F0CFFA0C224FF0FF330260184605
:105DC00008BD00BFD40700200000282072B6064A94
:105DD0000721064B1964936B43F040039363BFF3B1
:105DE0004F8F30BFFDE700BF00400D4000C00A40AC
:105DF000836BF0B41BB1536843F40043536072B635
:105E0000446BDCB1144B2260D3F8B0410C421FD17B
:105E1000124D2F6804E02C68E41BB4F5166F0BD20A
:105E2000D3F8404144F48044C3F84041D3F8B8610A
:105E3000D3F840416404EED5314209D10023064C29
:105E40008260C360D4F8B0311943C4F8B011026362
:105E5000426362B6F0BC704700002E40041000E0C0
:105E600070B50646006B90B10246002403E012684C
:105E70000134012A0CD0536813F08003F7D0326349
:105E80002CB1B36B05689847013C2846F9D170BD29
:105E900033637363F4E700BFF0B5E1B9214C2249E5
:105EA0000020224B01224FF0011580260A601A467D
:105EB000A1604E60E060C3F8BC51D3F8B0411C4D06
:105EC00044F001048860C3F8B0412860D2F8B031D2
:105ED000002BFBD1F0BD0904164B144D0126114CCB
:105EE00041F0800100221E60596000F5805CE26490
:105EF00000F5005EA36400F54057D5F8B01100F539
:105F000080462A46986041F48031C3F80CC0C3F83B
:105F100010E05F619E61C5F8B011D2F8B031002B7E
:105F2000FBD1BCE7003000202020002000002E40E4
:105F300008140020002000202DE9F04FAC4C83B065
:105F4000D4F8448118F0010FC4F844815ED0D4F82D
:105F5000AC31002B55D04FF0011BDFF8BC92A54EA1
:105F60002546DA46C4F8AC31B06AF26AD4F840315A
:105F700043F40053C4F84031D4F840319F04F5D5C0
:105F8000D5F8403123F40053C5F84031C5F8B4A129
:105F9000D4F8B43113F00113FAD181B240F2816721
:105FA000C9F80030B94200F2B480B1F5D06F80F08A
:105FB000E981B1F5817F00F06B8100F2F0808029EA
:105FC00000F05981822940F0E28092B202F07F0114
:105FD000072900F2DC8089008748884F084401685F
:105FE00010063B707B7040F10C82CA0301D501237F
:105FF0003B7002218148FFF74FFFD4F8AC31002BF2
:10600000B0D17B4AD2F8BC31002B50D118F0400FF0
:1060100018D0774BD3F8AC111A46C3F8AC11D3F8AB
:10602000BC11C3F8BC11D2F8B041714B002CFAD1AD
:106030004FF0FF32C3F8B421D3F8843100F032FDC1
:106040006F4B1C6018F0807F03D06E4B1B6803B150
:10605000984718F0007F03D06B4B1B6803B198473B
:1060600018F0040F08D0624BD3F8843113F4007396
:106070004CD0664B01221A705D4BD3F848211206B2
:1060800012D518F0800F0FD061490A7862B1013A39
:10609000D2B20A7042B95F490A7802F0FB020A7074
:1060A000002A00F03282FBBE03B0BDE8F08F5A49EF
:1060B000C2F8BC310868034240F0E681504A1568D6
:1060C0001D40A3D02F0C0FD04A4E4FF0010997FA74
:1060D000A7F4B4FA84F406EBC41009FA04F44030CF
:1060E000FFF7BEFEA743F2D1ADB2002D8ED0414ED8
:1060F000012795FAA5F4B4FA84F406EBC41007FA64
:1061000004F4FFF7ADFEA543F3D17FE73F4A1370D8
:10611000B2E742F22107B94235D000F28980B1F5E9
:10612000086F00F02181B1F5106F30D1C0F3074046
:106130003A4A3B4910703B4F3B4A0193C5F8C8713E
:10614000C5F8CC11C5F8D02100F0AEFC374A019B50
:1061500080210120B26451601060F364C5F8BCB1C5
:10616000D5F8B011936041F48032C5F8B0212A4AC5
:106170001360D4F8B031002BFBD1D4F8AC31002B34
:106180007FF4F0AE3DE7110C072900F03E81C4F822
:10619000C0B1D4F8AC31002B7FF4E4AE31E740F26B
:1061A0000237B94200F0B080B1F5A06FEFD11F4ABD
:1061B00080210127F364B26417605160C5F8BCB157
:1061C000D5F8B011936041F48033C5F8B031D4F8FC
:1061D000B031002BFBD1030C5B0643F08073C5F894
:1061E0005431D4F8AC31002B7FF4BCAE09E700BFCA
:1061F00000002E4000300020C0012E401814002066
:10620000F8130020F41300200014002004140020D0
:106210000C140020FC130020081400202814002077
:10622000C80002000200CC000200C80020200020AC
:1062300042F2212399425BD042F221339942A6D106
:10624000B54B802200210120B36418605A60F164CC
:10625000C4F8BCB1D4F8B021996042F48033C4F8DA
:10626000B031D4F8B031002BFBD1D4F8AC31002BD5
:106270007FF478AEC5E6A94A022110461370537028
:10628000FFF70AFED4F8AC31002B7FF46BAEB8E612
:1062900092B202F07F03072B3FF679AF12F0800F26
:1062A0004FEA83039E4A4FF000014FF001001A4469
:1062B000136814BF23F4803323F00103136080229A
:1062C000954BF164B36418605A60C4F8BCB1D4F85B
:1062D000B021996042F48033C4F8B031D4F8B031C1
:1062E000002BFBD1D4F8AC31002B7FF43BAE88E619
:1062F00092B2002AA4D18B4BC0F307408A4A196896
:106300008A4B116018709BE792B202F07F03072B53
:106310003FF63DAF12F0800F4FEA8303804A4FF003
:1063200000014FF001001A44136814BF43F4803396
:1063300043F0010313608022774BF164B36418606B
:106340005A60C4F8BCB1D4F8B021996042F48033EB
:10635000C4F8B031D4F8B031002BFBD1D4F8AC3153
:10636000002B7FF4FFAD4CE6714A01216B4B127894
:1063700018461A70FFF790FDD4F8AC31002B7FF46B
:10638000F1AD3EE66B4B596800293FF400AF000CBD
:106390001FFA82FE04E00C33596800293FF4F7AE7F
:1063A0001F888742F7D15F887745F4D1070A032F0A
:1063B00000F0E9801B89120C934228BF1346B0F508
:1063C000007F00F0D180B0F5E06F00F08B805A4F75
:1063D0001A4601933846FFF7C9FB019B27F01F02BD
:1063E0001F44BFF34F8F55490A6020329742FAD8B5
:1063F000BFF34F8FBFF36F8F4F481946FFF74CFD28
:10640000FBE5CB077FF5F5ADF1E54D4F4FF0010E04
:10641000F3604C494C4B3860C3F800E05960B360FE
:106420004A49D5F8B0017A6001F5805740EA0E027A
:10643000996001F5005E01F5405001F58041C5F815
:10644000B021DF60C3F810E058619961D4F8B03131
:10645000002BFBD1304A012048F28001F364106028
:106460004FF48030B2645160C5F8BCB1D5F8B011BA
:10647000936041EA0003C5F8B031C9F80000D4F8D0
:10648000B031002BFBD1B8E52D4842F221040026A3
:1064900005880E60A54240687FF410AE81B20029E5
:1064A0007FF40CAE29492A4C03C90D0C86282060C4
:1064B000A180A5717FF402AE72B62648017841F042
:1064C00004010170D2F84811080606D441F0800199
:1064D0008020C2F84401C2F8481162B61E4A502119
:1064E0001170EBE51D481A46134F90F800E01C4967
:1064F0001C480193BEF1000F08BF01463846FFF764
:1065000035FB0722019B7A7068E7D3F8482122F017
:106510008002C3F84821C6E520200020181400207E
:10652000C0012E40DC1300208832002068150020B6
:1065300028140020180400200000202070EF00E044
:1065400010140020800007000020002020140020EC
:1065500080320020FC1300200C14002004140020C2
:10656000141A0060581A00600A481A460A49077847
:106570000A480193002F08BF01460948FFF7F6FAC1
:10658000074F019B2AE7120C0B78934228BF134652
:1065900019E700BF04140020581A0060141A0060A4
:1065A00000002020002AA0F102022DE9F04714BFCC
:1065B00000274FF00057022A01D9BDE8F0874FEAC3
:1065C000C01ADFF840900D4604460AEB0906002188
:1065D00040229846304601F031FA012047EA054151
:1065E0004AF80910C6F83880B060B8F1000FE4D05E
:1065F000034BA0401C6820431860BDE8F08700BF33
:10660000F813002000300020002AA0F102022DE93A
:10661000F04714BF00274FF00057022A01D9BDE808
:10662000F0874022C501DFF84490884615440021D8
:1066300004461E4605EB090A504601F0FFF9012207
:1066400047EA084145F80910CAF83860CAF8082036
:10665000002EE4D004F11000034B8240186802437E
:106660001A60BDE8F08700BFF8130020003000205A
:1066700012048160C36142F08002F0B442600127DD
:1066800001F5805601F5005501F5405401F58042B1
:106690000760C660056144618261F0BC704700BF5D
:1066A000831E022B00D9704730B4064B00F1100452
:1066B00001250A4603EBC01005FA04F130BCFFF7D0
:1066C00097BB00BF40300020831E022B00D97047CB
:1066D00010B4054B01240A4604FA00F103EBC01084
:1066E0005DF8044BFFF784BB003000204068704722
:1066F000124A134BD2F8200220F07F40984210B586
:1067000084B002D800EB800040000E4C01A90A22A0
:10671000FFF7C6FA01A90023204611F8012B013327
:106720003AB10A2B20F8022FF7D11623237004B0B8
:1067300010BD5B00DBB2237004B010BD00441F40ED
:106740007F969800EC07002000F0D0BA00F0A6BABF
:1067500000F006BB00F0C4BA00F05ABB00F032BB38
:106760000846114600F022BB084600F009BB00BFF6
:10677000F8B514494FF40037134D034601EB40249C
:10678000124E134A05EB4015214617602846328801
:10679000FFF76EFF318824F01F032144BFF34F8FB2
:1067A0000C4A136020339942FBD8BFF34F8FBFF3DD
:1067B0006F8F03202946FFF787FF074B4FF4003206
:1067C0001A60F8BD60002020401400204E15002003
:1067D0008CE100E05CEF00E00CE100E0244A43685B
:1067E0002DE9F041C3F30E431488C569E41A002C67
:1067F00038DD2049204A0B781278DBB21F48204E42
:10680000934207D010F8038036F81870C7F500726D
:10681000944212D9013300221A4F082B26F8154052
:1068200027F81520184E94BFDAB213460A70326862
:10683000C55414443460BDE8F081144B07EB482084
:106840002246274403EB45211844FFF78FF90E4AEF
:10685000284626F8187013681C441460BDE8F041FF
:10686000FFF786BF2846BDE8F041FFF781BF00BFB4
:106870004E1500206415002040150020441500200E
:10688000501500202C1400206015002060002020EE
:106890001E4B1A785AB902F0FF031D4A127832B122
:1068A0002DE9F0411B4D2A8812B9BDE8F0817047EF
:1068B000194EC2F50068194F31784246184C07EB63
