:100000000C9445000C9473070C9473070C947307BD
:100010000C9473070C9473070C9473070C94730778
:100020000C942F060C9473070C9473070C947307AD
:100030000C9473070C944C060C9486010C94730773
:100040000C940C060C9473070C9473070C947307B0
:100050000C9473070C9473070C9473070C94730738
:100060000C9473070C9473070C9473070C94730728
:100070000C9473070C9473073800388D80388D38D2
:100080008E000EF4388E389A800011241FBECFEFF8
:10009000CDBFDFE3DEBFE8E7F0E040E017C0B59199
:1000A000A59135912591059107FD0CC095918591FC
:1000B000EF01F92FE82F05900D92A217B307D9F79A
:1000C000FE0104C01D92A217B307E1F7E938F40757
:0E00D00031F70E94C6040C943C07F894FFCF51
:1000DE00A8E3B0E0E5E7F0E00C9467063C014A01C6
:1000EE001901869EA001879E500D969E500D1124DB
:1000FE0081E090E089AB9AAB1BAA1CAA4115510571
:10010E0009F4F9C0CA01881999099301280F391FFA
:10011E002DAB3EAB8B829C8289829A82FE013196F8
:10012E002F0181919191880D991D20813181820F2E
:10013E00931F828393838417950798F3AA24A3941D
:10014E00B12CEDA9FEA96E167F0608F05AC089A93A
:10015E009AA983709927039789F482019501A101C9
:10016E00B401C3010E94960362E070E0CE01C19615
:10017E000E94BA0532E0A30EB11C3BC0C501019727
:10018E008FAB98AFFC01EE0FFF1FE40DF51D208124
:10019E0031818DA99EA9861997092817390768F00C
:1001AE006201E12CF12C85019E012F5C3F4FA101D4
:1001BE00B401C3010E94540207C082019501A1013E
:1001CE00B401C3010E949603AA94AB2849F461E0DE
:1001DE0070E0CE01C1960E948E05A12CB12C09C0F3
:1001EE006FA978ADCE01C1960E948E05AA24A39464
:1001FE00B12C89A99AA9816089AB9AAB680C791C3C
:10020E00A0CF6201E12CF12C85019E012F5C3F4FA6
:10021E00A101B401C3010E945402F1E0AF16B10472
:10022E0009F45FC084F4CE01C1960E9469048C016A
:10023E00BC01CE01C1960E94BA059501200F311F57
:10024E002DAB3EAB49C062E070E0CE01C1960E947C
:10025E008E05C50102978DAB9EAB89A99AA9E7E0E1
:10026E008E2789AB9AAB61E070E0CE01C1960E94F9
:10027E00BA05850101501109EDA9FEA9EE0FFF1F68
:10028E00E40DF51D80819181880D991D6201EE248A
:10029E00E394F12C9E012F5C3F4FA101B401F301B9
:1002AE00E81BF90BCF010E94540261E070E0CE0111
:1002BE00C1960E948E0589A99AA9816089AB9AABD5
:1002CE000DA91EA99E012F5C3F4FA101B401C301D0
:1002DE00881999090E94540268187908ADA8BEA819
:1002EE009CCF89A99AA9019709F09DCF8BA99CA9AA
:0E02FE00892B09F098CFE896E2E10C94800677
:10030C001F920F920FB60F9211242F933F934F937E
:10031C005F936F937F938F939F93AF93BF93EF9361
:10032C00FF938091AB0886FF0FC08091AB0880FFD4
:10033C000BC083E08093AA081092953881E08093DB
:10034C0090380E945D0799C08091AB0888230CF00F
:10035C0087C08091AB0881FF16C010928F388091B6
:10036C0095380E946407E0EAF8E0858783E082878D
:10037C00809195388F5F803118F4809395387DC0CB
:10038C00109295387AC08091AD0890918F38913049
:10039C0081F118F0923099F15CC0982F92959F7072
:1003AC00953009F591E090938F388F704091933888
:1003BC0020E030E090E0BC01022E02C075956795FC
:1003CC000A94E2F760FF06C0E42FF0E0ED57F74C1B
:1003DC0020834F5F2F5F3F4F2430310561F74093EF
:1003EC009338411136C00E945D0787E08093AA08BC
:1003FC0044C08093923882E080938F382AC06091F9
:10040C009238462F437040939238282F2F70220F2A
:10041C00220F90E1499FA001112482958F70482BE7
:10042C0066956695E0919438F0E0ED57F74C808135
:10043C000E947007809194388F5F809394389091CC
:10044C009338891718F00E945D0703C081E08093F0
:10045C008F3883E08093AA0881E0809391380DC097
:10046C008091AB0886FF09C08091AB0880FD05C068
:10047C0082E08093AA0810929038FF91EF91BF917F
:10048C00AF919F918F917F916F915F914F913F9120
:0C049C002F910F900FBE0F901F9018952D
:1004A800A4E4B0E0EAE5F2E00C9467065C013B01E5
:1004B8002A0148011601F901808191818BAF9CAF17
:1004C800828193818DAF9EAFA982BA829E012D5FF2
:1004D8003F4F21962EAF3FAF2197CC24C394D12C08
:1004E80088279927861B970B25968EAF9FAF259750
:1004F8008BAD9CAD019709F460C0C401880F991FAA
:10050800F101E80FF91F2396EEAFFFAF2397808123
:1005180091818501081B190B69817A81C801F20153
:100528000995181619062CF0E114F10409F059C0C0
:100538004AC0EF28E9F0FFEFCF1ADF0A2196EEADA7
:10054800FFAD2197019311932196EEAFFFAF21974D
:10055800CE01CB960E9469047C01BC01CE01CB96EA
:100568000E94BA058E0C9F1CE12CF12C5801C0CFBB
:10057800F2E08F169104FCF22396EEADFFAD2397BF
:100588003497808191812596EEACFFAC2597E81AC7
:10059800F90AEA0CFB1CB80125968EAD9FAD25978C
:1005A8008A0D9B1DF201099597FF0DC0B801C7017F
:1005B800F201099597FDBFCF06C08DAD9EAD892B81
:1005C80009F09BCFB1CFA601BE016F5F7F4FC3017A
:1005D8000E941A0581019401A201B301C5010E947C
:0C05E8009603CC5BDF4FE2E10C94800630
:1005F400CF93DF9380918E38882309F48AC00E94B8
:10060400980610928E38EFE3F8E3C7E2D8E327E5C3
:1006140038E3DE0180818C93818111968C9311974C
:1006240032961296E217F307A9F722EC36E042E07D
:1006340050E06CE070E087E298E30E946F000E9453
:1006440098060E94AD0610928D38E0E0F8E312821D
:1006540087EE97EE8083918370912838703408F088
:1006640051C04DE358E360E021E030E0862F90E094
:10067400FC01EE0FFF1F8E0F9F1FFC01E050F84C92
:1006840082818717D0F46F5F862F90E0DC01AA0F78
:10069400BB1FA80FB91FA050B84C12967C93129799
:1006A4000197FC01EE0FFF1F8E0F9F1FFC01E0500E
:1006B400F84C808191818D939C93E62FF0E0CF01DB
:1006C400880F991FE80FF91FE050F84CC901088002
:1006D40002C0880F991F0A94E2F780959095A08133
:1006E400B1818A239B2380839183C417D50719F48E
:1006F40060938D3807C022967981703408F4B6CFA0
:1007040060938D3880918D388F5F80938D380E94EF
:10071400AD0610928C386091003870910138809148
:080724000238DF91CF91089526
:10072C00A0E4B0E0ECE9F3E00C9467063B011A019D
:10073C0079010DAF1EAF89839A838E010F5F1F4F16
:10074C0032E0832E912C0FAF21961FAF21974424BA
:10075C005524461A570AF4013197EBAFFCAFF2E07F
:10076C00EF16F1047CF15C01A40CB51CF701E2500E
:10077C00F048EE0FFF1F2DAD3EADE20FF31F2081B1
:10078C0031816201C21AD30AC80ED91EB601898101
:10079C009A81F101099597FF0EC0B501C601F101CF
:1007AC00099597FD1DC0F801C282D382F1E0EF1AC2
:1007BC00F10856011BC0B50189819A81F101099597
:1007CC0097FDEBCF4BAD5CAD6FAD21967FAD219717
:1007DC00C3010E941A05C05CDF4FE2E10C94800655
:1007EC00F801A282B382F2E0EF1AF1082FEF821A1D
:0A07FC00920A0E5F1F4FC501AECF39
:10080600AFE3B8E381E08C93E7E5F8E380E498E3AF
:100816008083918382E012968C93129782E498E308
:100826008283938314961C92149784E498E38483BA
:10083600958386E016968C93169786E498E38683CE
:10084600978387E018968C93189788E498E38087B7
:10085600918785E01A968C931A978AE498E38287A3
:10086600938789E01C968C931C978CE498E3848785
:1008760095878AE01E968C931E978EE498E386876A
:10088600978788E050968C93509780E598E3808B05
:10089600918B8EE052968C93529782E598E3828BE9
:1008A600938B8FE054968C93549784E598E3848BCE
:1008B600958B8DE056968C9386E598E3868B978B81
:0C08C600E0E0F8E3108211821282089535
:1008D200CF93DF93FC01808191810197A0E0B0E08A
:1008E20044275527BA01481B590B6A0B7B0B9A0107
:1008F200AB01282339234A235B2369E276EE8BE698
:1009020097E00E94F806DC01CB013BE1B695A79582
:10091200979587953A95D1F7DC01A053B247CC91D0
:100922000C2E000CDD0B209761F582819381A0E0F3
:10093200B0E044275527BA01481B590B6A0B7B0BC1
:100942009A01AB01282339234A235B2369E276EE1D
:100952008BE697E00E94F806DC01CB012BE1B6950D
:10096200A795979587952A95D1F7FC01E053F24711
:100972008081082E000C990B40968031910509F078
:0A098200EC01CE01DF91CF91089542
:10098C0060E081E690E00E946A07E1E0F4E080819B
:10099C0080648083E1E2F4E08081806280830E9445
:1009AC0017070E94240781E00E94D6060E945E056C
:1009BC007894C7E8D8E38091973890919638891746
:1009CC0071F180939638811123C02CE04EE366E3DD
:1009DC000E94E60528E04BE162E281E00E94E60518
:1009EC002DE04BE263E182E00E94E60522E046E363
:1009FC0065E283E00E94E6050E94FA026093873864
:100A0C007093883880938938CB010E94310707C0D6
:100A1C009A81891304C0888199810E9431071092B0
:080A2C008A3810928B38C7CF05
:100A3400A0E0B1E0E0E2F5E00C946D066C015B012E
:100A440042305105ACF1440F551F8B01040F151FA3
:100A5400CE010196F80180839183C114D10441F140
:100A64007601F1E0CF16DF0618F0E12CFF24F394B1
:100A7400F50160817181A701F801808191810E9453
:100A840047074501F40162817381A7018081918147
:100A94000E944707F401808191818E0D9F1D8193EF
:100AA40091934F01E017F10769F7CE18DF08D5CF0E
:080AB400D395ECE00C948606DA
:100ABC00E0E0F4E080818A608083E0E2F4E0808111
:100ACC0084608083E0ECF8E080E2808384E88183BA
:100ADC008081816080830E94030420E040E060E01C
:100AEC0080E00E94E60520E040E060E081E00E94AA
:100AFC00E60520E040E060E082E00E94E60520E0B0
:100B0C0040E060E083E00E94E6050E94FA0208954E
:100B1C00FC016031710540F0605171098081918157
:100B2C00828393831082118280819181228133810F
:100B3C00062E02C0220F331F0A94E2F740E150E068
:100B4C00461B570BDC0102C0B695A7954A95E2F7F8
:100B5C002A2B3B2B2283338302C0880F991F6A9563
:080B6C00E2F7808391830895F4
:100B7400FC016031710540F06051710982819381FB
:100B840080839183128213828281938120813181B7
:100B9400062E02C0369527950A94E2F740E150E00C
:100BA400461B570BDC0102C0AA0FBB1F4A95E2F794
:100BB4002A2B3B2B2083318302C0969587956A9517
:080BC400E2F782839383089598
:100BCC00CF93DF9390E0FC01EE0FFF1FDF01A80F26
:100BDC00B91FAA0FBB1FA95AB74CCD91DC91119725
:100BEC00688312960D90BC91A02D4C93E80FF91FC1
:100BFC00EE0FFF1FE95AF74C0480F581E02D20839E
:0C0C0C0081E080938E38DF91CF91089535
:100C18008F938FB78F93AF93BF93EF93FF93809189
:100C2800C30886FF10C0E0E2F4E085818460858314
:100C3800A0ECB8E013968C911397806413968C936C
:100C4800868184608683FF91EF91BF91AF918F91E8
:060C58008FBF8F9118957B
:100C5E001F921FB61F9211248F93EF93FF93E0E024
:100C6E00FAE0838581608387809197388F5F813426
:100C7E0018F48093973802C010929738FF91EF9135
:0A0C8E008F911F901FBE1F90189554
:100C98008F938FB78F939F93EF93FF93E0E8FAE0DA
:100CA80086818160868380918A3890918B380196FD
:100CB80080938A3890938B38FF91EF919F918F9111
:060CC8008FBF8F9118950B
:100CCE002F923F924F925F926F927F928F929F924E
:100CDE00AF92BF92CF92DF92EF92FF920F931F933C
:100CEE00CF93DF93CDB7DEB7CA1BDB0BCDBFDEBF15
:020CFE00099457
:100D00002A88398848885F846E847D848C849B849B
:100D1000AA84B984C884DF80EE80FD800C811B81A9
:100D2000AA81B981CE0FD11DCDBFDEBFED010895DF
:100D300080919938811109C081E080939938E4E26B
:100D4000F4E08081806280830895E4E2F4E08081B1
:0A0D50008F7D80831092993808957A
:100D5A0080919838811109C081E080939838E4E045
:100D6A00F4E0808180648083089510929838E4E0EA
:0A0D7A00F4E080818F7B80830895F0
:100D8400FC012181FB01918161E070E0921710F078
:100D940060E070E041E050E0291710F040E050E0DE
:080DA400CB01841B950B08959F
:100DAC00880F8160E0EAF8E0848783EE8187EFE6C4
:100DBC00F8E381E0808382E0848383E0808784E0B1
:040DCC00848708957B
:100DD000000117021D1813031E1B190B1408040D24
:100DE0001F161C121A0A070C1511090610050F0E02
:100DF000DB018F939F930E945207BF91AF91A29FF7
:100E0000800D911DA39F900DB29F900D1124089508
:100E1000A29FB001B39FC001A39F700D811D11243B
:0E0E2000911DB29F700D811D1124911D08952A
:100E2E00E0E0FAE087E190E086A397A382858160F7
:0A0E3E00828780818B608083089515
:100E4800E0E8FAE080E197E2848795878581816010
:0A0E58008583808183608083089504
:100E62002091C30825FF06C0E0ECF8E020E42283CD
:060E7200948384830895BF
:100E7800EC010E9478070E947707CE010E9479074B
:060E8800CE010E94750777
:100E8E00FB01DC01480F591FA417B50719F021917A
:060E9E002D93FACF089528
:100EA4000E940807A59F900DB49F900DA49F800DEC
:060EB400911D11240895B8
:0E0EBA0010928F381092943810929338089549
:0C0EC800880F982F990F990F890F08953B
:0C0ED400DC0128ED209334006C9308959D
:060EE0000E94E6050895E2
:040EE6000C94000068
:040EEA000E946D00F5
:020EEE00089565
:020EF000089563
:020EF200089561
:010EF40001FC
:00000001FF
