S02B0000646973742F44656275672F64656275672F617474696E7954657374427574746F6E426C696E6B2E587A
S11300000C943C000C9459000C9459000C94590025
S11300100C9459000C9459000C9459000C945900F8
S11300200C940A010C9459000C9459000C94590036
S11300300C9459000C9439010C9459000C945900F7
S11300400C94C6000C9459000C9459000C9459005B
S11300500C9459000C9459000C9459000C945900B8
S11300600C9459000C9459000C9459000C945900A8
S11300700C9459000C94590011241FBECFEFCDBF2E
S1130080DFE3DEBF18E3A0E0B8E3E2E1F7E002C09B
S113009005900D92A030B107D9F728E3A0E0B8E3AA
S11300A001C01D92A330B207E1F70E948D010C94A8
S11300B087030C940000CF93DF9300D0CDB7DEB755
S11300C089839A8380EC98E0FC018381882F90E0F7
S11300D080729927892B91F080EC98E020E4FC0150
S11300E0228380EC98E029813A81232F3327FC0175
S11300F0248380EC98E02981FC01248300000F9084
S11301000F90DF91CF910895CF93DF93CDB7DEB7F2
S113011080E09AE021E030E0FC0126A337A380E0F0
S11301209AE020E03AE0F90122852160FC0122876F
S113013080E09AE020E03AE0F90120812D60FC01A2
S113014020830000DF91CF910895CF93DF93CDB743
S1130150DEB780E89AE020E137E2FC0124873587A6
S113016080E89AE020E83AE0F90125812160FC0169
S1130170258380E89AE020E83AE0F90120812360B1
S1130180FC0120830000DF91CF9108951F920F920C
S113019000903F000F9211242F933F938F939F93CE
S11301A0EF93FF93CF93DF93CDB7DEB780EC98E066
S11301B0FC018381882F90E080749927892BD9F0E2
S11301C080E294E020E234E0F90125812460FC011E
S11301D0258380EC98E020EC38E0F9012381206449
S11301E0FC01238380E294E020E234E0F9012681DB
S11301F02460FC0126830000DF91CF91FF91EF91F1
S11302009F918F913F912F910F9000923F000F90FB
S11302101F9018951F920F9200903F000F92112487
S11302202F933F938F939F93EF93FF93CF93DF93FA
S1130230CDB7DEB780E09AE020E03AE0F90123850B
S11302402160FC01238780E09AE021E030E0FC019A
S113025026A337A30000DF91CF91FF91EF919F91E7
S11302608F913F912F910F9000923F000F901F901C
S113027018951F920F9200903F000F9211242F9314
S11302803F938F939F93EF93FF93CF93DF93CDB7D8
S1130290DEB780E89AE020E83AE0F901268121609F
S11302A0FC01268380910038909101380196809357
S11302B00038909301380000DF91CF91FF91EF91C6
S11302C09F918F913F912F910F9000923F000F903B
S11302D01F901895CF93DF9300D0CDB7DEB78983F5
S11302E09A83998180910238890F80930238809192
S11302F00238882F90E09C012F70332781E090E032
S113030002C0880F991F2A95E2F70E945B00000043
S11303100F900F90DF91CF910895CF93DF93CDB7D6
S1130320DEB76097CDBFDEBF19821A8260E081E636
S113033090E00E94810380E294E020E234E0F9013D
S113034020812360FC0120830E9484000E94A50078
S113035080E094E020E034E0F90120812A60FC018F
S1130360208380E294E020E234E0F90120812460DB
S1130370FC01208380EC98E020E2FC01208380ECE7
S113038098E024E8FC01218380EC98E020EC38E03C
S1130390F90120812160FC012083789410920038B7
S11303A01092013881E090E00E946A0189819A816B
S11303B0019761F419821A8280E294E020E234E029
S11303C0F90124812360FC0124830DC081E090E0C5
S11303D089839A8380E294E020E234E0F901248165
S11303E02C7FFC01248380E090E0A0EAB1E48B83BD
S11303F09C83AD83BE8320E030E44CE955E46B81FB
S11304007C818D819E810E941403DC01CB018F834A
S11304109887A987BA8720E030E040E85FE36F81DE
S1130420788589859A850E94660288232CF481E068
S113043090E08B879C873FC020E03FEF4FE757E475
S11304406F81788589859A850E940F0318164CF56B
S113045020E030E040E251E46B817C818D819E811B
S11304600E941403DC01CB01BC01CD010E946B028C
S1130470DC01CB018B879C870FC084EF91E08D87D3
S11304809E878D859E850197F1F78D879E878B8545
S11304909C8501978B879C878B859C85892B69F725
S11304A014C06F81788589859A850E946B02DC016E
S11304B0CB018B879C878B859C858F87988B8F85B9
S11304C098890197F1F78F87988B68CF0E949A02D9
S11304D008F481E008950E94EE0288F09F5798F096
S11304E0B92F9927B751B0F0E1F0660F771F881F35
S11304F0991F1AF0BA95C9F714C0B13091F00E944F
S11305000803B1E008950C940803672F782F882717
S1130510B85F39F0B93FCCF3869577956795B39575
S1130520D9F73EF490958095709561957F4F8F4FE4
S11305309F4F0895990F0008550FAA0BE0E8FEEFAE
S113054016161706E807F907C0F012161306E40793
S1130550F50798F0621B730B840B950B39F40A268C
S113056061F0232B242B252B21F408950A2609F46A
S1130570A140A6958FEF811D811D089597F99F676E
S113058080E870E060E008959FEF80EC0895002417
S11305900A941616170618060906089500240A94E4
S11305A012161306140605060895092E0394000C6A
S11305B011F4882352F0BB0F40F4BF2B11F460FFF9
S11305C004C06F5F7F4F8F4F9F4F089557FD905822
S11305D0440F551F59F05F3F71F04795880F97FB03
S11305E0991F61F09F3F79F08795089512161306BD
S11305F01406551FF2CF4695F1DF08C016161706EC
S11306001806991FF1CF8695710561050894089520
S1130610E894BB2766277727CB0197F908950E94B2
S11306209A0208F48FEF08950E9427030C94D502D0
S11306300E94C70238F00E94CE0220F0952311F0E8
S11306400C94BE020C94C40211240C9409030E945D
S1130650E60270F3959FC1F3950F50E0551F629F1A
S1130660F001729FBB27F00DB11D639FAA27F00D07
S1130670B11DAA1F649F6627B00DA11D661F829F2E
S11306802227B00DA11D621F739FB00DA11D621F13
S1130690839FA00D611D221F749F3327A00D611D30
S11306A0231F849F600D211D822F762F6A2F112412
S11306B09F5750409AF0F1F088234AF0EE0FFF1F45
S11306C0BB1F661F771F881F91505040A9F79E3F9C
S11306D0510580F00C94BE020C9409035F3FE4F3CF
S11306E0983ED4F3869577956795B795F795E795F2
S11306F09F5FC1F7FE2B880F911D9695879597F9FB
S11307000895DC0128ED209334006C930895F89447
S1050710FFCF15
S9030000FC
