S02B0000646973742F44656275672F70726F64756374696F6E2F617474696E7946756C6C546573742E582E7075
S11300000C943C000C9459000C9459000C94590025
S11300100C9459000C9459000C9459000C945900F8
S11300200C9498020C9459000C9459000C945900A7
S11300300C9459000C94C0020C9459000C9459006F
S11300400C9459000C9459000C9459000C945900C8
S11300500C9459000C9459000C9459000C945900B8
S11300600C9459000C9459000C9459000C945900A8
S11300700C9459000C94590011241FBECFEFCDBF2E
S1130080DFE3DEBF18E3A0E0B8E3EEEDF8E002C082
S113009005900D92A030B107D9F728E3A0E0B8E3AA
S11300A001C01D92AB30B207E1F70E94F2020C943A
S11300B06D040C940000CF93DF93CDB7DEB780912D
S11300C00238DF91CF910895CF93DF93CDB7DEB798
S11300D080E494E0FC018085882F90E08870992763
S11300E0892B99F080910738482F80910038282F68
S11300F030E081E090E002C0880F991F2A95E2F772
S1130100809584238093073811C080910738482F45
S113011080910038282F30E081E090E002C0880F01
S1130120991F2A95E2F7842B80930738809107382A
S1130130882331F4809101388E7F8093013809C07F
S1130140809107388F3F29F4809101388160809332
S1130150013880E094E0FC018085882F90E0807174
S11301609927892B99F080910838482F809100387D
S1130170282F30E081E090E002C0880F991F2A9573
S1130180E2F7809584238093083811C08091083861
S1130190482F80910038282F30E081E090E002C0A1
S11301A0880F991F2A95E2F7842B80930838809151
S11301B00838882331F4809101388D7F8093013889
S11301C009C0809108388F3F29F4809101388260FA
S11301D08093013880E494E0FC018085882F90E0CE
S11301E081709927892B99F080910938482F809143
S11301F00038282F30E081E090E002C0880F991F7A
S11302002A95E2F7809584238093093811C0809160
S11302100938482F80910038282F30E081E090E0A1
S113022002C0880F991F2A95E2F7842B809309381E
S113023080910938882331F4809101388B7F809331
S1130240013809C0809109388F3F29F48091013821
S113025084608093013880E294E0FC018085882FDB
S113026090E080719927892B99F080910A38482F62
S113027080910038282F30E081E090E002C0880FA0
S1130280991F2A95E2F78095842380930A3811C038
S113029080910A38482F80910038282F30E081E07F
S11302A090E002C0880F991F2A95E2F7842B80936F
S11302B00A3880910A38882331F480910138877F85
S11302C08093013809C080910A388F3F29F48091C6
S11302D00138886080930138809100388F5F87707F
S11302E080930038F8948091013880930238789490
S11302F00000DF91CF910895CF93DF93CDB7DEB7A0
S11303006097CDBFDEBF19821A820BC089819A81A2
S1130310895F974CFC01108289819A8101968983B7
S11303209A8389819A8104978CF380E494E020E491
S113033034E0F9012081277FFC01208380E494E0EC
S113034020E434E0F90123892860FC01238B80E058
S113035094E020E034E0F90120812F7EFC01208329
S113036080E094E020E034E0F90124892860FC0175
S1130370248B80E494E020E434E0F90120812E7F92
S1130380FC01208380E494E020E434E0F901208936
S11303902860FC01208B80E294E020E234E0F90143
S11303A020812F7EFC01208380E294E020E234E06F
S11303B0F90124892860FC01248B80E090E0A0E806
S11303C0BFE38B839C83AD83BE8320E030E44CE9A0
S11303D055E46B817C818D819E810E94FA03DC014E
S11303E0CB018F839887A987BA8720E030E040E863
S11303F05FE36F81788589859A850E944C03882301
S11304002CF481E090E08B879C873FC020E03FEF95
S11304104FE757E46F81788589859A850E94F503B3
S113042018164CF520E030E040E251E46B817C8109
S11304308D819E810E94FA03DC01CB01BC01CD01B8
S11304400E945103DC01CB018B879C870FC084EF92
S113045091E08D879E878D859E850197F1F78D8725
S11304609E878B859C8501978B879C878B859C8534
S1130470892B69F714C06F81788589859A850E94D4
S11304805103DC01CB018B879C878B859C858F87EF
S1130490988B8F8598890197F1F78F87988B000047
S11304A06096CDBFDEBFDF91CF910895CF93DF93E8
S11304B0CDB7DEB780E09AE021E030E0FC0126A36E
S11304C037A380E09AE020E03AE0F9012285216038
S11304D0FC01228780E09AE020E03AE0F9012081E3
S11304E02D60FC0120830000DF91CF910895CF930C
S11304F0DF93CDB7DEB780E89AE028EC30E0FC016A
S11305002487358780E89AE020E83AE0F9012581DC
S11305102160FC01258380E89AE020E83AE0F901B3
S113052020812560FC0120830000DF91CF91089594
S11305301F920F9200903F000F9211242F933F932C
S11305408F939F93EF93FF93CF93DF93CDB7DEB752
S113055080E09AE020E03AE0F90123852160FC0183
S113056023870000DF91CF91FF91EF919F918F91AD
S11305703F912F910F9000923F000F901F9018957C
S11305801F920F9200903F000F9211242F933F93DC
S11305908F939F93EF93FF93CF93DF93CDB7DEB702
S11305A080E89AE020E83AE0F90126812160FC0124
S11305B02683809105388F5F8093053880910538B4
S11305C08170809305380000DF91CF91FF91EF9106
S11305D09F918F913F912F910F9000923F000F9028
S11305E01F901895CF93DF931F92CDB7DEB760E0CD
S11305F081E690E00E94670480E294E020E234E027
S1130600F90120812360FC01208319820E94560293
S11306100E9477020E947C01789490910438809122
S113062005389817D1F3809105388093043889816F
S1130630813059F4198280E294E020E234E0F90137
S113064024812360FC0124830BC081E0898380E240
S113065094E020E234E0F90124812C7FFC0124831E
S113066080910438882F90E0009719F0019721F0C9
S113067012C00E9464000FC00E945B008093063881
S11306809091063880910338981721F080910638AC
S1130690809303380000C1CF0E94800308F481E0F6
S11306A008950E94D40388F09F5798F0B92F992792
S11306B0B751B0F0E1F0660F771F881F991F1AF049
S11306C0BA95C9F714C0B13091F00E94EE03B1E0BD
S11306D008950C94EE03672F782F8827B85F39F0BC
S11306E0B93FCCF3869577956795B395D9F73EF4E2
S11306F090958095709561957F4F8F4F9F4F08958A
S1130700990F0008550FAA0BE0E8FEEF161617061E
S1130710E807F907C0F012161306E407F50798F086
S1130720621B730B840B950B39F40A2661F0232B9F
S1130730242B252B21F408950A2609F4A140A6951B
S11307408FEF811D811D089597F99F6780E870E000
S113075060E008959FEF80EC089500240A94161633
S1130760170618060906089500240A94121613069B
S1130770140605060895092E0394000C11F4882329
S113078052F0BB0F40F4BF2B11F460FF04C06F5F45
S11307907F4F8F4F9F4F089557FD9058440F551F1B
S11307A059F05F3F71F04795880F97FB991F61F0EF
S11307B09F3F79F087950895121613061406551F66
S11307C0F2CF4695F1DF08C0161617061806991FD2
S11307D0F1CF86957105610508940895E894BB27C7
S11307E066277727CB0197F908950E94800308F4C0
S11307F08FEF08950E940D040C94BB030E94AD0377
S113080038F00E94B40320F0952311F00C94A40353
S11308100C94AA0311240C94EF030E94CC0370F3EC
S1130820959FC1F3950F50E0551F629FF001729F91
S1130830BB27F00DB11D639FAA27F00DB11DAA1FA0
S1130840649F6627B00DA11D661F829F2227B00DED
S1130850A11D621F739FB00DA11D621F839FA00D78
S1130860611D221F749F3327A00D611D231F849FC8
S1130870600D211D822F762F6A2F11249F5750401F
S11308809AF0F1F088234AF0EE0FFF1FBB1F661F9A
S1130890771F881F91505040A9F79E3F510580F063
S11308A00C94A4030C94EF035F3FE4F3983ED4F359
S11308B0869577956795B795F795E7959F5FC1F707
S11308C0FE2B880F911D9695879597F90895DC0165
S11108D028ED209334006C930895F894FFCF24
S9030000FC
